{
  "_format": "hh-sol-artifact-1",
  "contractName": "CrateMinter_v1",
  "sourceName": "contracts/CrateMinter_v1.sol",
  "abi": [
    {
      "inputs": [
        {
          "internalType": "address",
          "name": "nft_contract_address",
          "type": "address"
        },
        {
          "internalType": "address",
          "name": "local_multisig_adddress",
          "type": "address"
        }
      ],
      "stateMutability": "nonpayable",
      "type": "constructor"
    },
    {
      "inputs": [
        {
          "internalType": "address",
          "name": "",
          "type": "address"
        }
      ],
      "name": "CrateCount",
      "outputs": [
        {
          "internalType": "uint256",
          "name": "",
          "type": "uint256"
        }
      ],
      "stateMutability": "view",
      "type": "function"
    },
    {
      "inputs": [],
      "name": "current_token_count",
      "outputs": [
        {
          "internalType": "uint256",
          "name": "",
          "type": "uint256"
        }
      ],
      "stateMutability": "view",
      "type": "function"
    },
    {
      "inputs": [],
      "name": "maxUserMints",
      "outputs": [
        {
          "internalType": "uint256",
          "name": "",
          "type": "uint256"
        }
      ],
      "stateMutability": "view",
      "type": "function"
    },
    {
      "inputs": [],
      "name": "mintCost",
      "outputs": [
        {
          "internalType": "uint256",
          "name": "",
          "type": "uint256"
        }
      ],
      "stateMutability": "view",
      "type": "function"
    },
    {
      "inputs": [
        {
          "internalType": "uint256",
          "name": "numberOfTokens",
          "type": "uint256"
        }
      ],
      "name": "mintCrate",
      "outputs": [],
      "stateMutability": "payable",
      "type": "function"
    },
    {
      "inputs": [],
      "name": "multisig_address",
      "outputs": [
        {
          "internalType": "address payable",
          "name": "",
          "type": "address"
        }
      ],
      "stateMutability": "view",
      "type": "function"
    },
    {
      "inputs": [],
      "name": "owner",
      "outputs": [
        {
          "internalType": "address",
          "name": "",
          "type": "address"
        }
      ],
      "stateMutability": "view",
      "type": "function"
    },
    {
      "inputs": [],
      "name": "pause",
      "outputs": [],
      "stateMutability": "nonpayable",
      "type": "function"
    },
    {
      "inputs": [],
      "name": "saleIsActive",
      "outputs": [
        {
          "internalType": "bool",
          "name": "",
          "type": "bool"
        }
      ],
      "stateMutability": "view",
      "type": "function"
    },
    {
      "inputs": [
        {
          "internalType": "uint256",
          "name": "newMax",
          "type": "uint256"
        }
      ],
      "name": "setMaxUserMints",
      "outputs": [],
      "stateMutability": "nonpayable",
      "type": "function"
    },
    {
      "inputs": [
        {
          "internalType": "uint256",
          "name": "newCostinIoTEX",
          "type": "uint256"
        }
      ],
      "name": "setMintCost",
      "outputs": [],
      "stateMutability": "nonpayable",
      "type": "function"
    },
    {
      "inputs": [
        {
          "internalType": "address",
          "name": "new_multisig_address",
          "type": "address"
        }
      ],
      "name": "setMultisigAddress",
      "outputs": [],
      "stateMutability": "nonpayable",
      "type": "function"
    },
    {
      "inputs": [
        {
          "internalType": "address",
          "name": "new_NFTcontract_address",
          "type": "address"
        }
      ],
      "name": "setNFTCOntractAddress",
      "outputs": [],
      "stateMutability": "nonpayable",
      "type": "function"
    },
    {
      "inputs": [
        {
          "internalType": "uint256",
          "name": "newTotal",
          "type": "uint256"
        }
      ],
      "name": "setTotalMints",
      "outputs": [],
      "stateMutability": "nonpayable",
      "type": "function"
    },
    {
      "inputs": [],
      "name": "totalMints",
      "outputs": [
        {
          "internalType": "uint256",
          "name": "",
          "type": "uint256"
        }
      ],
      "stateMutability": "view",
      "type": "function"
    },
    {
      "inputs": [],
      "name": "unpause",
      "outputs": [],
      "stateMutability": "nonpayable",
      "type": "function"
    },
    {
      "inputs": [],
      "name": "withdraw",
      "outputs": [],
      "stateMutability": "payable",
      "type": "function"
    }
  ],
  "bytecode": "0x6080604052683635c9adc5dea0000060005560c860015561271060025560006003556000600460146101000a81548160ff0219169083151502179055503480156200004957600080fd5b50604051620014ad380380620014ad83398181016040528101906200006f919062000151565b81600560006101000a81548173ffffffffffffffffffffffffffffffffffffffff021916908373ffffffffffffffffffffffffffffffffffffffff16021790555033600460006101000a81548173ffffffffffffffffffffffffffffffffffffffff021916908373ffffffffffffffffffffffffffffffffffffffff16021790555080600660006101000a81548173ffffffffffffffffffffffffffffffffffffffff021916908373ffffffffffffffffffffffffffffffffffffffff1602179055505050620001e0565b6000815190506200014b81620001c6565b92915050565b600080604083850312156200016557600080fd5b600062000175858286016200013a565b925050602062000188858286016200013a565b9150509250929050565b60006200019f82620001a6565b9050919050565b600073ffffffffffffffffffffffffffffffffffffffff82169050919050565b620001d18162000192565b8114620001dd57600080fd5b50565b6112bd80620001f06000396000f3fe6080604052600436106100fe5760003560e01c80635c8f6af111610095578063ab4a2baa11610064578063ab4a2baa146102c8578063b6afac9d146102f1578063bdb4b8481461030d578063c25ad82514610338578063eb8d244414610363576100fe565b80635c8f6af1146102345780638456cb591461025d5780638545f4ea146102745780638da5cb5b1461029d576100fe565b80631f21bfbf116100d15780631f21bfbf146101bd5780633ccfd60b146101e85780633d57698e146101f25780633f4ba83a1461021d576100fe565b8063055405341461010357806308adf7b71461012c57806317f582151461015557806318ce8b6314610192575b600080fd5b34801561010f57600080fd5b5061012a60048036038101906101259190610cf5565b61038e565b005b34801561013857600080fd5b50610153600480360381019061014e9190610d1e565b610462565b005b34801561016157600080fd5b5061017c60048036038101906101779190610cf5565b6104fc565b6040516101899190610f84565b60405180910390f35b34801561019e57600080fd5b506101a7610514565b6040516101b49190610f84565b60405180910390f35b3480156101c957600080fd5b506101d261051a565b6040516101df9190610f84565b60405180910390f35b6101f0610520565b005b3480156101fe57600080fd5b5061020761064b565b6040516102149190610e85565b60405180910390f35b34801561022957600080fd5b50610232610671565b005b34801561024057600080fd5b5061025b60048036038101906102569190610cf5565b61071e565b005b34801561026957600080fd5b506102726107f2565b005b34801561028057600080fd5b5061029b60048036038101906102969190610d1e565b61089f565b005b3480156102a957600080fd5b506102b261094c565b6040516102bf9190610e6a565b60405180910390f35b3480156102d457600080fd5b506102ef60048036038101906102ea9190610d1e565b610972565b005b61030b60048036038101906103069190610d1e565b610a0c565b005b34801561031957600080fd5b50610322610cac565b60405161032f9190610f84565b60405180910390f35b34801561034457600080fd5b5061034d610cb2565b60405161035a9190610f84565b60405180910390f35b34801561036f57600080fd5b50610378610cb8565b6040516103859190610ec9565b60405180910390f35b600460009054906101000a900473ffffffffffffffffffffffffffffffffffffffff1673ffffffffffffffffffffffffffffffffffffffff163373ffffffffffffffffffffffffffffffffffffffff161461041e576040517f08c379a000000000000000000000000000000000000000000000000000000000815260040161041590610f24565b60405180910390fd5b80600660006101000a81548173ffffffffffffffffffffffffffffffffffffffff021916908373ffffffffffffffffffffffffffffffffffffffff16021790555050565b600460009054906101000a900473ffffffffffffffffffffffffffffffffffffffff1673ffffffffffffffffffffffffffffffffffffffff163373ffffffffffffffffffffffffffffffffffffffff16146104f2576040517f08c379a00000000000000000000000000000000000000000000000000000000081526004016104e990610f24565b60405180910390fd5b8060018190555050565b60076020528060005260406000206000915090505481565b60035481565b60025481565b600460009054906101000a900473ffffffffffffffffffffffffffffffffffffffff1673ffffffffffffffffffffffffffffffffffffffff163373ffffffffffffffffffffffffffffffffffffffff16146105b0576040517f08c379a00000000000000000000000000000000000000000000000000000000081526004016105a790610f24565b60405180910390fd5b6000600660009054906101000a900473ffffffffffffffffffffffffffffffffffffffff1673ffffffffffffffffffffffffffffffffffffffff16476040516105f890610e55565b60006040518083038185875af1925050503d8060008114610635576040519150601f19603f3d011682016040523d82523d6000602084013e61063a565b606091505b505090508061064857600080fd5b50565b600660009054906101000a900473ffffffffffffffffffffffffffffffffffffffff1681565b600460009054906101000a900473ffffffffffffffffffffffffffffffffffffffff1673ffffffffffffffffffffffffffffffffffffffff163373ffffffffffffffffffffffffffffffffffffffff1614610701576040517f08c379a00000000000000000000000000000000000000000000000000000000081526004016106f890610f24565b60405180910390fd5b6001600460146101000a81548160ff021916908315150217905550565b600460009054906101000a900473ffffffffffffffffffffffffffffffffffffffff1673ffffffffffffffffffffffffffffffffffffffff163373ffffffffffffffffffffffffffffffffffffffff16146107ae576040517f08c379a00000000000000000000000000000000000000000000000000000000081526004016107a590610f24565b60405180910390fd5b80600560006101000a81548173ffffffffffffffffffffffffffffffffffffffff021916908373ffffffffffffffffffffffffffffffffffffffff16021790555050565b600460009054906101000a900473ffffffffffffffffffffffffffffffffffffffff1673ffffffffffffffffffffffffffffffffffffffff163373ffffffffffffffffffffffffffffffffffffffff1614610882576040517f08c379a000000000000000000000000000000000000000000000000000000000815260040161087990610f24565b60405180910390fd5b6000600460146101000a81548160ff021916908315150217905550565b600460009054906101000a900473ffffffffffffffffffffffffffffffffffffffff1673ffffffffffffffffffffffffffffffffffffffff163373ffffffffffffffffffffffffffffffffffffffff161461092f576040517f08c379a000000000000000000000000000000000000000000000000000000000815260040161092690610f24565b60405180910390fd5b670de0b6b3a7640000816109439190611011565b60008190555050565b600460009054906101000a900473ffffffffffffffffffffffffffffffffffffffff1681565b600460009054906101000a900473ffffffffffffffffffffffffffffffffffffffff1673ffffffffffffffffffffffffffffffffffffffff163373ffffffffffffffffffffffffffffffffffffffff1614610a02576040517f08c379a00000000000000000000000000000000000000000000000000000000081526004016109f990610f24565b60405180910390fd5b8060028190555050565b600460149054906101000a900460ff16610a5b576040517f08c379a0000000000000000000000000000000000000000000000000000000008152600401610a5290610ee4565b60405180910390fd5b600154811115610aa0576040517f08c379a0000000000000000000000000000000000000000000000000000000008152600401610a9790610f44565b60405180910390fd5b60025481600354610ab19190610fbb565b1115610af2576040517f08c379a0000000000000000000000000000000000000000000000000000000008152600401610ae990610f64565b60405180910390fd5b3481600054610b019190611011565b1115610b42576040517f08c379a0000000000000000000000000000000000000000000000000000000008152600401610b3990610f04565b60405180910390fd5b60005b81811015610ca857600060035490506002546003541015610c9457600560009054906101000a900473ffffffffffffffffffffffffffffffffffffffff1673ffffffffffffffffffffffffffffffffffffffff1663a144819433836040518363ffffffff1660e01b8152600401610bbd929190610ea0565b600060405180830381600087803b158015610bd757600080fd5b505af1158015610beb573d6000803e3d6000fd5b505050506001600354610bfe9190610fbb565b6003819055506001600760003373ffffffffffffffffffffffffffffffffffffffff1673ffffffffffffffffffffffffffffffffffffffff16815260200190815260200160002054610c509190610fbb565b600760003373ffffffffffffffffffffffffffffffffffffffff1673ffffffffffffffffffffffffffffffffffffffff168152602001908152602001600020819055505b508080610ca0906110c5565b915050610b45565b5050565b60005481565b60015481565b600460149054906101000a900460ff1681565b600081359050610cda81611259565b92915050565b600081359050610cef81611270565b92915050565b600060208284031215610d0757600080fd5b6000610d1584828501610ccb565b91505092915050565b600060208284031215610d3057600080fd5b6000610d3e84828501610ce0565b91505092915050565b610d508161107d565b82525050565b610d5f8161106b565b82525050565b610d6e8161108f565b82525050565b6000610d81601283610faa565b9150610d8c8261113d565b602082019050919050565b6000610da4601f83610faa565b9150610daf82611166565b602082019050919050565b6000610dc7600983610faa565b9150610dd28261118f565b602082019050919050565b6000610dea602183610faa565b9150610df5826111b8565b604082019050919050565b6000610e0d602883610faa565b9150610e1882611207565b604082019050919050565b6000610e30600083610f9f565b9150610e3b82611256565b600082019050919050565b610e4f816110bb565b82525050565b6000610e6082610e23565b9150819050919050565b6000602082019050610e7f6000830184610d56565b92915050565b6000602082019050610e9a6000830184610d47565b92915050565b6000604082019050610eb56000830185610d56565b610ec26020830184610e46565b9392505050565b6000602082019050610ede6000830184610d65565b92915050565b60006020820190508181036000830152610efd81610d74565b9050919050565b60006020820190508181036000830152610f1d81610d97565b9050919050565b60006020820190508181036000830152610f3d81610dba565b9050919050565b60006020820190508181036000830152610f5d81610ddd565b9050919050565b60006020820190508181036000830152610f7d81610e00565b9050919050565b6000602082019050610f996000830184610e46565b92915050565b600081905092915050565b600082825260208201905092915050565b6000610fc6826110bb565b9150610fd1836110bb565b9250827fffffffffffffffffffffffffffffffffffffffffffffffffffffffffffffffff038211156110065761100561110e565b5b828201905092915050565b600061101c826110bb565b9150611027836110bb565b9250817fffffffffffffffffffffffffffffffffffffffffffffffffffffffffffffffff04831182151516156110605761105f61110e565b5b828202905092915050565b60006110768261109b565b9050919050565b60006110888261109b565b9050919050565b60008115159050919050565b600073ffffffffffffffffffffffffffffffffffffffff82169050919050565b6000819050919050565b60006110d0826110bb565b91507fffffffffffffffffffffffffffffffffffffffffffffffffffffffffffffffff8214156111035761110261110e565b5b600182019050919050565b7f4e487b7100000000000000000000000000000000000000000000000000000000600052601160045260246000fd5b7f53616c65206973204e6f74204163746976650000000000000000000000000000600082015250565b7f45746865722076616c75652073656e74206973206e6f7420636f727265637400600082015250565b7f4e6f74204f776e65720000000000000000000000000000000000000000000000600082015250565b7f43616e206f6e6c79206d696e7420323020746f6b656e7320617420612074696d60008201527f6500000000000000000000000000000000000000000000000000000000000000602082015250565b7f507572636861736520776f756c6420657863656564206d617820737570706c7960008201527f206f662041706573000000000000000000000000000000000000000000000000602082015250565b50565b6112628161106b565b811461126d57600080fd5b50565b611279816110bb565b811461128457600080fd5b5056fea2646970667358221220025582ef69811b58377cf9c0c8d9133dbca0e3184ba235660d53144854d69e2064736f6c63430008040033",
  "linkReferences": {},
  "deployedLinkReferences": {}
}