{
  "_format": "hh-sol-artifact-1",
  "contractName": "CrateMinter_v1",
  "sourceName": "contracts/CrateMinter_v1.sol",
  "abi": [
    {
      "inputs": [
        {
          "internalType": "address",
          "name": "nft_contract_address",
          "type": "address"
        },
        {
          "internalType": "address",
          "name": "local_multisig_adddress",
          "type": "address"
        }
      ],
      "stateMutability": "nonpayable",
      "type": "constructor"
    },
    {
      "inputs": [
        {
          "internalType": "address",
          "name": "",
          "type": "address"
        }
      ],
      "name": "CrateCount",
      "outputs": [
        {
          "internalType": "uint256",
          "name": "",
          "type": "uint256"
        }
      ],
      "stateMutability": "view",
      "type": "function"
    },
    {
      "inputs": [],
      "name": "current_token_count",
      "outputs": [
        {
          "internalType": "uint256",
          "name": "",
          "type": "uint256"
        }
      ],
      "stateMutability": "view",
      "type": "function"
    },
    {
      "inputs": [],
      "name": "maxUserMints",
      "outputs": [
        {
          "internalType": "uint256",
          "name": "",
          "type": "uint256"
        }
      ],
      "stateMutability": "view",
      "type": "function"
    },
    {
      "inputs": [],
      "name": "mintCost",
      "outputs": [
        {
          "internalType": "uint256",
          "name": "",
          "type": "uint256"
        }
      ],
      "stateMutability": "view",
      "type": "function"
    },
    {
      "inputs": [
        {
          "internalType": "uint256",
          "name": "numberOfTokens",
          "type": "uint256"
        }
      ],
      "name": "mintCrate",
      "outputs": [],
      "stateMutability": "payable",
      "type": "function"
    },
    {
      "inputs": [],
      "name": "multisig_address",
      "outputs": [
        {
          "internalType": "address payable",
          "name": "",
          "type": "address"
        }
      ],
      "stateMutability": "view",
      "type": "function"
    },
    {
      "inputs": [],
      "name": "owner",
      "outputs": [
        {
          "internalType": "address",
          "name": "",
          "type": "address"
        }
      ],
      "stateMutability": "view",
      "type": "function"
    },
    {
      "inputs": [],
      "name": "pause",
      "outputs": [],
      "stateMutability": "nonpayable",
      "type": "function"
    },
    {
      "inputs": [],
      "name": "saleIsActive",
      "outputs": [
        {
          "internalType": "bool",
          "name": "",
          "type": "bool"
        }
      ],
      "stateMutability": "view",
      "type": "function"
    },
    {
      "inputs": [
        {
          "internalType": "uint256",
          "name": "newMax",
          "type": "uint256"
        }
      ],
      "name": "setMaxUserMints",
      "outputs": [],
      "stateMutability": "nonpayable",
      "type": "function"
    },
    {
      "inputs": [
        {
          "internalType": "uint256",
          "name": "newCostinIoTEX",
          "type": "uint256"
        }
      ],
      "name": "setMintCost",
      "outputs": [],
      "stateMutability": "nonpayable",
      "type": "function"
    },
    {
      "inputs": [
        {
          "internalType": "address",
          "name": "new_multisig_address",
          "type": "address"
        }
      ],
      "name": "setMultisigAddress",
      "outputs": [],
      "stateMutability": "nonpayable",
      "type": "function"
    },
    {
      "inputs": [
        {
          "internalType": "address",
          "name": "new_NFTcontract_address",
          "type": "address"
        }
      ],
      "name": "setNFTCOntractAddress",
      "outputs": [],
      "stateMutability": "nonpayable",
      "type": "function"
    },
    {
      "inputs": [
        {
          "internalType": "uint256",
          "name": "newTotal",
          "type": "uint256"
        }
      ],
      "name": "setTotalMints",
      "outputs": [],
      "stateMutability": "nonpayable",
      "type": "function"
    },
    {
      "inputs": [],
      "name": "totalMints",
      "outputs": [
        {
          "internalType": "uint256",
          "name": "",
          "type": "uint256"
        }
      ],
      "stateMutability": "view",
      "type": "function"
    },
    {
      "inputs": [],
      "name": "unpause",
      "outputs": [],
      "stateMutability": "nonpayable",
      "type": "function"
    },
    {
      "inputs": [],
      "name": "withdraw",
      "outputs": [],
      "stateMutability": "payable",
      "type": "function"
    }
  ],
  "bytecode": "0x6080604052670de0b6b3a764000060005560c860015561271060025560006003556000600460146101000a81548160ff0219169083151502179055503480156200004857600080fd5b50604051620015a6380380620015a683398181016040528101906200006e919062000150565b81600560006101000a81548173ffffffffffffffffffffffffffffffffffffffff021916908373ffffffffffffffffffffffffffffffffffffffff16021790555033600460006101000a81548173ffffffffffffffffffffffffffffffffffffffff021916908373ffffffffffffffffffffffffffffffffffffffff16021790555080600660006101000a81548173ffffffffffffffffffffffffffffffffffffffff021916908373ffffffffffffffffffffffffffffffffffffffff1602179055505050620001df565b6000815190506200014a81620001c5565b92915050565b600080604083850312156200016457600080fd5b6000620001748582860162000139565b9250506020620001878582860162000139565b9150509250929050565b60006200019e82620001a5565b9050919050565b600073ffffffffffffffffffffffffffffffffffffffff82169050919050565b620001d08162000191565b8114620001dc57600080fd5b50565b6113b780620001ef6000396000f3fe6080604052600436106100fe5760003560e01c80635c8f6af111610095578063ab4a2baa11610064578063ab4a2baa146102c8578063b6afac9d146102f1578063bdb4b8481461030d578063c25ad82514610338578063eb8d244414610363576100fe565b80635c8f6af1146102345780638456cb591461025d5780638545f4ea146102745780638da5cb5b1461029d576100fe565b80631f21bfbf116100d15780631f21bfbf146101bd5780633ccfd60b146101e85780633d57698e146101f25780633f4ba83a1461021d576100fe565b8063055405341461010357806308adf7b71461012c57806317f582151461015557806318ce8b6314610192575b600080fd5b34801561010f57600080fd5b5061012a60048036038101906101259190610d83565b61038e565b005b34801561013857600080fd5b50610153600480360381019061014e9190610dac565b610462565b005b34801561016157600080fd5b5061017c60048036038101906101779190610d83565b6104fc565b6040516101899190611055565b60405180910390f35b34801561019e57600080fd5b506101a7610514565b6040516101b49190611055565b60405180910390f35b3480156101c957600080fd5b506101d261051a565b6040516101df9190611055565b60405180910390f35b6101f0610520565b005b3480156101fe57600080fd5b5061020761064b565b6040516102149190610f36565b60405180910390f35b34801561022957600080fd5b50610232610671565b005b34801561024057600080fd5b5061025b60048036038101906102569190610d83565b61071e565b005b34801561026957600080fd5b506102726107f2565b005b34801561028057600080fd5b5061029b60048036038101906102969190610dac565b61089f565b005b3480156102a957600080fd5b506102b261094c565b6040516102bf9190610f1b565b60405180910390f35b3480156102d457600080fd5b506102ef60048036038101906102ea9190610dac565b610972565b005b61030b60048036038101906103069190610dac565b610a0c565b005b34801561031957600080fd5b50610322610d3a565b60405161032f9190611055565b60405180910390f35b34801561034457600080fd5b5061034d610d40565b60405161035a9190611055565b60405180910390f35b34801561036f57600080fd5b50610378610d46565b6040516103859190610f7a565b60405180910390f35b600460009054906101000a900473ffffffffffffffffffffffffffffffffffffffff1673ffffffffffffffffffffffffffffffffffffffff163373ffffffffffffffffffffffffffffffffffffffff161461041e576040517f08c379a000000000000000000000000000000000000000000000000000000000815260040161041590610ff5565b60405180910390fd5b80600660006101000a81548173ffffffffffffffffffffffffffffffffffffffff021916908373ffffffffffffffffffffffffffffffffffffffff16021790555050565b600460009054906101000a900473ffffffffffffffffffffffffffffffffffffffff1673ffffffffffffffffffffffffffffffffffffffff163373ffffffffffffffffffffffffffffffffffffffff16146104f2576040517f08c379a00000000000000000000000000000000000000000000000000000000081526004016104e990610ff5565b60405180910390fd5b8060018190555050565b60076020528060005260406000206000915090505481565b60035481565b60025481565b600460009054906101000a900473ffffffffffffffffffffffffffffffffffffffff1673ffffffffffffffffffffffffffffffffffffffff163373ffffffffffffffffffffffffffffffffffffffff16146105b0576040517f08c379a00000000000000000000000000000000000000000000000000000000081526004016105a790610ff5565b60405180910390fd5b6000600660009054906101000a900473ffffffffffffffffffffffffffffffffffffffff1673ffffffffffffffffffffffffffffffffffffffff16476040516105f890610f06565b60006040518083038185875af1925050503d8060008114610635576040519150601f19603f3d011682016040523d82523d6000602084013e61063a565b606091505b505090508061064857600080fd5b50565b600660009054906101000a900473ffffffffffffffffffffffffffffffffffffffff1681565b600460009054906101000a900473ffffffffffffffffffffffffffffffffffffffff1673ffffffffffffffffffffffffffffffffffffffff163373ffffffffffffffffffffffffffffffffffffffff1614610701576040517f08c379a00000000000000000000000000000000000000000000000000000000081526004016106f890610ff5565b60405180910390fd5b6001600460146101000a81548160ff021916908315150217905550565b600460009054906101000a900473ffffffffffffffffffffffffffffffffffffffff1673ffffffffffffffffffffffffffffffffffffffff163373ffffffffffffffffffffffffffffffffffffffff16146107ae576040517f08c379a00000000000000000000000000000000000000000000000000000000081526004016107a590610ff5565b60405180910390fd5b80600560006101000a81548173ffffffffffffffffffffffffffffffffffffffff021916908373ffffffffffffffffffffffffffffffffffffffff16021790555050565b600460009054906101000a900473ffffffffffffffffffffffffffffffffffffffff1673ffffffffffffffffffffffffffffffffffffffff163373ffffffffffffffffffffffffffffffffffffffff1614610882576040517f08c379a000000000000000000000000000000000000000000000000000000000815260040161087990610ff5565b60405180910390fd5b6000600460146101000a81548160ff021916908315150217905550565b600460009054906101000a900473ffffffffffffffffffffffffffffffffffffffff1673ffffffffffffffffffffffffffffffffffffffff163373ffffffffffffffffffffffffffffffffffffffff161461092f576040517f08c379a000000000000000000000000000000000000000000000000000000000815260040161092690610ff5565b60405180910390fd5b670de0b6b3a76400008161094391906110e2565b60008190555050565b600460009054906101000a900473ffffffffffffffffffffffffffffffffffffffff1681565b600460009054906101000a900473ffffffffffffffffffffffffffffffffffffffff1673ffffffffffffffffffffffffffffffffffffffff163373ffffffffffffffffffffffffffffffffffffffff1614610a02576040517f08c379a00000000000000000000000000000000000000000000000000000000081526004016109f990610ff5565b60405180910390fd5b8060028190555050565b600460149054906101000a900460ff16610a5b576040517f08c379a0000000000000000000000000000000000000000000000000000000008152600401610a5290610f95565b60405180910390fd5b600154811115610aa0576040517f08c379a0000000000000000000000000000000000000000000000000000000008152600401610a9790611015565b60405180910390fd5b601481600760003373ffffffffffffffffffffffffffffffffffffffff1673ffffffffffffffffffffffffffffffffffffffff16815260200190815260200160002054610aed919061108c565b1115610b2e576040517f08c379a0000000000000000000000000000000000000000000000000000000008152600401610b2590610fb5565b60405180910390fd5b60025481600354610b3f919061108c565b1115610b80576040517f08c379a0000000000000000000000000000000000000000000000000000000008152600401610b7790611035565b60405180910390fd5b3481600054610b8f91906110e2565b1115610bd0576040517f08c379a0000000000000000000000000000000000000000000000000000000008152600401610bc790610fd5565b60405180910390fd5b60005b81811015610d3657600060035490506002546003541015610d2257600560009054906101000a900473ffffffffffffffffffffffffffffffffffffffff1673ffffffffffffffffffffffffffffffffffffffff1663a144819433836040518363ffffffff1660e01b8152600401610c4b929190610f51565b600060405180830381600087803b158015610c6557600080fd5b505af1158015610c79573d6000803e3d6000fd5b505050506001600354610c8c919061108c565b6003819055506001600760003373ffffffffffffffffffffffffffffffffffffffff1673ffffffffffffffffffffffffffffffffffffffff16815260200190815260200160002054610cde919061108c565b600760003373ffffffffffffffffffffffffffffffffffffffff1673ffffffffffffffffffffffffffffffffffffffff168152602001908152602001600020819055505b508080610d2e90611196565b915050610bd3565b5050565b60005481565b60015481565b600460149054906101000a900460ff1681565b600081359050610d6881611353565b92915050565b600081359050610d7d8161136a565b92915050565b600060208284031215610d9557600080fd5b6000610da384828501610d59565b91505092915050565b600060208284031215610dbe57600080fd5b6000610dcc84828501610d6e565b91505092915050565b610dde8161114e565b82525050565b610ded8161113c565b82525050565b610dfc81611160565b82525050565b6000610e0f60128361107b565b9150610e1a8261120e565b602082019050919050565b6000610e3260188361107b565b9150610e3d82611237565b602082019050919050565b6000610e55601f8361107b565b9150610e6082611260565b602082019050919050565b6000610e7860098361107b565b9150610e8382611289565b602082019050919050565b6000610e9b60218361107b565b9150610ea6826112b2565b604082019050919050565b6000610ebe60288361107b565b9150610ec982611301565b604082019050919050565b6000610ee1600083611070565b9150610eec82611350565b600082019050919050565b610f008161118c565b82525050565b6000610f1182610ed4565b9150819050919050565b6000602082019050610f306000830184610de4565b92915050565b6000602082019050610f4b6000830184610dd5565b92915050565b6000604082019050610f666000830185610de4565b610f736020830184610ef7565b9392505050565b6000602082019050610f8f6000830184610df3565b92915050565b60006020820190508181036000830152610fae81610e02565b9050919050565b60006020820190508181036000830152610fce81610e25565b9050919050565b60006020820190508181036000830152610fee81610e48565b9050919050565b6000602082019050818103600083015261100e81610e6b565b9050919050565b6000602082019050818103600083015261102e81610e8e565b9050919050565b6000602082019050818103600083015261104e81610eb1565b9050919050565b600060208201905061106a6000830184610ef7565b92915050565b600081905092915050565b600082825260208201905092915050565b60006110978261118c565b91506110a28361118c565b9250827fffffffffffffffffffffffffffffffffffffffffffffffffffffffffffffffff038211156110d7576110d66111df565b5b828201905092915050565b60006110ed8261118c565b91506110f88361118c565b9250817fffffffffffffffffffffffffffffffffffffffffffffffffffffffffffffffff0483118215151615611131576111306111df565b5b828202905092915050565b60006111478261116c565b9050919050565b60006111598261116c565b9050919050565b60008115159050919050565b600073ffffffffffffffffffffffffffffffffffffffff82169050919050565b6000819050919050565b60006111a18261118c565b91507fffffffffffffffffffffffffffffffffffffffffffffffffffffffffffffffff8214156111d4576111d36111df565b5b600182019050919050565b7f4e487b7100000000000000000000000000000000000000000000000000000000600052601160045260246000fd5b7f53616c65206973204e6f74204163746976650000000000000000000000000000600082015250565b7f457863656564732055736572204372617465204c696d69740000000000000000600082015250565b7f45746865722076616c75652073656e74206973206e6f7420636f727265637400600082015250565b7f4e6f74204f776e65720000000000000000000000000000000000000000000000600082015250565b7f43616e206f6e6c79206d696e7420323020746f6b656e7320617420612074696d60008201527f6500000000000000000000000000000000000000000000000000000000000000602082015250565b7f507572636861736520776f756c6420657863656564206d617820737570706c7960008201527f206f662041706573000000000000000000000000000000000000000000000000602082015250565b50565b61135c8161113c565b811461136757600080fd5b50565b6113738161118c565b811461137e57600080fd5b5056fea2646970667358221220f052ea54a61f422da29f2ece321c262581962a0b9d3957bd268b3424e18eda4164736f6c63430008040033",
  "linkReferences": {},
  "deployedLinkReferences": {}
}