{
  "_format": "hh-sol-artifact-1",
  "contractName": "CrateMinter_v1",
  "sourceName": "contracts/CrateMinter_v1.sol",
  "abi": [
    {
      "inputs": [
        {
          "internalType": "address",
          "name": "nft_contract_address",
          "type": "address"
        },
        {
          "internalType": "address",
          "name": "local_multisig_adddress",
          "type": "address"
        }
      ],
      "stateMutability": "nonpayable",
      "type": "constructor"
    },
    {
      "inputs": [],
      "name": "maxUserMints",
      "outputs": [
        {
          "internalType": "uint256",
          "name": "",
          "type": "uint256"
        }
      ],
      "stateMutability": "view",
      "type": "function"
    },
    {
      "inputs": [],
      "name": "mintCost",
      "outputs": [
        {
          "internalType": "uint256",
          "name": "",
          "type": "uint256"
        }
      ],
      "stateMutability": "view",
      "type": "function"
    },
    {
      "inputs": [
        {
          "internalType": "uint256",
          "name": "numberOfTokens",
          "type": "uint256"
        }
      ],
      "name": "mintCrate",
      "outputs": [],
      "stateMutability": "payable",
      "type": "function"
    },
    {
      "inputs": [],
      "name": "multisig_address",
      "outputs": [
        {
          "internalType": "address",
          "name": "",
          "type": "address"
        }
      ],
      "stateMutability": "view",
      "type": "function"
    },
    {
      "inputs": [],
      "name": "owner",
      "outputs": [
        {
          "internalType": "address",
          "name": "",
          "type": "address"
        }
      ],
      "stateMutability": "view",
      "type": "function"
    },
    {
      "inputs": [],
      "name": "pause",
      "outputs": [],
      "stateMutability": "nonpayable",
      "type": "function"
    },
    {
      "inputs": [],
      "name": "saleIsActive",
      "outputs": [
        {
          "internalType": "bool",
          "name": "",
          "type": "bool"
        }
      ],
      "stateMutability": "view",
      "type": "function"
    },
    {
      "inputs": [
        {
          "internalType": "uint256",
          "name": "newMax",
          "type": "uint256"
        }
      ],
      "name": "setMaxUserMints",
      "outputs": [],
      "stateMutability": "nonpayable",
      "type": "function"
    },
    {
      "inputs": [
        {
          "internalType": "uint256",
          "name": "newCostinIoTEX",
          "type": "uint256"
        }
      ],
      "name": "setMintCost",
      "outputs": [],
      "stateMutability": "nonpayable",
      "type": "function"
    },
    {
      "inputs": [
        {
          "internalType": "uint256",
          "name": "newTotal",
          "type": "uint256"
        }
      ],
      "name": "setTotalMints",
      "outputs": [],
      "stateMutability": "nonpayable",
      "type": "function"
    },
    {
      "inputs": [],
      "name": "totalMints",
      "outputs": [
        {
          "internalType": "uint256",
          "name": "",
          "type": "uint256"
        }
      ],
      "stateMutability": "view",
      "type": "function"
    },
    {
      "inputs": [],
      "name": "unpause",
      "outputs": [],
      "stateMutability": "nonpayable",
      "type": "function"
    },
    {
      "inputs": [],
      "name": "withdraw",
      "outputs": [],
      "stateMutability": "payable",
      "type": "function"
    }
  ],
  "bytecode": "0x6080604052683635c9adc5dea0000060005560c860015561271060025560006003556000600460146101000a81548160ff02191690831515021790555034801561004857600080fd5b50604051620010c8380380620010c8833981810160405281019061006c9190610152565b81600560006101000a81548173ffffffffffffffffffffffffffffffffffffffff021916908373ffffffffffffffffffffffffffffffffffffffff16021790555033600460006101000a81548173ffffffffffffffffffffffffffffffffffffffff021916908373ffffffffffffffffffffffffffffffffffffffff16021790555080600660006101000a81548173ffffffffffffffffffffffffffffffffffffffff021916908373ffffffffffffffffffffffffffffffffffffffff1602179055504360078190555050506101d7565b60008151905061014c816101c0565b92915050565b6000806040838503121561016557600080fd5b60006101738582860161013d565b92505060206101848582860161013d565b9150509250929050565b6000610199826101a0565b9050919050565b600073ffffffffffffffffffffffffffffffffffffffff82169050919050565b6101c98161018e565b81146101d457600080fd5b50565b610ee180620001e76000396000f3fe6080604052600436106100c25760003560e01c80638545f4ea1161007f578063b6afac9d11610059578063b6afac9d146101fb578063bdb4b84814610217578063c25ad82514610242578063eb8d24441461026d576100c2565b80638545f4ea1461017e5780638da5cb5b146101a7578063ab4a2baa146101d2576100c2565b806308adf7b7146100c75780631f21bfbf146100f05780633ccfd60b1461011b5780633d57698e146101255780633f4ba83a146101505780638456cb5914610167575b600080fd5b3480156100d357600080fd5b506100ee60048036038101906100e99190610995565b610298565b005b3480156100fc57600080fd5b50610105610332565b6040516101129190610bd1565b60405180910390f35b610123610338565b005b34801561013157600080fd5b5061013a610463565b6040516101479190610ad2565b60405180910390f35b34801561015c57600080fd5b50610165610489565b005b34801561017357600080fd5b5061017c610536565b005b34801561018a57600080fd5b506101a560048036038101906101a09190610995565b6105e3565b005b3480156101b357600080fd5b506101bc610690565b6040516101c99190610ad2565b60405180910390f35b3480156101de57600080fd5b506101f960048036038101906101f49190610995565b6106b6565b005b61021560048036038101906102109190610995565b610750565b005b34801561022357600080fd5b5061022c610961565b6040516102399190610bd1565b60405180910390f35b34801561024e57600080fd5b50610257610967565b6040516102649190610bd1565b60405180910390f35b34801561027957600080fd5b5061028261096d565b60405161028f9190610b16565b60405180910390f35b600460009054906101000a900473ffffffffffffffffffffffffffffffffffffffff1673ffffffffffffffffffffffffffffffffffffffff163373ffffffffffffffffffffffffffffffffffffffff1614610328576040517f08c379a000000000000000000000000000000000000000000000000000000000815260040161031f90610b71565b60405180910390fd5b8060018190555050565b60025481565b600460009054906101000a900473ffffffffffffffffffffffffffffffffffffffff1673ffffffffffffffffffffffffffffffffffffffff163373ffffffffffffffffffffffffffffffffffffffff16146103c8576040517f08c379a00000000000000000000000000000000000000000000000000000000081526004016103bf90610b71565b60405180910390fd5b6000600660009054906101000a900473ffffffffffffffffffffffffffffffffffffffff1673ffffffffffffffffffffffffffffffffffffffff164760405161041090610abd565b60006040518083038185875af1925050503d806000811461044d576040519150601f19603f3d011682016040523d82523d6000602084013e610452565b606091505b505090508061046057600080fd5b50565b600660009054906101000a900473ffffffffffffffffffffffffffffffffffffffff1681565b600460009054906101000a900473ffffffffffffffffffffffffffffffffffffffff1673ffffffffffffffffffffffffffffffffffffffff163373ffffffffffffffffffffffffffffffffffffffff1614610519576040517f08c379a000000000000000000000000000000000000000000000000000000000815260040161051090610b71565b60405180910390fd5b6001600460146101000a81548160ff021916908315150217905550565b600460009054906101000a900473ffffffffffffffffffffffffffffffffffffffff1673ffffffffffffffffffffffffffffffffffffffff163373ffffffffffffffffffffffffffffffffffffffff16146105c6576040517f08c379a00000000000000000000000000000000000000000000000000000000081526004016105bd90610b71565b60405180910390fd5b6000600460146101000a81548160ff021916908315150217905550565b600460009054906101000a900473ffffffffffffffffffffffffffffffffffffffff1673ffffffffffffffffffffffffffffffffffffffff163373ffffffffffffffffffffffffffffffffffffffff1614610673576040517f08c379a000000000000000000000000000000000000000000000000000000000815260040161066a90610b71565b60405180910390fd5b670de0b6b3a7640000816106879190610c5e565b60008190555050565b600460009054906101000a900473ffffffffffffffffffffffffffffffffffffffff1681565b600460009054906101000a900473ffffffffffffffffffffffffffffffffffffffff1673ffffffffffffffffffffffffffffffffffffffff163373ffffffffffffffffffffffffffffffffffffffff1614610746576040517f08c379a000000000000000000000000000000000000000000000000000000000815260040161073d90610b71565b60405180910390fd5b8060028190555050565b600460149054906101000a900460ff1661079f576040517f08c379a000000000000000000000000000000000000000000000000000000000815260040161079690610b31565b60405180910390fd5b6001548111156107e4576040517f08c379a00000000000000000000000000000000000000000000000000000000081526004016107db90610b91565b60405180910390fd5b600254816003546107f59190610c08565b1115610836576040517f08c379a000000000000000000000000000000000000000000000000000000000815260040161082d90610bb1565b60405180910390fd5b34816000546108459190610c5e565b1115610886576040517f08c379a000000000000000000000000000000000000000000000000000000000815260040161087d90610b51565b60405180910390fd5b60005b8181101561095d5760006003549050600254600354101561094957600560009054906101000a900473ffffffffffffffffffffffffffffffffffffffff1673ffffffffffffffffffffffffffffffffffffffff1663a144819433836040518363ffffffff1660e01b8152600401610901929190610aed565b600060405180830381600087803b15801561091b57600080fd5b505af115801561092f573d6000803e3d6000fd5b5050505060016003546109429190610c08565b6003819055505b50808061095590610d00565b915050610889565b5050565b60005481565b60015481565b600460149054906101000a900460ff1681565b60008135905061098f81610e94565b92915050565b6000602082840312156109a757600080fd5b60006109b584828501610980565b91505092915050565b6109c781610cb8565b82525050565b6109d681610cca565b82525050565b60006109e9601283610bf7565b91506109f482610d78565b602082019050919050565b6000610a0c601f83610bf7565b9150610a1782610da1565b602082019050919050565b6000610a2f600983610bf7565b9150610a3a82610dca565b602082019050919050565b6000610a52602183610bf7565b9150610a5d82610df3565b604082019050919050565b6000610a75602883610bf7565b9150610a8082610e42565b604082019050919050565b6000610a98600083610bec565b9150610aa382610e91565b600082019050919050565b610ab781610cf6565b82525050565b6000610ac882610a8b565b9150819050919050565b6000602082019050610ae760008301846109be565b92915050565b6000604082019050610b0260008301856109be565b610b0f6020830184610aae565b9392505050565b6000602082019050610b2b60008301846109cd565b92915050565b60006020820190508181036000830152610b4a816109dc565b9050919050565b60006020820190508181036000830152610b6a816109ff565b9050919050565b60006020820190508181036000830152610b8a81610a22565b9050919050565b60006020820190508181036000830152610baa81610a45565b9050919050565b60006020820190508181036000830152610bca81610a68565b9050919050565b6000602082019050610be66000830184610aae565b92915050565b600081905092915050565b600082825260208201905092915050565b6000610c1382610cf6565b9150610c1e83610cf6565b9250827fffffffffffffffffffffffffffffffffffffffffffffffffffffffffffffffff03821115610c5357610c52610d49565b5b828201905092915050565b6000610c6982610cf6565b9150610c7483610cf6565b9250817fffffffffffffffffffffffffffffffffffffffffffffffffffffffffffffffff0483118215151615610cad57610cac610d49565b5b828202905092915050565b6000610cc382610cd6565b9050919050565b60008115159050919050565b600073ffffffffffffffffffffffffffffffffffffffff82169050919050565b6000819050919050565b6000610d0b82610cf6565b91507fffffffffffffffffffffffffffffffffffffffffffffffffffffffffffffffff821415610d3e57610d3d610d49565b5b600182019050919050565b7f4e487b7100000000000000000000000000000000000000000000000000000000600052601160045260246000fd5b7f53616c65206973204e6f74204163746976650000000000000000000000000000600082015250565b7f45746865722076616c75652073656e74206973206e6f7420636f727265637400600082015250565b7f4e6f74204f776e65720000000000000000000000000000000000000000000000600082015250565b7f43616e206f6e6c79206d696e7420323020746f6b656e7320617420612074696d60008201527f6500000000000000000000000000000000000000000000000000000000000000602082015250565b7f507572636861736520776f756c6420657863656564206d617820737570706c7960008201527f206f662041706573000000000000000000000000000000000000000000000000602082015250565b50565b610e9d81610cf6565b8114610ea857600080fd5b5056fea26469706673582212208818a9bab49388718d10e962c21a9e2fc94781891eaac9ea1d5ea43b575703b064736f6c63430008040033",
  "linkReferences": {},
  "deployedLinkReferences": {}
}