{
  "_format": "hh-sol-artifact-1",
  "contractName": "LocalMultiSig",
  "sourceName": "contracts/LocalMultiSig.sol",
  "abi": [
    {
      "inputs": [
        {
          "internalType": "address[]",
          "name": "_owners",
          "type": "address[]"
        },
        {
          "internalType": "uint256",
          "name": "_required",
          "type": "uint256"
        }
      ],
      "stateMutability": "nonpayable",
      "type": "constructor"
    },
    {
      "anonymous": false,
      "inputs": [
        {
          "indexed": true,
          "internalType": "address",
          "name": "owner",
          "type": "address"
        },
        {
          "indexed": true,
          "internalType": "uint256",
          "name": "txnId",
          "type": "uint256"
        }
      ],
      "name": "Approve",
      "type": "event"
    },
    {
      "anonymous": false,
      "inputs": [
        {
          "indexed": true,
          "internalType": "address",
          "name": "sender",
          "type": "address"
        },
        {
          "indexed": false,
          "internalType": "uint256",
          "name": "amount",
          "type": "uint256"
        }
      ],
      "name": "Deposit",
      "type": "event"
    },
    {
      "anonymous": false,
      "inputs": [
        {
          "indexed": true,
          "internalType": "uint256",
          "name": "txnId",
          "type": "uint256"
        }
      ],
      "name": "Execute",
      "type": "event"
    },
    {
      "anonymous": false,
      "inputs": [
        {
          "indexed": true,
          "internalType": "address",
          "name": "owner",
          "type": "address"
        },
        {
          "indexed": true,
          "internalType": "uint256",
          "name": "txnId",
          "type": "uint256"
        }
      ],
      "name": "Revoke",
      "type": "event"
    },
    {
      "anonymous": false,
      "inputs": [
        {
          "indexed": true,
          "internalType": "uint256",
          "name": "txnId",
          "type": "uint256"
        }
      ],
      "name": "Submit",
      "type": "event"
    },
    {
      "inputs": [
        {
          "internalType": "uint256",
          "name": "_txId",
          "type": "uint256"
        }
      ],
      "name": "approve",
      "outputs": [],
      "stateMutability": "nonpayable",
      "type": "function"
    },
    {
      "inputs": [
        {
          "internalType": "uint256",
          "name": "",
          "type": "uint256"
        },
        {
          "internalType": "address",
          "name": "",
          "type": "address"
        }
      ],
      "name": "approved",
      "outputs": [
        {
          "internalType": "bool",
          "name": "",
          "type": "bool"
        }
      ],
      "stateMutability": "view",
      "type": "function"
    },
    {
      "inputs": [
        {
          "internalType": "uint256",
          "name": "_txId",
          "type": "uint256"
        }
      ],
      "name": "execute",
      "outputs": [],
      "stateMutability": "nonpayable",
      "type": "function"
    },
    {
      "inputs": [
        {
          "internalType": "address",
          "name": "",
          "type": "address"
        }
      ],
      "name": "isOwner",
      "outputs": [
        {
          "internalType": "bool",
          "name": "",
          "type": "bool"
        }
      ],
      "stateMutability": "view",
      "type": "function"
    },
    {
      "inputs": [],
      "name": "num_transactions",
      "outputs": [
        {
          "internalType": "uint256",
          "name": "num_tx",
          "type": "uint256"
        }
      ],
      "stateMutability": "view",
      "type": "function"
    },
    {
      "inputs": [
        {
          "internalType": "uint256",
          "name": "",
          "type": "uint256"
        }
      ],
      "name": "owners",
      "outputs": [
        {
          "internalType": "address",
          "name": "",
          "type": "address"
        }
      ],
      "stateMutability": "view",
      "type": "function"
    },
    {
      "inputs": [],
      "name": "required",
      "outputs": [
        {
          "internalType": "uint256",
          "name": "",
          "type": "uint256"
        }
      ],
      "stateMutability": "view",
      "type": "function"
    },
    {
      "inputs": [
        {
          "internalType": "uint256",
          "name": "_txId",
          "type": "uint256"
        }
      ],
      "name": "revoke",
      "outputs": [],
      "stateMutability": "nonpayable",
      "type": "function"
    },
    {
      "inputs": [
        {
          "internalType": "address",
          "name": "_to",
          "type": "address"
        },
        {
          "internalType": "uint256",
          "name": "_value",
          "type": "uint256"
        },
        {
          "internalType": "bytes",
          "name": "_data",
          "type": "bytes"
        }
      ],
      "name": "submit",
      "outputs": [],
      "stateMutability": "nonpayable",
      "type": "function"
    },
    {
      "inputs": [
        {
          "internalType": "uint256",
          "name": "",
          "type": "uint256"
        }
      ],
      "name": "transactions",
      "outputs": [
        {
          "internalType": "address",
          "name": "to",
          "type": "address"
        },
        {
          "internalType": "uint256",
          "name": "value",
          "type": "uint256"
        },
        {
          "internalType": "bytes",
          "name": "data",
          "type": "bytes"
        },
        {
          "internalType": "bool",
          "name": "executed",
          "type": "bool"
        }
      ],
      "stateMutability": "view",
      "type": "function"
    },
    {
      "stateMutability": "payable",
      "type": "receive"
    }
  ],
  "bytecode": "0x60806040523480156200001157600080fd5b506040516200214d3803806200214d8339818101604052810190620000379190620003d8565b60008251116200007e576040517f08c379a0000000000000000000000000000000000000000000000000000000008152600401620000759062000512565b60405180910390fd5b6000811180156200008f5750815181105b620000d1576040517f08c379a0000000000000000000000000000000000000000000000000000000008152600401620000c890620004ce565b60405180910390fd5b60005b8251811015620002f85760008382815181106200011a577f4e487b7100000000000000000000000000000000000000000000000000000000600052603260045260246000fd5b60200260200101519050600073ffffffffffffffffffffffffffffffffffffffff168173ffffffffffffffffffffffffffffffffffffffff16141562000197576040517f08c379a00000000000000000000000000000000000000000000000000000000081526004016200018e9062000534565b60405180910390fd5b600160008273ffffffffffffffffffffffffffffffffffffffff1673ffffffffffffffffffffffffffffffffffffffff16815260200190815260200160002060009054906101000a900460ff161562000227576040517f08c379a00000000000000000000000000000000000000000000000000000000081526004016200021e90620004f0565b60405180910390fd5b60018060008373ffffffffffffffffffffffffffffffffffffffff1673ffffffffffffffffffffffffffffffffffffffff16815260200190815260200160002060006101000a81548160ff0219169083151502179055506000819080600181540180825580915050600190039060005260206000200160009091909190916101000a81548173ffffffffffffffffffffffffffffffffffffffff021916908373ffffffffffffffffffffffffffffffffffffffff160217905550508080620002ef9062000633565b915050620000d4565b50806002819055505050620007c8565b60006200031f62000319846200057f565b62000556565b905080838252602082019050828560208602820111156200033f57600080fd5b60005b858110156200037357816200035888826200037d565b84526020840193506020830192505060018101905062000342565b5050509392505050565b6000815190506200038e8162000794565b92915050565b600082601f830112620003a657600080fd5b8151620003b884826020860162000308565b91505092915050565b600081519050620003d281620007ae565b92915050565b60008060408385031215620003ec57600080fd5b600083015167ffffffffffffffff8111156200040757600080fd5b620004158582860162000394565b92505060206200042885828601620003c1565b9150509250929050565b600062000441602083620005ae565b91506200044e82620006f0565b602082019050919050565b600062000468601083620005ae565b9150620004758262000719565b602082019050919050565b60006200048f600f83620005ae565b91506200049c8262000742565b602082019050919050565b6000620004b6600d83620005ae565b9150620004c3826200076b565b602082019050919050565b60006020820190508181036000830152620004e98162000432565b9050919050565b600060208201905081810360008301526200050b8162000459565b9050919050565b600060208201905081810360008301526200052d8162000480565b9050919050565b600060208201905081810360008301526200054f81620004a7565b9050919050565b60006200056262000575565b9050620005708282620005fd565b919050565b6000604051905090565b600067ffffffffffffffff8211156200059d576200059c620006b0565b5b602082029050602081019050919050565b600082825260208201905092915050565b6000620005cc82620005d3565b9050919050565b600073ffffffffffffffffffffffffffffffffffffffff82169050919050565b6000819050919050565b6200060882620006df565b810181811067ffffffffffffffff821117156200062a5762000629620006b0565b5b80604052505050565b60006200064082620005f3565b91507fffffffffffffffffffffffffffffffffffffffffffffffffffffffffffffffff82141562000676576200067562000681565b5b600182019050919050565b7f4e487b7100000000000000000000000000000000000000000000000000000000600052601160045260246000fd5b7f4e487b7100000000000000000000000000000000000000000000000000000000600052604160045260246000fd5b6000601f19601f8301169050919050565b7f696e76616c6964207265717569726564206e756d6572206f66206f776e657273600082015250565b7f6f776e6572206e6f7420756e6971756500000000000000000000000000000000600082015250565b7f4f776e6572732072657175697265640000000000000000000000000000000000600082015250565b7f696e76616c6964206f776e657200000000000000000000000000000000000000600082015250565b6200079f81620005bf565b8114620007ab57600080fd5b50565b620007b981620005f3565b8114620007c557600080fd5b50565b61197580620007d86000396000f3fe6080604052600436106100955760003560e01c80638253951a116100595780638253951a146101e65780639ace38c214610223578063b759f95414610263578063dc8452cd1461028c578063fe0d94c1146102b7576100ea565b8063025e7c27146100ef5780630d07fc921461012c57806314de327f1461015757806320c5429b146101805780632f54bf6e146101a9576100ea565b366100ea573373ffffffffffffffffffffffffffffffffffffffff167fe1fffcc4923d04b559f4d29a8bfc6cda04eb5b0d3c460751c2402c5c5cc9109c346040516100e0919061159b565b60405180910390a2005b600080fd5b3480156100fb57600080fd5b50610116600480360381019061011191906111e3565b6102e0565b6040516101239190611439565b60405180910390f35b34801561013857600080fd5b5061014161031f565b60405161014e919061159b565b60405180910390f35b34801561016357600080fd5b5061017e60048036038101906101799190611177565b61032c565b005b34801561018c57600080fd5b506101a760048036038101906101a291906111e3565b610535565b005b3480156101b557600080fd5b506101d060048036038101906101cb919061114e565b6107f2565b6040516101dd91906114a0565b60405180910390f35b3480156101f257600080fd5b5061020d6004803603810190610208919061120c565b610812565b60405161021a91906114a0565b60405180910390f35b34801561022f57600080fd5b5061024a600480360381019061024591906111e3565b610841565b60405161025a9493929190611454565b60405180910390f35b34801561026f57600080fd5b5061028a600480360381019061028591906111e3565b610936565b005b34801561029857600080fd5b506102a1610bf6565b6040516102ae919061159b565b60405180910390f35b3480156102c357600080fd5b506102de60048036038101906102d991906111e3565b610bfc565b005b600081815481106102f057600080fd5b906000526020600020016000915054906101000a900473ffffffffffffffffffffffffffffffffffffffff1681565b6000600380549050905090565b600160003373ffffffffffffffffffffffffffffffffffffffff1673ffffffffffffffffffffffffffffffffffffffff16815260200190815260200160002060009054906101000a900460ff166103b8576040517f08c379a00000000000000000000000000000000000000000000000000000000081526004016103af9061155b565b60405180910390fd5b600360405180608001604052808673ffffffffffffffffffffffffffffffffffffffff16815260200185815260200184848080601f016020809104026020016040519081016040528093929190818152602001838380828437600081840152601f19601f82011690508083019250505050505050815260200160001515815250908060018154018082558091505060019003906000526020600020906004020160009091909190915060008201518160000160006101000a81548173ffffffffffffffffffffffffffffffffffffffff021916908373ffffffffffffffffffffffffffffffffffffffff1602179055506020820151816001015560408201518160020190805190602001906104ce929190611037565b5060608201518160030160006101000a81548160ff021916908315150217905550505060016003805490506105039190611659565b7f08324b3d745b914e3abd4ffbfead91e3b78391a98c173202129215ab933adfbe60405160405180910390a250505050565b600160003373ffffffffffffffffffffffffffffffffffffffff1673ffffffffffffffffffffffffffffffffffffffff16815260200190815260200160002060009054906101000a900460ff166105c1576040517f08c379a00000000000000000000000000000000000000000000000000000000081526004016105b89061155b565b60405180910390fd5b806003805490508110610609576040517f08c379a0000000000000000000000000000000000000000000000000000000008152600401610600906114db565b60405180910390fd5b8160038181548110610644577f4e487b7100000000000000000000000000000000000000000000000000000000600052603260045260246000fd5b906000526020600020906004020160030160009054906101000a900460ff16156106a3576040517f08c379a000000000000000000000000000000000000000000000000000000000815260040161069a9061153b565b60405180910390fd5b6004600084815260200190815260200160002060003373ffffffffffffffffffffffffffffffffffffffff1673ffffffffffffffffffffffffffffffffffffffff16815260200190815260200160002060009054906101000a900460ff16610740576040517f08c379a00000000000000000000000000000000000000000000000000000000081526004016107379061157b565b60405180910390fd5b60006004600085815260200190815260200160002060003373ffffffffffffffffffffffffffffffffffffffff1673ffffffffffffffffffffffffffffffffffffffff16815260200190815260200160002060006101000a81548160ff021916908315150217905550823373ffffffffffffffffffffffffffffffffffffffff167fec9ab91322523c899ede7830ec9bfc992b5981cdcc27b91162fb23de5791117b60405160405180910390a3505050565b60016020528060005260406000206000915054906101000a900460ff1681565b60046020528160005260406000206020528060005260406000206000915091509054906101000a900460ff1681565b6003818154811061085157600080fd5b90600052602060002090600402016000915090508060000160009054906101000a900473ffffffffffffffffffffffffffffffffffffffff16908060010154908060020180546108a090611708565b80601f01602080910402602001604051908101604052809291908181526020018280546108cc90611708565b80156109195780601f106108ee57610100808354040283529160200191610919565b820191906000526020600020905b8154815290600101906020018083116108fc57829003601f168201915b5050505050908060030160009054906101000a900460ff16905084565b600160003373ffffffffffffffffffffffffffffffffffffffff1673ffffffffffffffffffffffffffffffffffffffff16815260200190815260200160002060009054906101000a900460ff166109c2576040517f08c379a00000000000000000000000000000000000000000000000000000000081526004016109b99061155b565b60405180910390fd5b806003805490508110610a0a576040517f08c379a0000000000000000000000000000000000000000000000000000000008152600401610a01906114db565b60405180910390fd5b816004600082815260200190815260200160002060003373ffffffffffffffffffffffffffffffffffffffff1673ffffffffffffffffffffffffffffffffffffffff16815260200190815260200160002060009054906101000a900460ff1615610aa9576040517f08c379a0000000000000000000000000000000000000000000000000000000008152600401610aa0906114fb565b60405180910390fd5b8260038181548110610ae4577f4e487b7100000000000000000000000000000000000000000000000000000000600052603260045260246000fd5b906000526020600020906004020160030160009054906101000a900460ff1615610b43576040517f08c379a0000000000000000000000000000000000000000000000000000000008152600401610b3a9061153b565b60405180910390fd5b60016004600086815260200190815260200160002060003373ffffffffffffffffffffffffffffffffffffffff1673ffffffffffffffffffffffffffffffffffffffff16815260200190815260200160002060006101000a81548160ff021916908315150217905550833373ffffffffffffffffffffffffffffffffffffffff167f90ec57f18fa7b15c6b8d5e4d1deb90796c74b2ff23d4d0cecad0cb42a96b312860405160405180910390a350505050565b60025481565b600160003373ffffffffffffffffffffffffffffffffffffffff1673ffffffffffffffffffffffffffffffffffffffff16815260200190815260200160002060009054906101000a900460ff16610c88576040517f08c379a0000000000000000000000000000000000000000000000000000000008152600401610c7f9061155b565b60405180910390fd5b806003805490508110610cd0576040517f08c379a0000000000000000000000000000000000000000000000000000000008152600401610cc7906114db565b60405180910390fd5b8160038181548110610d0b577f4e487b7100000000000000000000000000000000000000000000000000000000600052603260045260246000fd5b906000526020600020906004020160030160009054906101000a900460ff1615610d6a576040517f08c379a0000000000000000000000000000000000000000000000000000000008152600401610d619061153b565b60405180910390fd5b600254610d7684610f2d565b1015610db7576040517f08c379a0000000000000000000000000000000000000000000000000000000008152600401610dae9061151b565b60405180910390fd5b600060038481548110610df3577f4e487b7100000000000000000000000000000000000000000000000000000000600052603260045260246000fd5b9060005260206000209060040201905060018160030160006101000a81548160ff02191690831515021790555060008160000160009054906101000a900473ffffffffffffffffffffffffffffffffffffffff1673ffffffffffffffffffffffffffffffffffffffff16826001015483600201604051610e739190611422565b60006040518083038185875af1925050503d8060008114610eb0576040519150601f19603f3d011682016040523d82523d6000602084013e610eb5565b606091505b5050905080610ef9576040517f08c379a0000000000000000000000000000000000000000000000000000000008152600401610ef0906114bb565b60405180910390fd5b847fddb556f1d2c1ec821e910b019d3685b229db152a0ecd517ca7e24b8bd713928960405160405180910390a25050505050565b6000806000905060005b60008054905081101561102d57600460008581526020019081526020016000206000808381548110610f92577f4e487b7100000000000000000000000000000000000000000000000000000000600052603260045260246000fd5b9060005260206000200160009054906101000a900473ffffffffffffffffffffffffffffffffffffffff1673ffffffffffffffffffffffffffffffffffffffff1673ffffffffffffffffffffffffffffffffffffffff16815260200190815260200160002060009054906101000a900460ff161561101a576001826110179190611603565b91505b80806110259061173a565b915050610f37565b5080915050919050565b82805461104390611708565b90600052602060002090601f01602090048101928261106557600085556110ac565b82601f1061107e57805160ff19168380011785556110ac565b828001600101855582156110ac579182015b828111156110ab578251825591602001919060010190611090565b5b5090506110b991906110bd565b5090565b5b808211156110d65760008160009055506001016110be565b5090565b6000813590506110e981611911565b92915050565b60008083601f84011261110157600080fd5b8235905067ffffffffffffffff81111561111a57600080fd5b60208301915083600182028301111561113257600080fd5b9250929050565b60008135905061114881611928565b92915050565b60006020828403121561116057600080fd5b600061116e848285016110da565b91505092915050565b6000806000806060858703121561118d57600080fd5b600061119b878288016110da565b94505060206111ac87828801611139565b935050604085013567ffffffffffffffff8111156111c957600080fd5b6111d5878288016110ef565b925092505092959194509250565b6000602082840312156111f557600080fd5b600061120384828501611139565b91505092915050565b6000806040838503121561121f57600080fd5b600061122d85828601611139565b925050602061123e858286016110da565b9150509250929050565b6112518161168d565b82525050565b6112608161169f565b82525050565b6000611271826115cb565b61127b81856115d6565b935061128b8185602086016116d5565b611294816117e1565b840191505092915050565b600081546112ac81611708565b6112b681866115e7565b945060018216600081146112d157600181146112e257611315565b60ff19831686528186019350611315565b6112eb856115b6565b60005b8381101561130d578154818901526001820191506020810190506112ee565b838801955050505b50505092915050565b600061132b6009836115f2565b9150611336826117f2565b602082019050919050565b600061134e6011836115f2565b91506113598261181b565b602082019050919050565b60006113716013836115f2565b915061137c82611844565b602082019050919050565b6000611394601c836115f2565b915061139f8261186d565b602082019050919050565b60006113b76013836115f2565b91506113c282611896565b602082019050919050565b60006113da6009836115f2565b91506113e5826118bf565b602082019050919050565b60006113fd600f836115f2565b9150611408826118e8565b602082019050919050565b61141c816116cb565b82525050565b600061142e828461129f565b915081905092915050565b600060208201905061144e6000830184611248565b92915050565b60006080820190506114696000830187611248565b6114766020830186611413565b81810360408301526114888185611266565b90506114976060830184611257565b95945050505050565b60006020820190506114b56000830184611257565b92915050565b600060208201905081810360008301526114d48161131e565b9050919050565b600060208201905081810360008301526114f481611341565b9050919050565b6000602082019050818103600083015261151481611364565b9050919050565b6000602082019050818103600083015261153481611387565b9050919050565b60006020820190508181036000830152611554816113aa565b9050919050565b60006020820190508181036000830152611574816113cd565b9050919050565b60006020820190508181036000830152611594816113f0565b9050919050565b60006020820190506115b06000830184611413565b92915050565b60008190508160005260206000209050919050565b600081519050919050565b600082825260208201905092915050565b600081905092915050565b600082825260208201905092915050565b600061160e826116cb565b9150611619836116cb565b9250827fffffffffffffffffffffffffffffffffffffffffffffffffffffffffffffffff0382111561164e5761164d611783565b5b828201905092915050565b6000611664826116cb565b915061166f836116cb565b92508282101561168257611681611783565b5b828203905092915050565b6000611698826116ab565b9050919050565b60008115159050919050565b600073ffffffffffffffffffffffffffffffffffffffff82169050919050565b6000819050919050565b60005b838110156116f35780820151818401526020810190506116d8565b83811115611702576000848401525b50505050565b6000600282049050600182168061172057607f821691505b60208210811415611734576117336117b2565b5b50919050565b6000611745826116cb565b91507fffffffffffffffffffffffffffffffffffffffffffffffffffffffffffffffff82141561177857611777611783565b5b600182019050919050565b7f4e487b7100000000000000000000000000000000000000000000000000000000600052601160045260246000fd5b7f4e487b7100000000000000000000000000000000000000000000000000000000600052602260045260246000fd5b6000601f19601f8301169050919050565b7f7478206661696c65640000000000000000000000000000000000000000000000600082015250565b7f747820646f6573206e6f74206578697374000000000000000000000000000000600082015250565b7f747820616c726561647920617070726f76656400000000000000000000000000600082015250565b7f417070726f76616c73206c657373207468616e20726571756972656400000000600082015250565b7f747820616c726561647920657865637574656400000000000000000000000000600082015250565b7f6e6f74206f776e65720000000000000000000000000000000000000000000000600082015250565b7f7478206e6f7420417070726f7665640000000000000000000000000000000000600082015250565b61191a8161168d565b811461192557600080fd5b50565b611931816116cb565b811461193c57600080fd5b5056fea26469706673582212204b5afcbbf2a8f7637c485bc87e2e7d6d999e25eb51302c6fe7b5eca5604f8e5164736f6c63430008040033",
  "linkReferences": {},
  "deployedLinkReferences": {}
}