{
  "_format": "hh-sol-artifact-1",
  "contractName": "MultiSig",
  "sourceName": "contracts/MultiSig.sol",
  "abi": [
    {
      "inputs": [
        {
          "internalType": "address[]",
          "name": "_owners",
          "type": "address[]"
        },
        {
          "internalType": "uint256",
          "name": "_required",
          "type": "uint256"
        },
        {
          "internalType": "address",
          "name": "token_address",
          "type": "address"
        }
      ],
      "stateMutability": "nonpayable",
      "type": "constructor"
    },
    {
      "anonymous": false,
      "inputs": [
        {
          "indexed": true,
          "internalType": "address",
          "name": "owner",
          "type": "address"
        },
        {
          "indexed": true,
          "internalType": "uint256",
          "name": "txnId",
          "type": "uint256"
        }
      ],
      "name": "Approve",
      "type": "event"
    },
    {
      "anonymous": false,
      "inputs": [
        {
          "indexed": true,
          "internalType": "uint256",
          "name": "txnId",
          "type": "uint256"
        }
      ],
      "name": "Execute",
      "type": "event"
    },
    {
      "anonymous": false,
      "inputs": [
        {
          "indexed": true,
          "internalType": "address",
          "name": "sender",
          "type": "address"
        },
        {
          "indexed": false,
          "internalType": "uint256",
          "name": "amount",
          "type": "uint256"
        }
      ],
      "name": "FallbackDeposit",
      "type": "event"
    },
    {
      "anonymous": false,
      "inputs": [
        {
          "indexed": true,
          "internalType": "address",
          "name": "owner",
          "type": "address"
        },
        {
          "indexed": true,
          "internalType": "uint256",
          "name": "txnId",
          "type": "uint256"
        }
      ],
      "name": "Revoke",
      "type": "event"
    },
    {
      "anonymous": false,
      "inputs": [
        {
          "indexed": true,
          "internalType": "uint256",
          "name": "txnId",
          "type": "uint256"
        }
      ],
      "name": "Submit",
      "type": "event"
    },
    {
      "inputs": [
        {
          "internalType": "uint256",
          "name": "_txId",
          "type": "uint256"
        }
      ],
      "name": "approve",
      "outputs": [],
      "stateMutability": "nonpayable",
      "type": "function"
    },
    {
      "inputs": [
        {
          "internalType": "uint256",
          "name": "",
          "type": "uint256"
        },
        {
          "internalType": "address",
          "name": "",
          "type": "address"
        }
      ],
      "name": "approved",
      "outputs": [
        {
          "internalType": "bool",
          "name": "",
          "type": "bool"
        }
      ],
      "stateMutability": "view",
      "type": "function"
    },
    {
      "inputs": [
        {
          "internalType": "uint256",
          "name": "_txId",
          "type": "uint256"
        }
      ],
      "name": "execute",
      "outputs": [],
      "stateMutability": "nonpayable",
      "type": "function"
    },
    {
      "inputs": [
        {
          "internalType": "address",
          "name": "",
          "type": "address"
        }
      ],
      "name": "isOwner",
      "outputs": [
        {
          "internalType": "bool",
          "name": "",
          "type": "bool"
        }
      ],
      "stateMutability": "view",
      "type": "function"
    },
    {
      "inputs": [],
      "name": "num_transactions",
      "outputs": [
        {
          "internalType": "uint256",
          "name": "num_tx",
          "type": "uint256"
        }
      ],
      "stateMutability": "view",
      "type": "function"
    },
    {
      "inputs": [
        {
          "internalType": "uint256",
          "name": "",
          "type": "uint256"
        }
      ],
      "name": "owners",
      "outputs": [
        {
          "internalType": "address",
          "name": "",
          "type": "address"
        }
      ],
      "stateMutability": "view",
      "type": "function"
    },
    {
      "inputs": [],
      "name": "payment",
      "outputs": [],
      "stateMutability": "payable",
      "type": "function"
    },
    {
      "inputs": [],
      "name": "required",
      "outputs": [
        {
          "internalType": "uint256",
          "name": "",
          "type": "uint256"
        }
      ],
      "stateMutability": "view",
      "type": "function"
    },
    {
      "inputs": [
        {
          "internalType": "uint256",
          "name": "_txId",
          "type": "uint256"
        }
      ],
      "name": "revoke",
      "outputs": [],
      "stateMutability": "nonpayable",
      "type": "function"
    },
    {
      "inputs": [
        {
          "internalType": "address",
          "name": "_to",
          "type": "address"
        },
        {
          "internalType": "uint256",
          "name": "_value",
          "type": "uint256"
        },
        {
          "internalType": "bytes",
          "name": "_data",
          "type": "bytes"
        }
      ],
      "name": "submit",
      "outputs": [],
      "stateMutability": "nonpayable",
      "type": "function"
    },
    {
      "inputs": [
        {
          "internalType": "uint256",
          "name": "",
          "type": "uint256"
        }
      ],
      "name": "transactions",
      "outputs": [
        {
          "internalType": "address",
          "name": "to",
          "type": "address"
        },
        {
          "internalType": "uint256",
          "name": "value",
          "type": "uint256"
        },
        {
          "internalType": "bytes",
          "name": "data",
          "type": "bytes"
        },
        {
          "internalType": "bool",
          "name": "executed",
          "type": "bool"
        }
      ],
      "stateMutability": "view",
      "type": "function"
    },
    {
      "inputs": [],
      "name": "withdraw",
      "outputs": [],
      "stateMutability": "payable",
      "type": "function"
    },
    {
      "stateMutability": "payable",
      "type": "receive"
    }
  ],
  "bytecode": "0x60806040523480156200001157600080fd5b50604051620023893803806200238983398181016040528101906200003791906200041a565b60008351116200007e576040517f08c379a0000000000000000000000000000000000000000000000000000000008152600401620000759062000569565b60405180910390fd5b6000821180156200008f5750825182105b620000d1576040517f08c379a0000000000000000000000000000000000000000000000000000000008152600401620000c89062000525565b60405180910390fd5b60005b8351811015620002f85760008482815181106200011a577f4e487b7100000000000000000000000000000000000000000000000000000000600052603260045260246000fd5b60200260200101519050600073ffffffffffffffffffffffffffffffffffffffff168173ffffffffffffffffffffffffffffffffffffffff16141562000197576040517f08c379a00000000000000000000000000000000000000000000000000000000081526004016200018e906200058b565b60405180910390fd5b600160008273ffffffffffffffffffffffffffffffffffffffff1673ffffffffffffffffffffffffffffffffffffffff16815260200190815260200160002060009054906101000a900460ff161562000227576040517f08c379a00000000000000000000000000000000000000000000000000000000081526004016200021e9062000547565b60405180910390fd5b60018060008373ffffffffffffffffffffffffffffffffffffffff1673ffffffffffffffffffffffffffffffffffffffff16815260200190815260200160002060006101000a81548160ff0219169083151502179055506000819080600181540180825580915050600190039060005260206000200160009091909190916101000a81548173ffffffffffffffffffffffffffffffffffffffff021916908373ffffffffffffffffffffffffffffffffffffffff160217905550508080620002ef906200068a565b915050620000d4565b508160028190555080600560006101000a81548173ffffffffffffffffffffffffffffffffffffffff021916908373ffffffffffffffffffffffffffffffffffffffff1602179055505050506200081f565b6000620003616200035b84620005d6565b620005ad565b905080838252602082019050828560208602820111156200038157600080fd5b60005b85811015620003b557816200039a8882620003bf565b84526020840193506020830192505060018101905062000384565b5050509392505050565b600081519050620003d081620007eb565b92915050565b600082601f830112620003e857600080fd5b8151620003fa8482602086016200034a565b91505092915050565b600081519050620004148162000805565b92915050565b6000806000606084860312156200043057600080fd5b600084015167ffffffffffffffff8111156200044b57600080fd5b6200045986828701620003d6565b93505060206200046c8682870162000403565b92505060406200047f86828701620003bf565b9150509250925092565b60006200049860208362000605565b9150620004a58262000747565b602082019050919050565b6000620004bf60108362000605565b9150620004cc8262000770565b602082019050919050565b6000620004e6600f8362000605565b9150620004f38262000799565b602082019050919050565b60006200050d600d8362000605565b91506200051a82620007c2565b602082019050919050565b60006020820190508181036000830152620005408162000489565b9050919050565b600060208201905081810360008301526200056281620004b0565b9050919050565b600060208201905081810360008301526200058481620004d7565b9050919050565b60006020820190508181036000830152620005a681620004fe565b9050919050565b6000620005b9620005cc565b9050620005c7828262000654565b919050565b6000604051905090565b600067ffffffffffffffff821115620005f457620005f362000707565b5b602082029050602081019050919050565b600082825260208201905092915050565b600062000623826200062a565b9050919050565b600073ffffffffffffffffffffffffffffffffffffffff82169050919050565b6000819050919050565b6200065f8262000736565b810181811067ffffffffffffffff8211171562000681576200068062000707565b5b80604052505050565b600062000697826200064a565b91507fffffffffffffffffffffffffffffffffffffffffffffffffffffffffffffffff821415620006cd57620006cc620006d8565b5b600182019050919050565b7f4e487b7100000000000000000000000000000000000000000000000000000000600052601160045260246000fd5b7f4e487b7100000000000000000000000000000000000000000000000000000000600052604160045260246000fd5b6000601f19601f8301169050919050565b7f696e76616c6964207265717569726564206e756d6572206f66206f776e657273600082015250565b7f6f776e6572206e6f7420756e6971756500000000000000000000000000000000600082015250565b7f4f776e6572732072657175697265640000000000000000000000000000000000600082015250565b7f696e76616c6964206f776e657200000000000000000000000000000000000000600082015250565b620007f68162000616565b81146200080257600080fd5b50565b62000810816200064a565b81146200081c57600080fd5b50565b611b5a806200082f6000396000f3fe6080604052600436106100ab5760003560e01c806342f6487a1161006457806342f6487a146102065780638253951a146102105780639ace38c21461024d578063b759f9541461028d578063dc8452cd146102b6578063fe0d94c1146102e157610100565b8063025e7c27146101055780630d07fc921461014257806314de327f1461016d57806320c5429b146101965780632f54bf6e146101bf5780633ccfd60b146101fc57610100565b36610100573373ffffffffffffffffffffffffffffffffffffffff167f5e6172210489e8382b0281a3e17233598e143c96f8ac1f90923540b554cea112346040516100f6919061177b565b60405180910390a2005b600080fd5b34801561011157600080fd5b5061012c600480360381019061012791906113f8565b61030a565b60405161013991906115f0565b60405180910390f35b34801561014e57600080fd5b50610157610349565b604051610164919061177b565b60405180910390f35b34801561017957600080fd5b50610194600480360381019061018f9190611363565b610356565b005b3480156101a257600080fd5b506101bd60048036038101906101b891906113f8565b61055f565b005b3480156101cb57600080fd5b506101e660048036038101906101e1919061133a565b61081c565b6040516101f39190611680565b60405180910390f35b61020461083c565b005b61020e6109a5565b005b34801561021c57600080fd5b5061023760048036038101906102329190611421565b6109a7565b6040516102449190611680565b60405180910390f35b34801561025957600080fd5b50610274600480360381019061026f91906113f8565b6109d6565b6040516102849493929190611634565b60405180910390f35b34801561029957600080fd5b506102b460048036038101906102af91906113f8565b610acb565b005b3480156102c257600080fd5b506102cb610d8b565b6040516102d8919061177b565b60405180910390f35b3480156102ed57600080fd5b50610308600480360381019061030391906113f8565b610d91565b005b6000818154811061031a57600080fd5b906000526020600020016000915054906101000a900473ffffffffffffffffffffffffffffffffffffffff1681565b6000600380549050905090565b600160003373ffffffffffffffffffffffffffffffffffffffff1673ffffffffffffffffffffffffffffffffffffffff16815260200190815260200160002060009054906101000a900460ff166103e2576040517f08c379a00000000000000000000000000000000000000000000000000000000081526004016103d99061173b565b60405180910390fd5b600360405180608001604052808673ffffffffffffffffffffffffffffffffffffffff16815260200185815260200184848080601f016020809104026020016040519081016040528093929190818152602001838380828437600081840152601f19601f82011690508083019250505050505050815260200160001515815250908060018154018082558091505060019003906000526020600020906004020160009091909190915060008201518160000160006101000a81548173ffffffffffffffffffffffffffffffffffffffff021916908373ffffffffffffffffffffffffffffffffffffffff1602179055506020820151816001015560408201518160020190805190602001906104f892919061120e565b5060608201518160030160006101000a81548160ff0219169083151502179055505050600160038054905061052d9190611824565b7f08324b3d745b914e3abd4ffbfead91e3b78391a98c173202129215ab933adfbe60405160405180910390a250505050565b600160003373ffffffffffffffffffffffffffffffffffffffff1673ffffffffffffffffffffffffffffffffffffffff16815260200190815260200160002060009054906101000a900460ff166105eb576040517f08c379a00000000000000000000000000000000000000000000000000000000081526004016105e29061173b565b60405180910390fd5b806003805490508110610633576040517f08c379a000000000000000000000000000000000000000000000000000000000815260040161062a906116bb565b60405180910390fd5b816003818154811061066e577f4e487b7100000000000000000000000000000000000000000000000000000000600052603260045260246000fd5b906000526020600020906004020160030160009054906101000a900460ff16156106cd576040517f08c379a00000000000000000000000000000000000000000000000000000000081526004016106c49061171b565b60405180910390fd5b6004600084815260200190815260200160002060003373ffffffffffffffffffffffffffffffffffffffff1673ffffffffffffffffffffffffffffffffffffffff16815260200190815260200160002060009054906101000a900460ff1661076a576040517f08c379a00000000000000000000000000000000000000000000000000000000081526004016107619061175b565b60405180910390fd5b60006004600085815260200190815260200160002060003373ffffffffffffffffffffffffffffffffffffffff1673ffffffffffffffffffffffffffffffffffffffff16815260200190815260200160002060006101000a81548160ff021916908315150217905550823373ffffffffffffffffffffffffffffffffffffffff167fec9ab91322523c899ede7830ec9bfc992b5981cdcc27b91162fb23de5791117b60405160405180910390a3505050565b60016020528060005260406000206000915054906101000a900460ff1681565b600160003373ffffffffffffffffffffffffffffffffffffffff1673ffffffffffffffffffffffffffffffffffffffff16815260200190815260200160002060009054906101000a900460ff166108c8576040517f08c379a00000000000000000000000000000000000000000000000000000000081526004016108bf9061173b565b60405180910390fd5b600080600081548110610904577f4e487b7100000000000000000000000000000000000000000000000000000000600052603260045260246000fd5b9060005260206000200160009054906101000a900473ffffffffffffffffffffffffffffffffffffffff1673ffffffffffffffffffffffffffffffffffffffff1647604051610952906115db565b60006040518083038185875af1925050503d806000811461098f576040519150601f19603f3d011682016040523d82523d6000602084013e610994565b606091505b50509050806109a257600080fd5b50565b565b60046020528160005260406000206020528060005260406000206000915091509054906101000a900460ff1681565b600381815481106109e657600080fd5b90600052602060002090600402016000915090508060000160009054906101000a900473ffffffffffffffffffffffffffffffffffffffff1690806001015490806002018054610a35906118d3565b80601f0160208091040260200160405190810160405280929190818152602001828054610a61906118d3565b8015610aae5780601f10610a8357610100808354040283529160200191610aae565b820191906000526020600020905b815481529060010190602001808311610a9157829003601f168201915b5050505050908060030160009054906101000a900460ff16905084565b600160003373ffffffffffffffffffffffffffffffffffffffff1673ffffffffffffffffffffffffffffffffffffffff16815260200190815260200160002060009054906101000a900460ff16610b57576040517f08c379a0000000000000000000000000000000000000000000000000000000008152600401610b4e9061173b565b60405180910390fd5b806003805490508110610b9f576040517f08c379a0000000000000000000000000000000000000000000000000000000008152600401610b96906116bb565b60405180910390fd5b816004600082815260200190815260200160002060003373ffffffffffffffffffffffffffffffffffffffff1673ffffffffffffffffffffffffffffffffffffffff16815260200190815260200160002060009054906101000a900460ff1615610c3e576040517f08c379a0000000000000000000000000000000000000000000000000000000008152600401610c35906116db565b60405180910390fd5b8260038181548110610c79577f4e487b7100000000000000000000000000000000000000000000000000000000600052603260045260246000fd5b906000526020600020906004020160030160009054906101000a900460ff1615610cd8576040517f08c379a0000000000000000000000000000000000000000000000000000000008152600401610ccf9061171b565b60405180910390fd5b60016004600086815260200190815260200160002060003373ffffffffffffffffffffffffffffffffffffffff1673ffffffffffffffffffffffffffffffffffffffff16815260200190815260200160002060006101000a81548160ff021916908315150217905550833373ffffffffffffffffffffffffffffffffffffffff167f90ec57f18fa7b15c6b8d5e4d1deb90796c74b2ff23d4d0cecad0cb42a96b312860405160405180910390a350505050565b60025481565b600160003373ffffffffffffffffffffffffffffffffffffffff1673ffffffffffffffffffffffffffffffffffffffff16815260200190815260200160002060009054906101000a900460ff16610e1d576040517f08c379a0000000000000000000000000000000000000000000000000000000008152600401610e149061173b565b60405180910390fd5b806003805490508110610e65576040517f08c379a0000000000000000000000000000000000000000000000000000000008152600401610e5c906116bb565b60405180910390fd5b8160038181548110610ea0577f4e487b7100000000000000000000000000000000000000000000000000000000600052603260045260246000fd5b906000526020600020906004020160030160009054906101000a900460ff1615610eff576040517f08c379a0000000000000000000000000000000000000000000000000000000008152600401610ef69061171b565b60405180910390fd5b600254610f0b84611104565b1015610f4c576040517f08c379a0000000000000000000000000000000000000000000000000000000008152600401610f43906116fb565b60405180910390fd5b600060038481548110610f88577f4e487b7100000000000000000000000000000000000000000000000000000000600052603260045260246000fd5b9060005260206000209060040201905060018160030160006101000a81548160ff0219169083151502179055506000600560009054906101000a900473ffffffffffffffffffffffffffffffffffffffff1673ffffffffffffffffffffffffffffffffffffffff1663a9059cbb8360000160009054906101000a900473ffffffffffffffffffffffffffffffffffffffff1684600101546040518363ffffffff1660e01b815260040161103c92919061160b565b602060405180830381600087803b15801561105657600080fd5b505af115801561106a573d6000803e3d6000fd5b505050506040513d601f19601f8201168201806040525081019061108e91906113cf565b9050806110d0576040517f08c379a00000000000000000000000000000000000000000000000000000000081526004016110c79061169b565b60405180910390fd5b847fddb556f1d2c1ec821e910b019d3685b229db152a0ecd517ca7e24b8bd713928960405160405180910390a25050505050565b6000806000905060005b60008054905081101561120457600460008581526020019081526020016000206000808381548110611169577f4e487b7100000000000000000000000000000000000000000000000000000000600052603260045260246000fd5b9060005260206000200160009054906101000a900473ffffffffffffffffffffffffffffffffffffffff1673ffffffffffffffffffffffffffffffffffffffff1673ffffffffffffffffffffffffffffffffffffffff16815260200190815260200160002060009054906101000a900460ff16156111f1576001826111ee91906117ce565b91505b80806111fc90611905565b91505061110e565b5080915050919050565b82805461121a906118d3565b90600052602060002090601f01602090048101928261123c5760008555611283565b82601f1061125557805160ff1916838001178555611283565b82800160010185558215611283579182015b82811115611282578251825591602001919060010190611267565b5b5090506112909190611294565b5090565b5b808211156112ad576000816000905550600101611295565b5090565b6000813590506112c081611adf565b92915050565b6000815190506112d581611af6565b92915050565b60008083601f8401126112ed57600080fd5b8235905067ffffffffffffffff81111561130657600080fd5b60208301915083600182028301111561131e57600080fd5b9250929050565b60008135905061133481611b0d565b92915050565b60006020828403121561134c57600080fd5b600061135a848285016112b1565b91505092915050565b6000806000806060858703121561137957600080fd5b6000611387878288016112b1565b945050602061139887828801611325565b935050604085013567ffffffffffffffff8111156113b557600080fd5b6113c1878288016112db565b925092505092959194509250565b6000602082840312156113e157600080fd5b60006113ef848285016112c6565b91505092915050565b60006020828403121561140a57600080fd5b600061141884828501611325565b91505092915050565b6000806040838503121561143457600080fd5b600061144285828601611325565b9250506020611453858286016112b1565b9150509250929050565b61146681611858565b82525050565b6114758161186a565b82525050565b600061148682611796565b61149081856117a1565b93506114a08185602086016118a0565b6114a9816119ac565b840191505092915050565b60006114c16009836117bd565b91506114cc826119bd565b602082019050919050565b60006114e46011836117bd565b91506114ef826119e6565b602082019050919050565b60006115076013836117bd565b915061151282611a0f565b602082019050919050565b600061152a601c836117bd565b915061153582611a38565b602082019050919050565b600061154d6000836117b2565b915061155882611a61565b600082019050919050565b60006115706013836117bd565b915061157b82611a64565b602082019050919050565b60006115936009836117bd565b915061159e82611a8d565b602082019050919050565b60006115b6600f836117bd565b91506115c182611ab6565b602082019050919050565b6115d581611896565b82525050565b60006115e682611540565b9150819050919050565b6000602082019050611605600083018461145d565b92915050565b6000604082019050611620600083018561145d565b61162d60208301846115cc565b9392505050565b6000608082019050611649600083018761145d565b61165660208301866115cc565b8181036040830152611668818561147b565b9050611677606083018461146c565b95945050505050565b6000602082019050611695600083018461146c565b92915050565b600060208201905081810360008301526116b4816114b4565b9050919050565b600060208201905081810360008301526116d4816114d7565b9050919050565b600060208201905081810360008301526116f4816114fa565b9050919050565b600060208201905081810360008301526117148161151d565b9050919050565b6000602082019050818103600083015261173481611563565b9050919050565b6000602082019050818103600083015261175481611586565b9050919050565b60006020820190508181036000830152611774816115a9565b9050919050565b600060208201905061179060008301846115cc565b92915050565b600081519050919050565b600082825260208201905092915050565b600081905092915050565b600082825260208201905092915050565b60006117d982611896565b91506117e483611896565b9250827fffffffffffffffffffffffffffffffffffffffffffffffffffffffffffffffff038211156118195761181861194e565b5b828201905092915050565b600061182f82611896565b915061183a83611896565b92508282101561184d5761184c61194e565b5b828203905092915050565b600061186382611876565b9050919050565b60008115159050919050565b600073ffffffffffffffffffffffffffffffffffffffff82169050919050565b6000819050919050565b60005b838110156118be5780820151818401526020810190506118a3565b838111156118cd576000848401525b50505050565b600060028204905060018216806118eb57607f821691505b602082108114156118ff576118fe61197d565b5b50919050565b600061191082611896565b91507fffffffffffffffffffffffffffffffffffffffffffffffffffffffffffffffff8214156119435761194261194e565b5b600182019050919050565b7f4e487b7100000000000000000000000000000000000000000000000000000000600052601160045260246000fd5b7f4e487b7100000000000000000000000000000000000000000000000000000000600052602260045260246000fd5b6000601f19601f8301169050919050565b7f7478206661696c65640000000000000000000000000000000000000000000000600082015250565b7f747820646f6573206e6f74206578697374000000000000000000000000000000600082015250565b7f747820616c726561647920617070726f76656400000000000000000000000000600082015250565b7f417070726f76616c73206c657373207468616e20726571756972656400000000600082015250565b50565b7f747820616c726561647920657865637574656400000000000000000000000000600082015250565b7f6e6f74206f776e65720000000000000000000000000000000000000000000000600082015250565b7f7478206e6f7420417070726f7665640000000000000000000000000000000000600082015250565b611ae881611858565b8114611af357600080fd5b50565b611aff8161186a565b8114611b0a57600080fd5b50565b611b1681611896565b8114611b2157600080fd5b5056fea2646970667358221220039d7be5c83c7ea306ddea08731a8c4eee7d439a40ced8d0cd2de4943890799c64736f6c63430008040033",
  "linkReferences": {},
  "deployedLinkReferences": {}
}