{
  "_format": "hh-sol-artifact-1",
  "contractName": "RRNFTv2_2",
  "sourceName": "contracts/RRNFTv2_2.sol",
  "abi": [
    {
      "inputs": [
        {
          "internalType": "string",
          "name": "buri",
          "type": "string"
        }
      ],
      "stateMutability": "nonpayable",
      "type": "constructor"
    },
    {
      "anonymous": false,
      "inputs": [
        {
          "indexed": true,
          "internalType": "address",
          "name": "owner",
          "type": "address"
        },
        {
          "indexed": true,
          "internalType": "address",
          "name": "approved",
          "type": "address"
        },
        {
          "indexed": true,
          "internalType": "uint256",
          "name": "tokenId",
          "type": "uint256"
        }
      ],
      "name": "Approval",
      "type": "event"
    },
    {
      "anonymous": false,
      "inputs": [
        {
          "indexed": true,
          "internalType": "address",
          "name": "owner",
          "type": "address"
        },
        {
          "indexed": true,
          "internalType": "address",
          "name": "operator",
          "type": "address"
        },
        {
          "indexed": false,
          "internalType": "bool",
          "name": "approved",
          "type": "bool"
        }
      ],
      "name": "ApprovalForAll",
      "type": "event"
    },
    {
      "anonymous": false,
      "inputs": [
        {
          "indexed": true,
          "internalType": "address",
          "name": "sender",
          "type": "address"
        },
        {
          "indexed": false,
          "internalType": "uint256",
          "name": "amount",
          "type": "uint256"
        }
      ],
      "name": "ContractDeposit",
      "type": "event"
    },
    {
      "anonymous": false,
      "inputs": [
        {
          "indexed": true,
          "internalType": "address",
          "name": "newMinter",
          "type": "address"
        }
      ],
      "name": "MinterAdded",
      "type": "event"
    },
    {
      "anonymous": false,
      "inputs": [
        {
          "indexed": true,
          "internalType": "address",
          "name": "formerMinter",
          "type": "address"
        }
      ],
      "name": "MinterRemoved",
      "type": "event"
    },
    {
      "anonymous": false,
      "inputs": [
        {
          "indexed": false,
          "internalType": "address",
          "name": "account",
          "type": "address"
        }
      ],
      "name": "Paused",
      "type": "event"
    },
    {
      "anonymous": false,
      "inputs": [
        {
          "indexed": true,
          "internalType": "address",
          "name": "from",
          "type": "address"
        },
        {
          "indexed": true,
          "internalType": "address",
          "name": "to",
          "type": "address"
        },
        {
          "indexed": true,
          "internalType": "uint256",
          "name": "tokenId",
          "type": "uint256"
        }
      ],
      "name": "Transfer",
      "type": "event"
    },
    {
      "anonymous": false,
      "inputs": [
        {
          "indexed": false,
          "internalType": "address",
          "name": "account",
          "type": "address"
        }
      ],
      "name": "Unpaused",
      "type": "event"
    },
    {
      "inputs": [],
      "name": "_admin",
      "outputs": [
        {
          "internalType": "address",
          "name": "",
          "type": "address"
        }
      ],
      "stateMutability": "view",
      "type": "function"
    },
    {
      "inputs": [],
      "name": "_buri",
      "outputs": [
        {
          "internalType": "string",
          "name": "",
          "type": "string"
        }
      ],
      "stateMutability": "view",
      "type": "function"
    },
    {
      "inputs": [
        {
          "internalType": "address",
          "name": "newMinter",
          "type": "address"
        }
      ],
      "name": "addMinter",
      "outputs": [],
      "stateMutability": "nonpayable",
      "type": "function"
    },
    {
      "inputs": [
        {
          "internalType": "address",
          "name": "to",
          "type": "address"
        },
        {
          "internalType": "uint256",
          "name": "tokenId",
          "type": "uint256"
        }
      ],
      "name": "approve",
      "outputs": [],
      "stateMutability": "nonpayable",
      "type": "function"
    },
    {
      "inputs": [
        {
          "internalType": "address",
          "name": "owner",
          "type": "address"
        }
      ],
      "name": "balanceOf",
      "outputs": [
        {
          "internalType": "uint256",
          "name": "",
          "type": "uint256"
        }
      ],
      "stateMutability": "view",
      "type": "function"
    },
    {
      "inputs": [
        {
          "internalType": "uint256",
          "name": "tokenId",
          "type": "uint256"
        }
      ],
      "name": "burn",
      "outputs": [],
      "stateMutability": "nonpayable",
      "type": "function"
    },
    {
      "inputs": [
        {
          "internalType": "uint256",
          "name": "tokenId",
          "type": "uint256"
        }
      ],
      "name": "getApproved",
      "outputs": [
        {
          "internalType": "address",
          "name": "",
          "type": "address"
        }
      ],
      "stateMutability": "view",
      "type": "function"
    },
    {
      "inputs": [
        {
          "internalType": "address",
          "name": "owner",
          "type": "address"
        },
        {
          "internalType": "address",
          "name": "operator",
          "type": "address"
        }
      ],
      "name": "isApprovedForAll",
      "outputs": [
        {
          "internalType": "bool",
          "name": "",
          "type": "bool"
        }
      ],
      "stateMutability": "view",
      "type": "function"
    },
    {
      "inputs": [
        {
          "internalType": "address",
          "name": "",
          "type": "address"
        }
      ],
      "name": "minters",
      "outputs": [
        {
          "internalType": "bool",
          "name": "",
          "type": "bool"
        }
      ],
      "stateMutability": "view",
      "type": "function"
    },
    {
      "inputs": [],
      "name": "name",
      "outputs": [
        {
          "internalType": "string",
          "name": "",
          "type": "string"
        }
      ],
      "stateMutability": "view",
      "type": "function"
    },
    {
      "inputs": [
        {
          "internalType": "uint256",
          "name": "tokenId",
          "type": "uint256"
        }
      ],
      "name": "ownerOf",
      "outputs": [
        {
          "internalType": "address",
          "name": "",
          "type": "address"
        }
      ],
      "stateMutability": "view",
      "type": "function"
    },
    {
      "inputs": [],
      "name": "pause",
      "outputs": [],
      "stateMutability": "nonpayable",
      "type": "function"
    },
    {
      "inputs": [],
      "name": "paused",
      "outputs": [
        {
          "internalType": "bool",
          "name": "",
          "type": "bool"
        }
      ],
      "stateMutability": "view",
      "type": "function"
    },
    {
      "inputs": [
        {
          "internalType": "address",
          "name": "formerMinter",
          "type": "address"
        }
      ],
      "name": "removeMinter",
      "outputs": [],
      "stateMutability": "nonpayable",
      "type": "function"
    },
    {
      "inputs": [
        {
          "internalType": "address",
          "name": "to",
          "type": "address"
        },
        {
          "internalType": "uint256",
          "name": "tokenId",
          "type": "uint256"
        }
      ],
      "name": "safeMint",
      "outputs": [],
      "stateMutability": "nonpayable",
      "type": "function"
    },
    {
      "inputs": [
        {
          "internalType": "address",
          "name": "from",
          "type": "address"
        },
        {
          "internalType": "address",
          "name": "to",
          "type": "address"
        },
        {
          "internalType": "uint256",
          "name": "tokenId",
          "type": "uint256"
        }
      ],
      "name": "safeTransferFrom",
      "outputs": [],
      "stateMutability": "nonpayable",
      "type": "function"
    },
    {
      "inputs": [
        {
          "internalType": "address",
          "name": "from",
          "type": "address"
        },
        {
          "internalType": "address",
          "name": "to",
          "type": "address"
        },
        {
          "internalType": "uint256",
          "name": "tokenId",
          "type": "uint256"
        },
        {
          "internalType": "bytes",
          "name": "_data",
          "type": "bytes"
        }
      ],
      "name": "safeTransferFrom",
      "outputs": [],
      "stateMutability": "nonpayable",
      "type": "function"
    },
    {
      "inputs": [
        {
          "internalType": "address",
          "name": "operator",
          "type": "address"
        },
        {
          "internalType": "bool",
          "name": "approved",
          "type": "bool"
        }
      ],
      "name": "setApprovalForAll",
      "outputs": [],
      "stateMutability": "nonpayable",
      "type": "function"
    },
    {
      "inputs": [
        {
          "internalType": "string",
          "name": "buri",
          "type": "string"
        }
      ],
      "name": "setBaseURI",
      "outputs": [],
      "stateMutability": "nonpayable",
      "type": "function"
    },
    {
      "inputs": [
        {
          "internalType": "bytes4",
          "name": "interfaceId",
          "type": "bytes4"
        }
      ],
      "name": "supportsInterface",
      "outputs": [
        {
          "internalType": "bool",
          "name": "",
          "type": "bool"
        }
      ],
      "stateMutability": "view",
      "type": "function"
    },
    {
      "inputs": [],
      "name": "symbol",
      "outputs": [
        {
          "internalType": "string",
          "name": "",
          "type": "string"
        }
      ],
      "stateMutability": "view",
      "type": "function"
    },
    {
      "inputs": [
        {
          "internalType": "uint256",
          "name": "tokenId",
          "type": "uint256"
        }
      ],
      "name": "tokenURI",
      "outputs": [
        {
          "internalType": "string",
          "name": "",
          "type": "string"
        }
      ],
      "stateMutability": "view",
      "type": "function"
    },
    {
      "inputs": [
        {
          "internalType": "address",
          "name": "from",
          "type": "address"
        },
        {
          "internalType": "address",
          "name": "to",
          "type": "address"
        },
        {
          "internalType": "uint256",
          "name": "tokenId",
          "type": "uint256"
        }
      ],
      "name": "transferFrom",
      "outputs": [],
      "stateMutability": "nonpayable",
      "type": "function"
    },
    {
      "inputs": [],
      "name": "unpause",
      "outputs": [],
      "stateMutability": "nonpayable",
      "type": "function"
    },
    {
      "inputs": [],
      "name": "withdraw",
      "outputs": [],
      "stateMutability": "payable",
      "type": "function"
    },
    {
      "stateMutability": "payable",
      "type": "receive"
    }
  ],
  "bytecode": "0x60806040523480156200001157600080fd5b5060405162004023380380620040238339818101604052810190620000379190620002ef565b6040518060400160405280600981526020017f52524e465476322e3200000000000000000000000000000000000000000000008152506040518060400160405280600681526020017f525254322e3200000000000000000000000000000000000000000000000000008152508160009080519060200190620000bb929190620001cd565b508060019080519060200190620000d4929190620001cd565b5050506000600660006101000a81548160ff02191690831515021790555080600790805190602001906200010a929190620001cd565b5033600860006101000a81548173ffffffffffffffffffffffffffffffffffffffff021916908373ffffffffffffffffffffffffffffffffffffffff160217905550600160096000600860009054906101000a900473ffffffffffffffffffffffffffffffffffffffff1673ffffffffffffffffffffffffffffffffffffffff1673ffffffffffffffffffffffffffffffffffffffff16815260200190815260200160002060006101000a81548160ff02191690831515021790555050620004a4565b828054620001db90620003c9565b90600052602060002090601f016020900481019282620001ff57600085556200024b565b82601f106200021a57805160ff19168380011785556200024b565b828001600101855582156200024b579182015b828111156200024a5782518255916020019190600101906200022d565b5b5090506200025a91906200025e565b5090565b5b80821115620002795760008160009055506001016200025f565b5090565b6000620002946200028e846200035d565b62000334565b905082815260208101848484011115620002ad57600080fd5b620002ba84828562000393565b509392505050565b600082601f830112620002d457600080fd5b8151620002e68482602086016200027d565b91505092915050565b6000602082840312156200030257600080fd5b600082015167ffffffffffffffff8111156200031d57600080fd5b6200032b84828501620002c2565b91505092915050565b60006200034062000353565b90506200034e8282620003ff565b919050565b6000604051905090565b600067ffffffffffffffff8211156200037b576200037a62000464565b5b620003868262000493565b9050602081019050919050565b60005b83811015620003b357808201518184015260208101905062000396565b83811115620003c3576000848401525b50505050565b60006002820490506001821680620003e257607f821691505b60208210811415620003f957620003f862000435565b5b50919050565b6200040a8262000493565b810181811067ffffffffffffffff821117156200042c576200042b62000464565b5b80604052505050565b7f4e487b7100000000000000000000000000000000000000000000000000000000600052602260045260246000fd5b7f4e487b7100000000000000000000000000000000000000000000000000000000600052604160045260246000fd5b6000601f19601f8301169050919050565b613b6f80620004b46000396000f3fe60806040526004361061016a5760003560e01c806355f804b3116100d1578063983b2d561161008a578063b88d4fde11610064578063b88d4fde14610538578063c87b56dd14610561578063e985e9c51461059e578063f46eccc4146105db576101bf565b8063983b2d56146104bd578063a1448194146104e6578063a22cb4651461050f576101bf565b806355f804b3146103ad5780635c975abb146103d65780636352211e1461040157806370a082311461043e5780638456cb591461047b57806395d89b4114610492576101bf565b806323b872dd1161012357806323b872dd146102e85780633092afd5146103115780633ccfd60b1461033a5780633f4ba83a1461034457806342842e0e1461035b57806342966c6814610384576101bf565b806301bc45c9146101c457806301ffc9a7146101ef57806303cf97b51461022c57806306fdde0314610257578063081812fc14610282578063095ea7b3146102bf576101bf565b366101bf573373ffffffffffffffffffffffffffffffffffffffff167fb9b3a6f2b4481c039d7d0d2da9a10c8c2a8bb9ec97533b734176c810ffced187346040516101b59190613181565b60405180910390a2005b600080fd5b3480156101d057600080fd5b506101d9610618565b6040516101e69190612e1d565b60405180910390f35b3480156101fb57600080fd5b5061021660048036038101906102119190612933565b61063e565b6040516102239190612e84565b60405180910390f35b34801561023857600080fd5b50610241610720565b60405161024e9190612e9f565b60405180910390f35b34801561026357600080fd5b5061026c6107ae565b6040516102799190612e9f565b60405180910390f35b34801561028e57600080fd5b506102a960048036038101906102a491906129c6565b610840565b6040516102b69190612e1d565b60405180910390f35b3480156102cb57600080fd5b506102e660048036038101906102e191906128f7565b6108c5565b005b3480156102f457600080fd5b5061030f600480360381019061030a91906127f1565b6109dd565b005b34801561031d57600080fd5b506103386004803603810190610333919061278c565b610a3d565b005b610342610bf7565b005b34801561035057600080fd5b50610359610d22565b005b34801561036757600080fd5b50610382600480360381019061037d91906127f1565b610dbc565b005b34801561039057600080fd5b506103ab60048036038101906103a691906129c6565b610ddc565b005b3480156103b957600080fd5b506103d460048036038101906103cf9190612985565b610e38565b005b3480156103e257600080fd5b506103eb610f26565b6040516103f89190612e84565b60405180910390f35b34801561040d57600080fd5b50610428600480360381019061042391906129c6565b610f3d565b6040516104359190612e1d565b60405180910390f35b34801561044a57600080fd5b506104656004803603810190610460919061278c565b610fef565b6040516104729190613181565b60405180910390f35b34801561048757600080fd5b506104906110a7565b005b34801561049e57600080fd5b506104a7611141565b6040516104b49190612e9f565b60405180910390f35b3480156104c957600080fd5b506104e460048036038101906104df919061278c565b6111d3565b005b3480156104f257600080fd5b5061050d600480360381019061050891906128f7565b61138e565b005b34801561051b57600080fd5b50610536600480360381019061053191906128bb565b611428565b005b34801561054457600080fd5b5061055f600480360381019061055a9190612840565b61143e565b005b34801561056d57600080fd5b50610588600480360381019061058391906129c6565b6114a0565b6040516105959190612e9f565b60405180910390f35b3480156105aa57600080fd5b506105c560048036038101906105c091906127b5565b611547565b6040516105d29190612e84565b60405180910390f35b3480156105e757600080fd5b5061060260048036038101906105fd919061278c565b6115db565b60405161060f9190612e84565b60405180910390f35b600860009054906101000a900473ffffffffffffffffffffffffffffffffffffffff1681565b60007f80ac58cd000000000000000000000000000000000000000000000000000000007bffffffffffffffffffffffffffffffffffffffffffffffffffffffff1916827bffffffffffffffffffffffffffffffffffffffffffffffffffffffff1916148061070957507f5b5e139f000000000000000000000000000000000000000000000000000000007bffffffffffffffffffffffffffffffffffffffffffffffffffffffff1916827bffffffffffffffffffffffffffffffffffffffffffffffffffffffff1916145b806107195750610718826115fb565b5b9050919050565b6007805461072d906133e2565b80601f0160208091040260200160405190810160405280929190818152602001828054610759906133e2565b80156107a65780601f1061077b576101008083540402835291602001916107a6565b820191906000526020600020905b81548152906001019060200180831161078957829003601f168201915b505050505081565b6060600080546107bd906133e2565b80601f01602080910402602001604051908101604052809291908181526020018280546107e9906133e2565b80156108365780601f1061080b57610100808354040283529160200191610836565b820191906000526020600020905b81548152906001019060200180831161081957829003601f168201915b5050505050905090565b600061084b82611665565b61088a576040517f08c379a0000000000000000000000000000000000000000000000000000000008152600401610881906130a1565b60405180910390fd5b6004600083815260200190815260200160002060009054906101000a900473ffffffffffffffffffffffffffffffffffffffff169050919050565b60006108d082610f3d565b90508073ffffffffffffffffffffffffffffffffffffffff168373ffffffffffffffffffffffffffffffffffffffff161415610941576040517f08c379a000000000000000000000000000000000000000000000000000000000815260040161093890613121565b60405180910390fd5b8073ffffffffffffffffffffffffffffffffffffffff166109606116d1565b73ffffffffffffffffffffffffffffffffffffffff16148061098f575061098e816109896116d1565b611547565b5b6109ce576040517f08c379a00000000000000000000000000000000000000000000000000000000081526004016109c590612fe1565b60405180910390fd5b6109d883836116d9565b505050565b6109ee6109e86116d1565b82611792565b610a2d576040517f08c379a0000000000000000000000000000000000000000000000000000000008152600401610a2490613141565b60405180910390fd5b610a38838383611870565b505050565b600860009054906101000a900473ffffffffffffffffffffffffffffffffffffffff1673ffffffffffffffffffffffffffffffffffffffff163373ffffffffffffffffffffffffffffffffffffffff1614610acd576040517f08c379a0000000000000000000000000000000000000000000000000000000008152600401610ac490613041565b60405180910390fd5b600960008273ffffffffffffffffffffffffffffffffffffffff1673ffffffffffffffffffffffffffffffffffffffff16815260200190815260200160002060009054906101000a900460ff16610b59576040517f08c379a0000000000000000000000000000000000000000000000000000000008152600401610b5090613061565b60405180910390fd5b6000600960008373ffffffffffffffffffffffffffffffffffffffff1673ffffffffffffffffffffffffffffffffffffffff16815260200190815260200160002060006101000a81548160ff0219169083151502179055508073ffffffffffffffffffffffffffffffffffffffff167fe94479a9f7e1952cc78f2d6baab678adc1b772d936c6583def489e524cb6669260405160405180910390a250565b600860009054906101000a900473ffffffffffffffffffffffffffffffffffffffff1673ffffffffffffffffffffffffffffffffffffffff163373ffffffffffffffffffffffffffffffffffffffff1614610c87576040517f08c379a0000000000000000000000000000000000000000000000000000000008152600401610c7e90613041565b60405180910390fd5b6000600860009054906101000a900473ffffffffffffffffffffffffffffffffffffffff1673ffffffffffffffffffffffffffffffffffffffff1647604051610ccf90612e08565b60006040518083038185875af1925050503d8060008114610d0c576040519150601f19603f3d011682016040523d82523d6000602084013e610d11565b606091505b5050905080610d1f57600080fd5b50565b600860009054906101000a900473ffffffffffffffffffffffffffffffffffffffff1673ffffffffffffffffffffffffffffffffffffffff163373ffffffffffffffffffffffffffffffffffffffff1614610db2576040517f08c379a0000000000000000000000000000000000000000000000000000000008152600401610da990613041565b60405180910390fd5b610dba611ad7565b565b610dd78383836040518060200160405280600081525061143e565b505050565b610ded610de76116d1565b82611792565b610e2c576040517f08c379a0000000000000000000000000000000000000000000000000000000008152600401610e2390613161565b60405180910390fd5b610e3581611b79565b50565b600860009054906101000a900473ffffffffffffffffffffffffffffffffffffffff1673ffffffffffffffffffffffffffffffffffffffff163373ffffffffffffffffffffffffffffffffffffffff1614610ec8576040517f08c379a0000000000000000000000000000000000000000000000000000000008152600401610ebf90613041565b60405180910390fd5b6000815111610f0c576040517f08c379a0000000000000000000000000000000000000000000000000000000008152600401610f0390612f41565b60405180910390fd5b8060079080519060200190610f229291906125b0565b5050565b6000600660009054906101000a900460ff16905090565b6000806002600084815260200190815260200160002060009054906101000a900473ffffffffffffffffffffffffffffffffffffffff169050600073ffffffffffffffffffffffffffffffffffffffff168173ffffffffffffffffffffffffffffffffffffffff161415610fe6576040517f08c379a0000000000000000000000000000000000000000000000000000000008152600401610fdd90613021565b60405180910390fd5b80915050919050565b60008073ffffffffffffffffffffffffffffffffffffffff168273ffffffffffffffffffffffffffffffffffffffff161415611060576040517f08c379a000000000000000000000000000000000000000000000000000000000815260040161105790613001565b60405180910390fd5b600360008373ffffffffffffffffffffffffffffffffffffffff1673ffffffffffffffffffffffffffffffffffffffff168152602001908152602001600020549050919050565b600860009054906101000a900473ffffffffffffffffffffffffffffffffffffffff1673ffffffffffffffffffffffffffffffffffffffff163373ffffffffffffffffffffffffffffffffffffffff1614611137576040517f08c379a000000000000000000000000000000000000000000000000000000000815260040161112e90613041565b60405180910390fd5b61113f611c96565b565b606060018054611150906133e2565b80601f016020809104026020016040519081016040528092919081815260200182805461117c906133e2565b80156111c95780601f1061119e576101008083540402835291602001916111c9565b820191906000526020600020905b8154815290600101906020018083116111ac57829003601f168201915b5050505050905090565b600860009054906101000a900473ffffffffffffffffffffffffffffffffffffffff1673ffffffffffffffffffffffffffffffffffffffff163373ffffffffffffffffffffffffffffffffffffffff1614611263576040517f08c379a000000000000000000000000000000000000000000000000000000000815260040161125a90613041565b60405180910390fd5b600960008273ffffffffffffffffffffffffffffffffffffffff1673ffffffffffffffffffffffffffffffffffffffff16815260200190815260200160002060009054906101000a900460ff16156112f0576040517f08c379a00000000000000000000000000000000000000000000000000000000081526004016112e7906130c1565b60405180910390fd5b6001600960008373ffffffffffffffffffffffffffffffffffffffff1673ffffffffffffffffffffffffffffffffffffffff16815260200190815260200160002060006101000a81548160ff0219169083151502179055508073ffffffffffffffffffffffffffffffffffffffff167f6ae172837ea30b801fbfcdd4108aa1d5bf8ff775444fd70256b44e6bf3dfc3f660405160405180910390a250565b600960003373ffffffffffffffffffffffffffffffffffffffff1673ffffffffffffffffffffffffffffffffffffffff16815260200190815260200160002060009054906101000a900460ff1661141a576040517f08c379a0000000000000000000000000000000000000000000000000000000008152600401611411906130e1565b60405180910390fd5b6114248282611d39565b5050565b61143a6114336116d1565b8383611d57565b5050565b61144f6114496116d1565b83611792565b61148e576040517f08c379a000000000000000000000000000000000000000000000000000000000815260040161148590613141565b60405180910390fd5b61149a84848484611ec4565b50505050565b60606114ab82611665565b6114ea576040517f08c379a00000000000000000000000000000000000000000000000000000000081526004016114e190613101565b60405180910390fd5b60006114f4611f20565b90506000815111611514576040518060200160405280600081525061153f565b8061151e84611fb2565b60405160200161152f929190612de4565b6040516020818303038152906040525b915050919050565b6000600560008473ffffffffffffffffffffffffffffffffffffffff1673ffffffffffffffffffffffffffffffffffffffff16815260200190815260200160002060008373ffffffffffffffffffffffffffffffffffffffff1673ffffffffffffffffffffffffffffffffffffffff16815260200190815260200160002060009054906101000a900460ff16905092915050565b60096020528060005260406000206000915054906101000a900460ff1681565b60007f01ffc9a7000000000000000000000000000000000000000000000000000000007bffffffffffffffffffffffffffffffffffffffffffffffffffffffff1916827bffffffffffffffffffffffffffffffffffffffffffffffffffffffff1916149050919050565b60008073ffffffffffffffffffffffffffffffffffffffff166002600084815260200190815260200160002060009054906101000a900473ffffffffffffffffffffffffffffffffffffffff1673ffffffffffffffffffffffffffffffffffffffff1614159050919050565b600033905090565b816004600083815260200190815260200160002060006101000a81548173ffffffffffffffffffffffffffffffffffffffff021916908373ffffffffffffffffffffffffffffffffffffffff160217905550808273ffffffffffffffffffffffffffffffffffffffff1661174c83610f3d565b73ffffffffffffffffffffffffffffffffffffffff167f8c5be1e5ebec7d5bd14f71427d1e84f3dd0314c0f7b2291e5b200ac8c7c3b92560405160405180910390a45050565b600061179d82611665565b6117dc576040517f08c379a00000000000000000000000000000000000000000000000000000000081526004016117d390612fa1565b60405180910390fd5b60006117e783610f3d565b90508073ffffffffffffffffffffffffffffffffffffffff168473ffffffffffffffffffffffffffffffffffffffff16148061182957506118288185611547565b5b8061186757508373ffffffffffffffffffffffffffffffffffffffff1661184f84610840565b73ffffffffffffffffffffffffffffffffffffffff16145b91505092915050565b8273ffffffffffffffffffffffffffffffffffffffff1661189082610f3d565b73ffffffffffffffffffffffffffffffffffffffff16146118e6576040517f08c379a00000000000000000000000000000000000000000000000000000000081526004016118dd90612f01565b60405180910390fd5b600073ffffffffffffffffffffffffffffffffffffffff168273ffffffffffffffffffffffffffffffffffffffff161415611956576040517f08c379a000000000000000000000000000000000000000000000000000000000815260040161194d90612f61565b60405180910390fd5b61196183838361215f565b61196c6000826116d9565b6001600360008573ffffffffffffffffffffffffffffffffffffffff1673ffffffffffffffffffffffffffffffffffffffff16815260200190815260200160002060008282546119bc91906132f8565b925050819055506001600360008473ffffffffffffffffffffffffffffffffffffffff1673ffffffffffffffffffffffffffffffffffffffff1681526020019081526020016000206000828254611a139190613271565b92505081905550816002600083815260200190815260200160002060006101000a81548173ffffffffffffffffffffffffffffffffffffffff021916908373ffffffffffffffffffffffffffffffffffffffff160217905550808273ffffffffffffffffffffffffffffffffffffffff168473ffffffffffffffffffffffffffffffffffffffff167fddf252ad1be2c89b69c2b068fc378daa952ba7f163c4a11628f55a4df523b3ef60405160405180910390a4611ad28383836121b7565b505050565b611adf610f26565b611b1e576040517f08c379a0000000000000000000000000000000000000000000000000000000008152600401611b1590612ec1565b60405180910390fd5b6000600660006101000a81548160ff0219169083151502179055507f5db9ee0a495bf2e6ff9c91a7834c1ba4fdd244a5e8aa4e537bd38aeae4b073aa611b626116d1565b604051611b6f9190612e1d565b60405180910390a1565b6000611b8482610f3d565b9050611b928160008461215f565b611b9d6000836116d9565b6001600360008373ffffffffffffffffffffffffffffffffffffffff1673ffffffffffffffffffffffffffffffffffffffff1681526020019081526020016000206000828254611bed91906132f8565b925050819055506002600083815260200190815260200160002060006101000a81549073ffffffffffffffffffffffffffffffffffffffff021916905581600073ffffffffffffffffffffffffffffffffffffffff168273ffffffffffffffffffffffffffffffffffffffff167fddf252ad1be2c89b69c2b068fc378daa952ba7f163c4a11628f55a4df523b3ef60405160405180910390a4611c92816000846121b7565b5050565b611c9e610f26565b15611cde576040517f08c379a0000000000000000000000000000000000000000000000000000000008152600401611cd590612fc1565b60405180910390fd5b6001600660006101000a81548160ff0219169083151502179055507f62e78cea01bee320cd4e420270b5ea74000d11b0c9f74754ebdbfc544b05a258611d226116d1565b604051611d2f9190612e1d565b60405180910390a1565b611d538282604051806020016040528060008152506121bc565b5050565b8173ffffffffffffffffffffffffffffffffffffffff168373ffffffffffffffffffffffffffffffffffffffff161415611dc6576040517f08c379a0000000000000000000000000000000000000000000000000000000008152600401611dbd90612f81565b60405180910390fd5b80600560008573ffffffffffffffffffffffffffffffffffffffff1673ffffffffffffffffffffffffffffffffffffffff16815260200190815260200160002060008473ffffffffffffffffffffffffffffffffffffffff1673ffffffffffffffffffffffffffffffffffffffff16815260200190815260200160002060006101000a81548160ff0219169083151502179055508173ffffffffffffffffffffffffffffffffffffffff168373ffffffffffffffffffffffffffffffffffffffff167f17307eab39ab6107e8899845ad3d59bd9653f200f220920489ca2b5937696c3183604051611eb79190612e84565b60405180910390a3505050565b611ecf848484611870565b611edb84848484612217565b611f1a576040517f08c379a0000000000000000000000000000000000000000000000000000000008152600401611f1190612ee1565b60405180910390fd5b50505050565b606060078054611f2f906133e2565b80601f0160208091040260200160405190810160405280929190818152602001828054611f5b906133e2565b8015611fa85780601f10611f7d57610100808354040283529160200191611fa8565b820191906000526020600020905b815481529060010190602001808311611f8b57829003601f168201915b5050505050905090565b60606000821415611ffa576040518060400160405280600181526020017f3000000000000000000000000000000000000000000000000000000000000000815250905061215a565b600082905060005b6000821461202c57808061201590613445565b915050600a8261202591906132c7565b9150612002565b60008167ffffffffffffffff81111561206e577f4e487b7100000000000000000000000000000000000000000000000000000000600052604160045260246000fd5b6040519080825280601f01601f1916602001820160405280156120a05781602001600182028036833780820191505090505b5090505b60008514612153576001826120b991906132f8565b9150600a856120c8919061348e565b60306120d49190613271565b60f81b818381518110612110577f4e487b7100000000000000000000000000000000000000000000000000000000600052603260045260246000fd5b60200101907effffffffffffffffffffffffffffffffffffffffffffffffffffffffffffff1916908160001a905350600a8561214c91906132c7565b94506120a4565b8093505050505b919050565b612167610f26565b156121a7576040517f08c379a000000000000000000000000000000000000000000000000000000000815260040161219e90612fc1565b60405180910390fd5b6121b28383836123ae565b505050565b505050565b6121c683836123b3565b6121d36000848484612217565b612212576040517f08c379a000000000000000000000000000000000000000000000000000000000815260040161220990612ee1565b60405180910390fd5b505050565b60006122388473ffffffffffffffffffffffffffffffffffffffff1661258d565b156123a1578373ffffffffffffffffffffffffffffffffffffffff1663150b7a026122616116d1565b8786866040518563ffffffff1660e01b81526004016122839493929190612e38565b602060405180830381600087803b15801561229d57600080fd5b505af19250505080156122ce57506040513d601f19601f820116820180604052508101906122cb919061295c565b60015b612351573d80600081146122fe576040519150601f19603f3d011682016040523d82523d6000602084013e612303565b606091505b50600081511415612349576040517f08c379a000000000000000000000000000000000000000000000000000000000815260040161234090612ee1565b60405180910390fd5b805181602001fd5b63150b7a0260e01b7bffffffffffffffffffffffffffffffffffffffffffffffffffffffff1916817bffffffffffffffffffffffffffffffffffffffffffffffffffffffff1916149150506123a6565b600190505b949350505050565b505050565b600073ffffffffffffffffffffffffffffffffffffffff168273ffffffffffffffffffffffffffffffffffffffff161415612423576040517f08c379a000000000000000000000000000000000000000000000000000000000815260040161241a90613081565b60405180910390fd5b61242c81611665565b1561246c576040517f08c379a000000000000000000000000000000000000000000000000000000000815260040161246390612f21565b60405180910390fd5b6124786000838361215f565b6001600360008473ffffffffffffffffffffffffffffffffffffffff1673ffffffffffffffffffffffffffffffffffffffff16815260200190815260200160002060008282546124c89190613271565b92505081905550816002600083815260200190815260200160002060006101000a81548173ffffffffffffffffffffffffffffffffffffffff021916908373ffffffffffffffffffffffffffffffffffffffff160217905550808273ffffffffffffffffffffffffffffffffffffffff16600073ffffffffffffffffffffffffffffffffffffffff167fddf252ad1be2c89b69c2b068fc378daa952ba7f163c4a11628f55a4df523b3ef60405160405180910390a4612589600083836121b7565b5050565b6000808273ffffffffffffffffffffffffffffffffffffffff163b119050919050565b8280546125bc906133e2565b90600052602060002090601f0160209004810192826125de5760008555612625565b82601f106125f757805160ff1916838001178555612625565b82800160010185558215612625579182015b82811115612624578251825591602001919060010190612609565b5b5090506126329190612636565b5090565b5b8082111561264f576000816000905550600101612637565b5090565b6000612666612661846131c1565b61319c565b90508281526020810184848401111561267e57600080fd5b6126898482856133a0565b509392505050565b60006126a461269f846131f2565b61319c565b9050828152602081018484840111156126bc57600080fd5b6126c78482856133a0565b509392505050565b6000813590506126de81613add565b92915050565b6000813590506126f381613af4565b92915050565b60008135905061270881613b0b565b92915050565b60008151905061271d81613b0b565b92915050565b600082601f83011261273457600080fd5b8135612744848260208601612653565b91505092915050565b600082601f83011261275e57600080fd5b813561276e848260208601612691565b91505092915050565b60008135905061278681613b22565b92915050565b60006020828403121561279e57600080fd5b60006127ac848285016126cf565b91505092915050565b600080604083850312156127c857600080fd5b60006127d6858286016126cf565b92505060206127e7858286016126cf565b9150509250929050565b60008060006060848603121561280657600080fd5b6000612814868287016126cf565b9350506020612825868287016126cf565b925050604061283686828701612777565b9150509250925092565b6000806000806080858703121561285657600080fd5b6000612864878288016126cf565b9450506020612875878288016126cf565b935050604061288687828801612777565b925050606085013567ffffffffffffffff8111156128a357600080fd5b6128af87828801612723565b91505092959194509250565b600080604083850312156128ce57600080fd5b60006128dc858286016126cf565b92505060206128ed858286016126e4565b9150509250929050565b6000806040838503121561290a57600080fd5b6000612918858286016126cf565b925050602061292985828601612777565b9150509250929050565b60006020828403121561294557600080fd5b6000612953848285016126f9565b91505092915050565b60006020828403121561296e57600080fd5b600061297c8482850161270e565b91505092915050565b60006020828403121561299757600080fd5b600082013567ffffffffffffffff8111156129b157600080fd5b6129bd8482850161274d565b91505092915050565b6000602082840312156129d857600080fd5b60006129e684828501612777565b91505092915050565b6129f88161332c565b82525050565b612a078161333e565b82525050565b6000612a1882613223565b612a228185613239565b9350612a328185602086016133af565b612a3b8161357b565b840191505092915050565b6000612a518261322e565b612a5b8185613255565b9350612a6b8185602086016133af565b612a748161357b565b840191505092915050565b6000612a8a8261322e565b612a948185613266565b9350612aa48185602086016133af565b80840191505092915050565b6000612abd601483613255565b9150612ac88261358c565b602082019050919050565b6000612ae0603283613255565b9150612aeb826135b5565b604082019050919050565b6000612b03602583613255565b9150612b0e82613604565b604082019050919050565b6000612b26601c83613255565b9150612b3182613653565b602082019050919050565b6000612b49600e83613255565b9150612b548261367c565b602082019050919050565b6000612b6c602483613255565b9150612b77826136a5565b604082019050919050565b6000612b8f601983613255565b9150612b9a826136f4565b602082019050919050565b6000612bb2602c83613255565b9150612bbd8261371d565b604082019050919050565b6000612bd5601083613255565b9150612be08261376c565b602082019050919050565b6000612bf8603883613255565b9150612c0382613795565b604082019050919050565b6000612c1b602a83613255565b9150612c26826137e4565b604082019050919050565b6000612c3e602983613255565b9150612c4982613833565b604082019050919050565b6000612c61600e83613255565b9150612c6c82613882565b602082019050919050565b6000612c84601283613255565b9150612c8f826138ab565b602082019050919050565b6000612ca7602083613255565b9150612cb2826138d4565b602082019050919050565b6000612cca602c83613255565b9150612cd5826138fd565b604082019050919050565b6000612ced601b83613255565b9150612cf88261394c565b602082019050919050565b6000612d10600f83613255565b9150612d1b82613975565b602082019050919050565b6000612d33602f83613255565b9150612d3e8261399e565b604082019050919050565b6000612d56602183613255565b9150612d61826139ed565b604082019050919050565b6000612d7960008361324a565b9150612d8482613a3c565b600082019050919050565b6000612d9c603183613255565b9150612da782613a3f565b604082019050919050565b6000612dbf603083613255565b9150612dca82613a8e565b604082019050919050565b612dde81613396565b82525050565b6000612df08285612a7f565b9150612dfc8284612a7f565b91508190509392505050565b6000612e1382612d6c565b9150819050919050565b6000602082019050612e3260008301846129ef565b92915050565b6000608082019050612e4d60008301876129ef565b612e5a60208301866129ef565b612e676040830185612dd5565b8181036060830152612e798184612a0d565b905095945050505050565b6000602082019050612e9960008301846129fe565b92915050565b60006020820190508181036000830152612eb98184612a46565b905092915050565b60006020820190508181036000830152612eda81612ab0565b9050919050565b60006020820190508181036000830152612efa81612ad3565b9050919050565b60006020820190508181036000830152612f1a81612af6565b9050919050565b60006020820190508181036000830152612f3a81612b19565b9050919050565b60006020820190508181036000830152612f5a81612b3c565b9050919050565b60006020820190508181036000830152612f7a81612b5f565b9050919050565b60006020820190508181036000830152612f9a81612b82565b9050919050565b60006020820190508181036000830152612fba81612ba5565b9050919050565b60006020820190508181036000830152612fda81612bc8565b9050919050565b60006020820190508181036000830152612ffa81612beb565b9050919050565b6000602082019050818103600083015261301a81612c0e565b9050919050565b6000602082019050818103600083015261303a81612c31565b9050919050565b6000602082019050818103600083015261305a81612c54565b9050919050565b6000602082019050818103600083015261307a81612c77565b9050919050565b6000602082019050818103600083015261309a81612c9a565b9050919050565b600060208201905081810360008301526130ba81612cbd565b9050919050565b600060208201905081810360008301526130da81612ce0565b9050919050565b600060208201905081810360008301526130fa81612d03565b9050919050565b6000602082019050818103600083015261311a81612d26565b9050919050565b6000602082019050818103600083015261313a81612d49565b9050919050565b6000602082019050818103600083015261315a81612d8f565b9050919050565b6000602082019050818103600083015261317a81612db2565b9050919050565b60006020820190506131966000830184612dd5565b92915050565b60006131a66131b7565b90506131b28282613414565b919050565b6000604051905090565b600067ffffffffffffffff8211156131dc576131db61354c565b5b6131e58261357b565b9050602081019050919050565b600067ffffffffffffffff82111561320d5761320c61354c565b5b6132168261357b565b9050602081019050919050565b600081519050919050565b600081519050919050565b600082825260208201905092915050565b600081905092915050565b600082825260208201905092915050565b600081905092915050565b600061327c82613396565b915061328783613396565b9250827fffffffffffffffffffffffffffffffffffffffffffffffffffffffffffffffff038211156132bc576132bb6134bf565b5b828201905092915050565b60006132d282613396565b91506132dd83613396565b9250826132ed576132ec6134ee565b5b828204905092915050565b600061330382613396565b915061330e83613396565b925082821015613321576133206134bf565b5b828203905092915050565b600061333782613376565b9050919050565b60008115159050919050565b60007fffffffff0000000000000000000000000000000000000000000000000000000082169050919050565b600073ffffffffffffffffffffffffffffffffffffffff82169050919050565b6000819050919050565b82818337600083830152505050565b60005b838110156133cd5780820151818401526020810190506133b2565b838111156133dc576000848401525b50505050565b600060028204905060018216806133fa57607f821691505b6020821081141561340e5761340d61351d565b5b50919050565b61341d8261357b565b810181811067ffffffffffffffff8211171561343c5761343b61354c565b5b80604052505050565b600061345082613396565b91507fffffffffffffffffffffffffffffffffffffffffffffffffffffffffffffffff821415613483576134826134bf565b5b600182019050919050565b600061349982613396565b91506134a483613396565b9250826134b4576134b36134ee565b5b828206905092915050565b7f4e487b7100000000000000000000000000000000000000000000000000000000600052601160045260246000fd5b7f4e487b7100000000000000000000000000000000000000000000000000000000600052601260045260246000fd5b7f4e487b7100000000000000000000000000000000000000000000000000000000600052602260045260246000fd5b7f4e487b7100000000000000000000000000000000000000000000000000000000600052604160045260246000fd5b6000601f19601f8301169050919050565b7f5061757361626c653a206e6f7420706175736564000000000000000000000000600082015250565b7f4552433732313a207472616e7366657220746f206e6f6e20455243373231526560008201527f63656976657220696d706c656d656e7465720000000000000000000000000000602082015250565b7f4552433732313a207472616e736665722066726f6d20696e636f72726563742060008201527f6f776e6572000000000000000000000000000000000000000000000000000000602082015250565b7f4552433732313a20746f6b656e20616c7265616479206d696e74656400000000600082015250565b7f77726f6e67206261736520757269000000000000000000000000000000000000600082015250565b7f4552433732313a207472616e7366657220746f20746865207a65726f2061646460008201527f7265737300000000000000000000000000000000000000000000000000000000602082015250565b7f4552433732313a20617070726f766520746f2063616c6c657200000000000000600082015250565b7f4552433732313a206f70657261746f7220717565727920666f72206e6f6e657860008201527f697374656e7420746f6b656e0000000000000000000000000000000000000000602082015250565b7f5061757361626c653a2070617573656400000000000000000000000000000000600082015250565b7f4552433732313a20617070726f76652063616c6c6572206973206e6f74206f7760008201527f6e6572206e6f7220617070726f76656420666f7220616c6c0000000000000000602082015250565b7f4552433732313a2062616c616e636520717565727920666f7220746865207a6560008201527f726f206164647265737300000000000000000000000000000000000000000000602082015250565b7f4552433732313a206f776e657220717565727920666f72206e6f6e657869737460008201527f656e7420746f6b656e0000000000000000000000000000000000000000000000602082015250565b7f55736572204e6f742061646d696e000000000000000000000000000000000000600082015250565b7f41646472657373206e6f74204d696e7465720000000000000000000000000000600082015250565b7f4552433732313a206d696e7420746f20746865207a65726f2061646472657373600082015250565b7f4552433732313a20617070726f76656420717565727920666f72206e6f6e657860008201527f697374656e7420746f6b656e0000000000000000000000000000000000000000602082015250565b7f4d696e74657220526f6c6520416c7265616479204772616e7465640000000000600082015250565b7f55736572204e6f74204d696e7465720000000000000000000000000000000000600082015250565b7f4552433732314d657461646174613a2055524920717565727920666f72206e6f60008201527f6e6578697374656e7420746f6b656e0000000000000000000000000000000000602082015250565b7f4552433732313a20617070726f76616c20746f2063757272656e74206f776e6560008201527f7200000000000000000000000000000000000000000000000000000000000000602082015250565b50565b7f4552433732313a207472616e736665722063616c6c6572206973206e6f74206f60008201527f776e6572206e6f7220617070726f766564000000000000000000000000000000602082015250565b7f4552433732314275726e61626c653a2063616c6c6572206973206e6f74206f7760008201527f6e6572206e6f7220617070726f76656400000000000000000000000000000000602082015250565b613ae68161332c565b8114613af157600080fd5b50565b613afd8161333e565b8114613b0857600080fd5b50565b613b148161334a565b8114613b1f57600080fd5b50565b613b2b81613396565b8114613b3657600080fd5b5056fea26469706673582212202aae50db4693a64ca9a288209755358854d30d5bdb4ac9b727c6e1406d6d899b64736f6c63430008040033",
  "linkReferences": {},
  "deployedLinkReferences": {}
}