{
  "_format": "hh-sol-artifact-1",
  "contractName": "RRNFTv2_2",
  "sourceName": "contracts/RRNFTv2_2.sol",
  "abi": [
    {
      "inputs": [
        {
          "internalType": "string",
          "name": "buri",
          "type": "string"
        }
      ],
      "stateMutability": "nonpayable",
      "type": "constructor"
    },
    {
      "anonymous": false,
      "inputs": [
        {
          "indexed": true,
          "internalType": "address",
          "name": "owner",
          "type": "address"
        },
        {
          "indexed": true,
          "internalType": "address",
          "name": "approved",
          "type": "address"
        },
        {
          "indexed": true,
          "internalType": "uint256",
          "name": "tokenId",
          "type": "uint256"
        }
      ],
      "name": "Approval",
      "type": "event"
    },
    {
      "anonymous": false,
      "inputs": [
        {
          "indexed": true,
          "internalType": "address",
          "name": "owner",
          "type": "address"
        },
        {
          "indexed": true,
          "internalType": "address",
          "name": "operator",
          "type": "address"
        },
        {
          "indexed": false,
          "internalType": "bool",
          "name": "approved",
          "type": "bool"
        }
      ],
      "name": "ApprovalForAll",
      "type": "event"
    },
    {
      "anonymous": false,
      "inputs": [
        {
          "indexed": true,
          "internalType": "address",
          "name": "sender",
          "type": "address"
        },
        {
          "indexed": false,
          "internalType": "uint256",
          "name": "amount",
          "type": "uint256"
        }
      ],
      "name": "ContractDeposit",
      "type": "event"
    },
    {
      "anonymous": false,
      "inputs": [
        {
          "indexed": true,
          "internalType": "address",
          "name": "newMinter",
          "type": "address"
        }
      ],
      "name": "MinterAdded",
      "type": "event"
    },
    {
      "anonymous": false,
      "inputs": [
        {
          "indexed": true,
          "internalType": "address",
          "name": "formerMinter",
          "type": "address"
        }
      ],
      "name": "MinterRemoved",
      "type": "event"
    },
    {
      "anonymous": false,
      "inputs": [
        {
          "indexed": false,
          "internalType": "address",
          "name": "account",
          "type": "address"
        }
      ],
      "name": "Paused",
      "type": "event"
    },
    {
      "anonymous": false,
      "inputs": [
        {
          "indexed": true,
          "internalType": "address",
          "name": "from",
          "type": "address"
        },
        {
          "indexed": true,
          "internalType": "address",
          "name": "to",
          "type": "address"
        },
        {
          "indexed": true,
          "internalType": "uint256",
          "name": "tokenId",
          "type": "uint256"
        }
      ],
      "name": "Transfer",
      "type": "event"
    },
    {
      "anonymous": false,
      "inputs": [
        {
          "indexed": false,
          "internalType": "address",
          "name": "account",
          "type": "address"
        }
      ],
      "name": "Unpaused",
      "type": "event"
    },
    {
      "inputs": [
        {
          "internalType": "address",
          "name": "newMinter",
          "type": "address"
        }
      ],
      "name": "addMinter",
      "outputs": [],
      "stateMutability": "nonpayable",
      "type": "function"
    },
    {
      "inputs": [
        {
          "internalType": "address",
          "name": "to",
          "type": "address"
        },
        {
          "internalType": "uint256",
          "name": "tokenId",
          "type": "uint256"
        }
      ],
      "name": "approve",
      "outputs": [],
      "stateMutability": "nonpayable",
      "type": "function"
    },
    {
      "inputs": [
        {
          "internalType": "address",
          "name": "owner",
          "type": "address"
        }
      ],
      "name": "balanceOf",
      "outputs": [
        {
          "internalType": "uint256",
          "name": "",
          "type": "uint256"
        }
      ],
      "stateMutability": "view",
      "type": "function"
    },
    {
      "inputs": [
        {
          "internalType": "uint256",
          "name": "tokenId",
          "type": "uint256"
        }
      ],
      "name": "burn",
      "outputs": [],
      "stateMutability": "nonpayable",
      "type": "function"
    },
    {
      "inputs": [
        {
          "internalType": "uint256",
          "name": "tokenId",
          "type": "uint256"
        }
      ],
      "name": "getApproved",
      "outputs": [
        {
          "internalType": "address",
          "name": "",
          "type": "address"
        }
      ],
      "stateMutability": "view",
      "type": "function"
    },
    {
      "inputs": [
        {
          "internalType": "address",
          "name": "owner",
          "type": "address"
        },
        {
          "internalType": "address",
          "name": "operator",
          "type": "address"
        }
      ],
      "name": "isApprovedForAll",
      "outputs": [
        {
          "internalType": "bool",
          "name": "",
          "type": "bool"
        }
      ],
      "stateMutability": "view",
      "type": "function"
    },
    {
      "inputs": [],
      "name": "name",
      "outputs": [
        {
          "internalType": "string",
          "name": "",
          "type": "string"
        }
      ],
      "stateMutability": "view",
      "type": "function"
    },
    {
      "inputs": [
        {
          "internalType": "uint256",
          "name": "tokenId",
          "type": "uint256"
        }
      ],
      "name": "ownerOf",
      "outputs": [
        {
          "internalType": "address",
          "name": "",
          "type": "address"
        }
      ],
      "stateMutability": "view",
      "type": "function"
    },
    {
      "inputs": [],
      "name": "pause",
      "outputs": [],
      "stateMutability": "nonpayable",
      "type": "function"
    },
    {
      "inputs": [],
      "name": "paused",
      "outputs": [
        {
          "internalType": "bool",
          "name": "",
          "type": "bool"
        }
      ],
      "stateMutability": "view",
      "type": "function"
    },
    {
      "inputs": [
        {
          "internalType": "address",
          "name": "formerMinter",
          "type": "address"
        }
      ],
      "name": "removeMinter",
      "outputs": [],
      "stateMutability": "nonpayable",
      "type": "function"
    },
    {
      "inputs": [
        {
          "internalType": "address",
          "name": "to",
          "type": "address"
        },
        {
          "internalType": "uint256",
          "name": "tokenId",
          "type": "uint256"
        }
      ],
      "name": "safeMint",
      "outputs": [],
      "stateMutability": "nonpayable",
      "type": "function"
    },
    {
      "inputs": [
        {
          "internalType": "address",
          "name": "from",
          "type": "address"
        },
        {
          "internalType": "address",
          "name": "to",
          "type": "address"
        },
        {
          "internalType": "uint256",
          "name": "tokenId",
          "type": "uint256"
        }
      ],
      "name": "safeTransferFrom",
      "outputs": [],
      "stateMutability": "nonpayable",
      "type": "function"
    },
    {
      "inputs": [
        {
          "internalType": "address",
          "name": "from",
          "type": "address"
        },
        {
          "internalType": "address",
          "name": "to",
          "type": "address"
        },
        {
          "internalType": "uint256",
          "name": "tokenId",
          "type": "uint256"
        },
        {
          "internalType": "bytes",
          "name": "_data",
          "type": "bytes"
        }
      ],
      "name": "safeTransferFrom",
      "outputs": [],
      "stateMutability": "nonpayable",
      "type": "function"
    },
    {
      "inputs": [
        {
          "internalType": "address",
          "name": "operator",
          "type": "address"
        },
        {
          "internalType": "bool",
          "name": "approved",
          "type": "bool"
        }
      ],
      "name": "setApprovalForAll",
      "outputs": [],
      "stateMutability": "nonpayable",
      "type": "function"
    },
    {
      "inputs": [
        {
          "internalType": "string",
          "name": "buri",
          "type": "string"
        }
      ],
      "name": "setBaseURI",
      "outputs": [],
      "stateMutability": "nonpayable",
      "type": "function"
    },
    {
      "inputs": [
        {
          "internalType": "bytes4",
          "name": "interfaceId",
          "type": "bytes4"
        }
      ],
      "name": "supportsInterface",
      "outputs": [
        {
          "internalType": "bool",
          "name": "",
          "type": "bool"
        }
      ],
      "stateMutability": "view",
      "type": "function"
    },
    {
      "inputs": [],
      "name": "symbol",
      "outputs": [
        {
          "internalType": "string",
          "name": "",
          "type": "string"
        }
      ],
      "stateMutability": "view",
      "type": "function"
    },
    {
      "inputs": [
        {
          "internalType": "uint256",
          "name": "tokenId",
          "type": "uint256"
        }
      ],
      "name": "tokenURI",
      "outputs": [
        {
          "internalType": "string",
          "name": "",
          "type": "string"
        }
      ],
      "stateMutability": "view",
      "type": "function"
    },
    {
      "inputs": [
        {
          "internalType": "address",
          "name": "from",
          "type": "address"
        },
        {
          "internalType": "address",
          "name": "to",
          "type": "address"
        },
        {
          "internalType": "uint256",
          "name": "tokenId",
          "type": "uint256"
        }
      ],
      "name": "transferFrom",
      "outputs": [],
      "stateMutability": "nonpayable",
      "type": "function"
    },
    {
      "inputs": [],
      "name": "unpause",
      "outputs": [],
      "stateMutability": "nonpayable",
      "type": "function"
    },
    {
      "inputs": [],
      "name": "withdraw",
      "outputs": [],
      "stateMutability": "payable",
      "type": "function"
    },
    {
      "stateMutability": "payable",
      "type": "receive"
    }
  ],
  "bytecode": "0x60806040523480156200001157600080fd5b5060405162003e8b38038062003e8b8339818101604052810190620000379190620002ef565b6040518060400160405280600981526020017f52524e465476322e3200000000000000000000000000000000000000000000008152506040518060400160405280600681526020017f525254322e3200000000000000000000000000000000000000000000000000008152508160009080519060200190620000bb929190620001cd565b508060019080519060200190620000d4929190620001cd565b5050506000600660006101000a81548160ff02191690831515021790555080600790805190602001906200010a929190620001cd565b5033600860006101000a81548173ffffffffffffffffffffffffffffffffffffffff021916908373ffffffffffffffffffffffffffffffffffffffff160217905550600160096000600860009054906101000a900473ffffffffffffffffffffffffffffffffffffffff1673ffffffffffffffffffffffffffffffffffffffff1673ffffffffffffffffffffffffffffffffffffffff16815260200190815260200160002060006101000a81548160ff02191690831515021790555050620004a4565b828054620001db90620003c9565b90600052602060002090601f016020900481019282620001ff57600085556200024b565b82601f106200021a57805160ff19168380011785556200024b565b828001600101855582156200024b579182015b828111156200024a5782518255916020019190600101906200022d565b5b5090506200025a91906200025e565b5090565b5b80821115620002795760008160009055506001016200025f565b5090565b6000620002946200028e846200035d565b62000334565b905082815260208101848484011115620002ad57600080fd5b620002ba84828562000393565b509392505050565b600082601f830112620002d457600080fd5b8151620002e68482602086016200027d565b91505092915050565b6000602082840312156200030257600080fd5b600082015167ffffffffffffffff8111156200031d57600080fd5b6200032b84828501620002c2565b91505092915050565b60006200034062000353565b90506200034e8282620003ff565b919050565b6000604051905090565b600067ffffffffffffffff8211156200037b576200037a62000464565b5b620003868262000493565b9050602081019050919050565b60005b83811015620003b357808201518184015260208101905062000396565b83811115620003c3576000848401525b50505050565b60006002820490506001821680620003e257607f821691505b60208210811415620003f957620003f862000435565b5b50919050565b6200040a8262000493565b810181811067ffffffffffffffff821117156200042c576200042b62000464565b5b80604052505050565b7f4e487b7100000000000000000000000000000000000000000000000000000000600052602260045260246000fd5b7f4e487b7100000000000000000000000000000000000000000000000000000000600052604160045260246000fd5b6000601f19601f8301169050919050565b6139d780620004b46000396000f3fe6080604052600436106101395760003560e01c80635c975abb116100ab578063983b2d561161006f578063983b2d5614610436578063a14481941461045f578063a22cb46514610488578063b88d4fde146104b1578063c87b56dd146104da578063e985e9c5146105175761018e565b80635c975abb1461034f5780636352211e1461037a57806370a08231146103b75780638456cb59146103f457806395d89b411461040b5761018e565b80633092afd5116100fd5780633092afd51461028a5780633ccfd60b146102b35780633f4ba83a146102bd57806342842e0e146102d457806342966c68146102fd57806355f804b3146103265761018e565b806301ffc9a71461019357806306fdde03146101d0578063081812fc146101fb578063095ea7b31461023857806323b872dd146102615761018e565b3661018e573373ffffffffffffffffffffffffffffffffffffffff167fb9b3a6f2b4481c039d7d0d2da9a10c8c2a8bb9ec97533b734176c810ffced187346040516101849190612fe9565b60405180910390a2005b600080fd5b34801561019f57600080fd5b506101ba60048036038101906101b5919061279b565b610554565b6040516101c79190612cec565b60405180910390f35b3480156101dc57600080fd5b506101e5610636565b6040516101f29190612d07565b60405180910390f35b34801561020757600080fd5b50610222600480360381019061021d919061282e565b6106c8565b60405161022f9190612c85565b60405180910390f35b34801561024457600080fd5b5061025f600480360381019061025a919061275f565b61074d565b005b34801561026d57600080fd5b5061028860048036038101906102839190612659565b610865565b005b34801561029657600080fd5b506102b160048036038101906102ac91906125f4565b6108c5565b005b6102bb610a7f565b005b3480156102c957600080fd5b506102d2610baa565b005b3480156102e057600080fd5b506102fb60048036038101906102f69190612659565b610c44565b005b34801561030957600080fd5b50610324600480360381019061031f919061282e565b610c64565b005b34801561033257600080fd5b5061034d600480360381019061034891906127ed565b610cc0565b005b34801561035b57600080fd5b50610364610dae565b6040516103719190612cec565b60405180910390f35b34801561038657600080fd5b506103a1600480360381019061039c919061282e565b610dc5565b6040516103ae9190612c85565b60405180910390f35b3480156103c357600080fd5b506103de60048036038101906103d991906125f4565b610e77565b6040516103eb9190612fe9565b60405180910390f35b34801561040057600080fd5b50610409610f2f565b005b34801561041757600080fd5b50610420610fc9565b60405161042d9190612d07565b60405180910390f35b34801561044257600080fd5b5061045d600480360381019061045891906125f4565b61105b565b005b34801561046b57600080fd5b506104866004803603810190610481919061275f565b611216565b005b34801561049457600080fd5b506104af60048036038101906104aa9190612723565b6112b0565b005b3480156104bd57600080fd5b506104d860048036038101906104d391906126a8565b6112c6565b005b3480156104e657600080fd5b5061050160048036038101906104fc919061282e565b611328565b60405161050e9190612d07565b60405180910390f35b34801561052357600080fd5b5061053e6004803603810190610539919061261d565b6113cf565b60405161054b9190612cec565b60405180910390f35b60007f80ac58cd000000000000000000000000000000000000000000000000000000007bffffffffffffffffffffffffffffffffffffffffffffffffffffffff1916827bffffffffffffffffffffffffffffffffffffffffffffffffffffffff1916148061061f57507f5b5e139f000000000000000000000000000000000000000000000000000000007bffffffffffffffffffffffffffffffffffffffffffffffffffffffff1916827bffffffffffffffffffffffffffffffffffffffffffffffffffffffff1916145b8061062f575061062e82611463565b5b9050919050565b6060600080546106459061324a565b80601f01602080910402602001604051908101604052809291908181526020018280546106719061324a565b80156106be5780601f10610693576101008083540402835291602001916106be565b820191906000526020600020905b8154815290600101906020018083116106a157829003601f168201915b5050505050905090565b60006106d3826114cd565b610712576040517f08c379a000000000000000000000000000000000000000000000000000000000815260040161070990612f09565b60405180910390fd5b6004600083815260200190815260200160002060009054906101000a900473ffffffffffffffffffffffffffffffffffffffff169050919050565b600061075882610dc5565b90508073ffffffffffffffffffffffffffffffffffffffff168373ffffffffffffffffffffffffffffffffffffffff1614156107c9576040517f08c379a00000000000000000000000000000000000000000000000000000000081526004016107c090612f89565b60405180910390fd5b8073ffffffffffffffffffffffffffffffffffffffff166107e8611539565b73ffffffffffffffffffffffffffffffffffffffff161480610817575061081681610811611539565b6113cf565b5b610856576040517f08c379a000000000000000000000000000000000000000000000000000000000815260040161084d90612e49565b60405180910390fd5b6108608383611541565b505050565b610876610870611539565b826115fa565b6108b5576040517f08c379a00000000000000000000000000000000000000000000000000000000081526004016108ac90612fa9565b60405180910390fd5b6108c08383836116d8565b505050565b600860009054906101000a900473ffffffffffffffffffffffffffffffffffffffff1673ffffffffffffffffffffffffffffffffffffffff163373ffffffffffffffffffffffffffffffffffffffff1614610955576040517f08c379a000000000000000000000000000000000000000000000000000000000815260040161094c90612ea9565b60405180910390fd5b600960008273ffffffffffffffffffffffffffffffffffffffff1673ffffffffffffffffffffffffffffffffffffffff16815260200190815260200160002060009054906101000a900460ff166109e1576040517f08c379a00000000000000000000000000000000000000000000000000000000081526004016109d890612ec9565b60405180910390fd5b6000600960008373ffffffffffffffffffffffffffffffffffffffff1673ffffffffffffffffffffffffffffffffffffffff16815260200190815260200160002060006101000a81548160ff0219169083151502179055508073ffffffffffffffffffffffffffffffffffffffff167fe94479a9f7e1952cc78f2d6baab678adc1b772d936c6583def489e524cb6669260405160405180910390a250565b600860009054906101000a900473ffffffffffffffffffffffffffffffffffffffff1673ffffffffffffffffffffffffffffffffffffffff163373ffffffffffffffffffffffffffffffffffffffff1614610b0f576040517f08c379a0000000000000000000000000000000000000000000000000000000008152600401610b0690612ea9565b60405180910390fd5b6000600860009054906101000a900473ffffffffffffffffffffffffffffffffffffffff1673ffffffffffffffffffffffffffffffffffffffff1647604051610b5790612c70565b60006040518083038185875af1925050503d8060008114610b94576040519150601f19603f3d011682016040523d82523d6000602084013e610b99565b606091505b5050905080610ba757600080fd5b50565b600860009054906101000a900473ffffffffffffffffffffffffffffffffffffffff1673ffffffffffffffffffffffffffffffffffffffff163373ffffffffffffffffffffffffffffffffffffffff1614610c3a576040517f08c379a0000000000000000000000000000000000000000000000000000000008152600401610c3190612ea9565b60405180910390fd5b610c4261193f565b565b610c5f838383604051806020016040528060008152506112c6565b505050565b610c75610c6f611539565b826115fa565b610cb4576040517f08c379a0000000000000000000000000000000000000000000000000000000008152600401610cab90612fc9565b60405180910390fd5b610cbd816119e1565b50565b600860009054906101000a900473ffffffffffffffffffffffffffffffffffffffff1673ffffffffffffffffffffffffffffffffffffffff163373ffffffffffffffffffffffffffffffffffffffff1614610d50576040517f08c379a0000000000000000000000000000000000000000000000000000000008152600401610d4790612ea9565b60405180910390fd5b6000815111610d94576040517f08c379a0000000000000000000000000000000000000000000000000000000008152600401610d8b90612da9565b60405180910390fd5b8060079080519060200190610daa929190612418565b5050565b6000600660009054906101000a900460ff16905090565b6000806002600084815260200190815260200160002060009054906101000a900473ffffffffffffffffffffffffffffffffffffffff169050600073ffffffffffffffffffffffffffffffffffffffff168173ffffffffffffffffffffffffffffffffffffffff161415610e6e576040517f08c379a0000000000000000000000000000000000000000000000000000000008152600401610e6590612e89565b60405180910390fd5b80915050919050565b60008073ffffffffffffffffffffffffffffffffffffffff168273ffffffffffffffffffffffffffffffffffffffff161415610ee8576040517f08c379a0000000000000000000000000000000000000000000000000000000008152600401610edf90612e69565b60405180910390fd5b600360008373ffffffffffffffffffffffffffffffffffffffff1673ffffffffffffffffffffffffffffffffffffffff168152602001908152602001600020549050919050565b600860009054906101000a900473ffffffffffffffffffffffffffffffffffffffff1673ffffffffffffffffffffffffffffffffffffffff163373ffffffffffffffffffffffffffffffffffffffff1614610fbf576040517f08c379a0000000000000000000000000000000000000000000000000000000008152600401610fb690612ea9565b60405180910390fd5b610fc7611afe565b565b606060018054610fd89061324a565b80601f01602080910402602001604051908101604052809291908181526020018280546110049061324a565b80156110515780601f1061102657610100808354040283529160200191611051565b820191906000526020600020905b81548152906001019060200180831161103457829003601f168201915b5050505050905090565b600860009054906101000a900473ffffffffffffffffffffffffffffffffffffffff1673ffffffffffffffffffffffffffffffffffffffff163373ffffffffffffffffffffffffffffffffffffffff16146110eb576040517f08c379a00000000000000000000000000000000000000000000000000000000081526004016110e290612ea9565b60405180910390fd5b600960008273ffffffffffffffffffffffffffffffffffffffff1673ffffffffffffffffffffffffffffffffffffffff16815260200190815260200160002060009054906101000a900460ff1615611178576040517f08c379a000000000000000000000000000000000000000000000000000000000815260040161116f90612f29565b60405180910390fd5b6001600960008373ffffffffffffffffffffffffffffffffffffffff1673ffffffffffffffffffffffffffffffffffffffff16815260200190815260200160002060006101000a81548160ff0219169083151502179055508073ffffffffffffffffffffffffffffffffffffffff167f6ae172837ea30b801fbfcdd4108aa1d5bf8ff775444fd70256b44e6bf3dfc3f660405160405180910390a250565b600960003373ffffffffffffffffffffffffffffffffffffffff1673ffffffffffffffffffffffffffffffffffffffff16815260200190815260200160002060009054906101000a900460ff166112a2576040517f08c379a000000000000000000000000000000000000000000000000000000000815260040161129990612f49565b60405180910390fd5b6112ac8282611ba1565b5050565b6112c26112bb611539565b8383611bbf565b5050565b6112d76112d1611539565b836115fa565b611316576040517f08c379a000000000000000000000000000000000000000000000000000000000815260040161130d90612fa9565b60405180910390fd5b61132284848484611d2c565b50505050565b6060611333826114cd565b611372576040517f08c379a000000000000000000000000000000000000000000000000000000000815260040161136990612f69565b60405180910390fd5b600061137c611d88565b9050600081511161139c57604051806020016040528060008152506113c7565b806113a684611e1a565b6040516020016113b7929190612c4c565b6040516020818303038152906040525b915050919050565b6000600560008473ffffffffffffffffffffffffffffffffffffffff1673ffffffffffffffffffffffffffffffffffffffff16815260200190815260200160002060008373ffffffffffffffffffffffffffffffffffffffff1673ffffffffffffffffffffffffffffffffffffffff16815260200190815260200160002060009054906101000a900460ff16905092915050565b60007f01ffc9a7000000000000000000000000000000000000000000000000000000007bffffffffffffffffffffffffffffffffffffffffffffffffffffffff1916827bffffffffffffffffffffffffffffffffffffffffffffffffffffffff1916149050919050565b60008073ffffffffffffffffffffffffffffffffffffffff166002600084815260200190815260200160002060009054906101000a900473ffffffffffffffffffffffffffffffffffffffff1673ffffffffffffffffffffffffffffffffffffffff1614159050919050565b600033905090565b816004600083815260200190815260200160002060006101000a81548173ffffffffffffffffffffffffffffffffffffffff021916908373ffffffffffffffffffffffffffffffffffffffff160217905550808273ffffffffffffffffffffffffffffffffffffffff166115b483610dc5565b73ffffffffffffffffffffffffffffffffffffffff167f8c5be1e5ebec7d5bd14f71427d1e84f3dd0314c0f7b2291e5b200ac8c7c3b92560405160405180910390a45050565b6000611605826114cd565b611644576040517f08c379a000000000000000000000000000000000000000000000000000000000815260040161163b90612e09565b60405180910390fd5b600061164f83610dc5565b90508073ffffffffffffffffffffffffffffffffffffffff168473ffffffffffffffffffffffffffffffffffffffff161480611691575061169081856113cf565b5b806116cf57508373ffffffffffffffffffffffffffffffffffffffff166116b7846106c8565b73ffffffffffffffffffffffffffffffffffffffff16145b91505092915050565b8273ffffffffffffffffffffffffffffffffffffffff166116f882610dc5565b73ffffffffffffffffffffffffffffffffffffffff161461174e576040517f08c379a000000000000000000000000000000000000000000000000000000000815260040161174590612d69565b60405180910390fd5b600073ffffffffffffffffffffffffffffffffffffffff168273ffffffffffffffffffffffffffffffffffffffff1614156117be576040517f08c379a00000000000000000000000000000000000000000000000000000000081526004016117b590612dc9565b60405180910390fd5b6117c9838383611fc7565b6117d4600082611541565b6001600360008573ffffffffffffffffffffffffffffffffffffffff1673ffffffffffffffffffffffffffffffffffffffff16815260200190815260200160002060008282546118249190613160565b925050819055506001600360008473ffffffffffffffffffffffffffffffffffffffff1673ffffffffffffffffffffffffffffffffffffffff168152602001908152602001600020600082825461187b91906130d9565b92505081905550816002600083815260200190815260200160002060006101000a81548173ffffffffffffffffffffffffffffffffffffffff021916908373ffffffffffffffffffffffffffffffffffffffff160217905550808273ffffffffffffffffffffffffffffffffffffffff168473ffffffffffffffffffffffffffffffffffffffff167fddf252ad1be2c89b69c2b068fc378daa952ba7f163c4a11628f55a4df523b3ef60405160405180910390a461193a83838361201f565b505050565b611947610dae565b611986576040517f08c379a000000000000000000000000000000000000000000000000000000000815260040161197d90612d29565b60405180910390fd5b6000600660006101000a81548160ff0219169083151502179055507f5db9ee0a495bf2e6ff9c91a7834c1ba4fdd244a5e8aa4e537bd38aeae4b073aa6119ca611539565b6040516119d79190612c85565b60405180910390a1565b60006119ec82610dc5565b90506119fa81600084611fc7565b611a05600083611541565b6001600360008373ffffffffffffffffffffffffffffffffffffffff1673ffffffffffffffffffffffffffffffffffffffff1681526020019081526020016000206000828254611a559190613160565b925050819055506002600083815260200190815260200160002060006101000a81549073ffffffffffffffffffffffffffffffffffffffff021916905581600073ffffffffffffffffffffffffffffffffffffffff168273ffffffffffffffffffffffffffffffffffffffff167fddf252ad1be2c89b69c2b068fc378daa952ba7f163c4a11628f55a4df523b3ef60405160405180910390a4611afa8160008461201f565b5050565b611b06610dae565b15611b46576040517f08c379a0000000000000000000000000000000000000000000000000000000008152600401611b3d90612e29565b60405180910390fd5b6001600660006101000a81548160ff0219169083151502179055507f62e78cea01bee320cd4e420270b5ea74000d11b0c9f74754ebdbfc544b05a258611b8a611539565b604051611b979190612c85565b60405180910390a1565b611bbb828260405180602001604052806000815250612024565b5050565b8173ffffffffffffffffffffffffffffffffffffffff168373ffffffffffffffffffffffffffffffffffffffff161415611c2e576040517f08c379a0000000000000000000000000000000000000000000000000000000008152600401611c2590612de9565b60405180910390fd5b80600560008573ffffffffffffffffffffffffffffffffffffffff1673ffffffffffffffffffffffffffffffffffffffff16815260200190815260200160002060008473ffffffffffffffffffffffffffffffffffffffff1673ffffffffffffffffffffffffffffffffffffffff16815260200190815260200160002060006101000a81548160ff0219169083151502179055508173ffffffffffffffffffffffffffffffffffffffff168373ffffffffffffffffffffffffffffffffffffffff167f17307eab39ab6107e8899845ad3d59bd9653f200f220920489ca2b5937696c3183604051611d1f9190612cec565b60405180910390a3505050565b611d378484846116d8565b611d438484848461207f565b611d82576040517f08c379a0000000000000000000000000000000000000000000000000000000008152600401611d7990612d49565b60405180910390fd5b50505050565b606060078054611d979061324a565b80601f0160208091040260200160405190810160405280929190818152602001828054611dc39061324a565b8015611e105780601f10611de557610100808354040283529160200191611e10565b820191906000526020600020905b815481529060010190602001808311611df357829003601f168201915b5050505050905090565b60606000821415611e62576040518060400160405280600181526020017f30000000000000000000000000000000000000000000000000000000000000008152509050611fc2565b600082905060005b60008214611e94578080611e7d906132ad565b915050600a82611e8d919061312f565b9150611e6a565b60008167ffffffffffffffff811115611ed6577f4e487b7100000000000000000000000000000000000000000000000000000000600052604160045260246000fd5b6040519080825280601f01601f191660200182016040528015611f085781602001600182028036833780820191505090505b5090505b60008514611fbb57600182611f219190613160565b9150600a85611f3091906132f6565b6030611f3c91906130d9565b60f81b818381518110611f78577f4e487b7100000000000000000000000000000000000000000000000000000000600052603260045260246000fd5b60200101907effffffffffffffffffffffffffffffffffffffffffffffffffffffffffffff1916908160001a905350600a85611fb4919061312f565b9450611f0c565b8093505050505b919050565b611fcf610dae565b1561200f576040517f08c379a000000000000000000000000000000000000000000000000000000000815260040161200690612e29565b60405180910390fd5b61201a838383612216565b505050565b505050565b61202e838361221b565b61203b600084848461207f565b61207a576040517f08c379a000000000000000000000000000000000000000000000000000000000815260040161207190612d49565b60405180910390fd5b505050565b60006120a08473ffffffffffffffffffffffffffffffffffffffff166123f5565b15612209578373ffffffffffffffffffffffffffffffffffffffff1663150b7a026120c9611539565b8786866040518563ffffffff1660e01b81526004016120eb9493929190612ca0565b602060405180830381600087803b15801561210557600080fd5b505af192505050801561213657506040513d601f19601f8201168201806040525081019061213391906127c4565b60015b6121b9573d8060008114612166576040519150601f19603f3d011682016040523d82523d6000602084013e61216b565b606091505b506000815114156121b1576040517f08c379a00000000000000000000000000000000000000000000000000000000081526004016121a890612d49565b60405180910390fd5b805181602001fd5b63150b7a0260e01b7bffffffffffffffffffffffffffffffffffffffffffffffffffffffff1916817bffffffffffffffffffffffffffffffffffffffffffffffffffffffff19161491505061220e565b600190505b949350505050565b505050565b600073ffffffffffffffffffffffffffffffffffffffff168273ffffffffffffffffffffffffffffffffffffffff16141561228b576040517f08c379a000000000000000000000000000000000000000000000000000000000815260040161228290612ee9565b60405180910390fd5b612294816114cd565b156122d4576040517f08c379a00000000000000000000000000000000000000000000000000000000081526004016122cb90612d89565b60405180910390fd5b6122e060008383611fc7565b6001600360008473ffffffffffffffffffffffffffffffffffffffff1673ffffffffffffffffffffffffffffffffffffffff168152602001908152602001600020600082825461233091906130d9565b92505081905550816002600083815260200190815260200160002060006101000a81548173ffffffffffffffffffffffffffffffffffffffff021916908373ffffffffffffffffffffffffffffffffffffffff160217905550808273ffffffffffffffffffffffffffffffffffffffff16600073ffffffffffffffffffffffffffffffffffffffff167fddf252ad1be2c89b69c2b068fc378daa952ba7f163c4a11628f55a4df523b3ef60405160405180910390a46123f16000838361201f565b5050565b6000808273ffffffffffffffffffffffffffffffffffffffff163b119050919050565b8280546124249061324a565b90600052602060002090601f016020900481019282612446576000855561248d565b82601f1061245f57805160ff191683800117855561248d565b8280016001018555821561248d579182015b8281111561248c578251825591602001919060010190612471565b5b50905061249a919061249e565b5090565b5b808211156124b757600081600090555060010161249f565b5090565b60006124ce6124c984613029565b613004565b9050828152602081018484840111156124e657600080fd5b6124f1848285613208565b509392505050565b600061250c6125078461305a565b613004565b90508281526020810184848401111561252457600080fd5b61252f848285613208565b509392505050565b60008135905061254681613945565b92915050565b60008135905061255b8161395c565b92915050565b60008135905061257081613973565b92915050565b60008151905061258581613973565b92915050565b600082601f83011261259c57600080fd5b81356125ac8482602086016124bb565b91505092915050565b600082601f8301126125c657600080fd5b81356125d68482602086016124f9565b91505092915050565b6000813590506125ee8161398a565b92915050565b60006020828403121561260657600080fd5b600061261484828501612537565b91505092915050565b6000806040838503121561263057600080fd5b600061263e85828601612537565b925050602061264f85828601612537565b9150509250929050565b60008060006060848603121561266e57600080fd5b600061267c86828701612537565b935050602061268d86828701612537565b925050604061269e868287016125df565b9150509250925092565b600080600080608085870312156126be57600080fd5b60006126cc87828801612537565b94505060206126dd87828801612537565b93505060406126ee878288016125df565b925050606085013567ffffffffffffffff81111561270b57600080fd5b6127178782880161258b565b91505092959194509250565b6000806040838503121561273657600080fd5b600061274485828601612537565b92505060206127558582860161254c565b9150509250929050565b6000806040838503121561277257600080fd5b600061278085828601612537565b9250506020612791858286016125df565b9150509250929050565b6000602082840312156127ad57600080fd5b60006127bb84828501612561565b91505092915050565b6000602082840312156127d657600080fd5b60006127e484828501612576565b91505092915050565b6000602082840312156127ff57600080fd5b600082013567ffffffffffffffff81111561281957600080fd5b612825848285016125b5565b91505092915050565b60006020828403121561284057600080fd5b600061284e848285016125df565b91505092915050565b61286081613194565b82525050565b61286f816131a6565b82525050565b60006128808261308b565b61288a81856130a1565b935061289a818560208601613217565b6128a3816133e3565b840191505092915050565b60006128b982613096565b6128c381856130bd565b93506128d3818560208601613217565b6128dc816133e3565b840191505092915050565b60006128f282613096565b6128fc81856130ce565b935061290c818560208601613217565b80840191505092915050565b60006129256014836130bd565b9150612930826133f4565b602082019050919050565b60006129486032836130bd565b91506129538261341d565b604082019050919050565b600061296b6025836130bd565b91506129768261346c565b604082019050919050565b600061298e601c836130bd565b9150612999826134bb565b602082019050919050565b60006129b1600e836130bd565b91506129bc826134e4565b602082019050919050565b60006129d46024836130bd565b91506129df8261350d565b604082019050919050565b60006129f76019836130bd565b9150612a028261355c565b602082019050919050565b6000612a1a602c836130bd565b9150612a2582613585565b604082019050919050565b6000612a3d6010836130bd565b9150612a48826135d4565b602082019050919050565b6000612a606038836130bd565b9150612a6b826135fd565b604082019050919050565b6000612a83602a836130bd565b9150612a8e8261364c565b604082019050919050565b6000612aa66029836130bd565b9150612ab18261369b565b604082019050919050565b6000612ac9600e836130bd565b9150612ad4826136ea565b602082019050919050565b6000612aec6012836130bd565b9150612af782613713565b602082019050919050565b6000612b0f6020836130bd565b9150612b1a8261373c565b602082019050919050565b6000612b32602c836130bd565b9150612b3d82613765565b604082019050919050565b6000612b55601b836130bd565b9150612b60826137b4565b602082019050919050565b6000612b78600f836130bd565b9150612b83826137dd565b602082019050919050565b6000612b9b602f836130bd565b9150612ba682613806565b604082019050919050565b6000612bbe6021836130bd565b9150612bc982613855565b604082019050919050565b6000612be16000836130b2565b9150612bec826138a4565b600082019050919050565b6000612c046031836130bd565b9150612c0f826138a7565b604082019050919050565b6000612c276030836130bd565b9150612c32826138f6565b604082019050919050565b612c46816131fe565b82525050565b6000612c5882856128e7565b9150612c6482846128e7565b91508190509392505050565b6000612c7b82612bd4565b9150819050919050565b6000602082019050612c9a6000830184612857565b92915050565b6000608082019050612cb56000830187612857565b612cc26020830186612857565b612ccf6040830185612c3d565b8181036060830152612ce18184612875565b905095945050505050565b6000602082019050612d016000830184612866565b92915050565b60006020820190508181036000830152612d2181846128ae565b905092915050565b60006020820190508181036000830152612d4281612918565b9050919050565b60006020820190508181036000830152612d628161293b565b9050919050565b60006020820190508181036000830152612d828161295e565b9050919050565b60006020820190508181036000830152612da281612981565b9050919050565b60006020820190508181036000830152612dc2816129a4565b9050919050565b60006020820190508181036000830152612de2816129c7565b9050919050565b60006020820190508181036000830152612e02816129ea565b9050919050565b60006020820190508181036000830152612e2281612a0d565b9050919050565b60006020820190508181036000830152612e4281612a30565b9050919050565b60006020820190508181036000830152612e6281612a53565b9050919050565b60006020820190508181036000830152612e8281612a76565b9050919050565b60006020820190508181036000830152612ea281612a99565b9050919050565b60006020820190508181036000830152612ec281612abc565b9050919050565b60006020820190508181036000830152612ee281612adf565b9050919050565b60006020820190508181036000830152612f0281612b02565b9050919050565b60006020820190508181036000830152612f2281612b25565b9050919050565b60006020820190508181036000830152612f4281612b48565b9050919050565b60006020820190508181036000830152612f6281612b6b565b9050919050565b60006020820190508181036000830152612f8281612b8e565b9050919050565b60006020820190508181036000830152612fa281612bb1565b9050919050565b60006020820190508181036000830152612fc281612bf7565b9050919050565b60006020820190508181036000830152612fe281612c1a565b9050919050565b6000602082019050612ffe6000830184612c3d565b92915050565b600061300e61301f565b905061301a828261327c565b919050565b6000604051905090565b600067ffffffffffffffff821115613044576130436133b4565b5b61304d826133e3565b9050602081019050919050565b600067ffffffffffffffff821115613075576130746133b4565b5b61307e826133e3565b9050602081019050919050565b600081519050919050565b600081519050919050565b600082825260208201905092915050565b600081905092915050565b600082825260208201905092915050565b600081905092915050565b60006130e4826131fe565b91506130ef836131fe565b9250827fffffffffffffffffffffffffffffffffffffffffffffffffffffffffffffffff0382111561312457613123613327565b5b828201905092915050565b600061313a826131fe565b9150613145836131fe565b92508261315557613154613356565b5b828204905092915050565b600061316b826131fe565b9150613176836131fe565b92508282101561318957613188613327565b5b828203905092915050565b600061319f826131de565b9050919050565b60008115159050919050565b60007fffffffff0000000000000000000000000000000000000000000000000000000082169050919050565b600073ffffffffffffffffffffffffffffffffffffffff82169050919050565b6000819050919050565b82818337600083830152505050565b60005b8381101561323557808201518184015260208101905061321a565b83811115613244576000848401525b50505050565b6000600282049050600182168061326257607f821691505b6020821081141561327657613275613385565b5b50919050565b613285826133e3565b810181811067ffffffffffffffff821117156132a4576132a36133b4565b5b80604052505050565b60006132b8826131fe565b91507fffffffffffffffffffffffffffffffffffffffffffffffffffffffffffffffff8214156132eb576132ea613327565b5b600182019050919050565b6000613301826131fe565b915061330c836131fe565b92508261331c5761331b613356565b5b828206905092915050565b7f4e487b7100000000000000000000000000000000000000000000000000000000600052601160045260246000fd5b7f4e487b7100000000000000000000000000000000000000000000000000000000600052601260045260246000fd5b7f4e487b7100000000000000000000000000000000000000000000000000000000600052602260045260246000fd5b7f4e487b7100000000000000000000000000000000000000000000000000000000600052604160045260246000fd5b6000601f19601f8301169050919050565b7f5061757361626c653a206e6f7420706175736564000000000000000000000000600082015250565b7f4552433732313a207472616e7366657220746f206e6f6e20455243373231526560008201527f63656976657220696d706c656d656e7465720000000000000000000000000000602082015250565b7f4552433732313a207472616e736665722066726f6d20696e636f72726563742060008201527f6f776e6572000000000000000000000000000000000000000000000000000000602082015250565b7f4552433732313a20746f6b656e20616c7265616479206d696e74656400000000600082015250565b7f77726f6e67206261736520757269000000000000000000000000000000000000600082015250565b7f4552433732313a207472616e7366657220746f20746865207a65726f2061646460008201527f7265737300000000000000000000000000000000000000000000000000000000602082015250565b7f4552433732313a20617070726f766520746f2063616c6c657200000000000000600082015250565b7f4552433732313a206f70657261746f7220717565727920666f72206e6f6e657860008201527f697374656e7420746f6b656e0000000000000000000000000000000000000000602082015250565b7f5061757361626c653a2070617573656400000000000000000000000000000000600082015250565b7f4552433732313a20617070726f76652063616c6c6572206973206e6f74206f7760008201527f6e6572206e6f7220617070726f76656420666f7220616c6c0000000000000000602082015250565b7f4552433732313a2062616c616e636520717565727920666f7220746865207a6560008201527f726f206164647265737300000000000000000000000000000000000000000000602082015250565b7f4552433732313a206f776e657220717565727920666f72206e6f6e657869737460008201527f656e7420746f6b656e0000000000000000000000000000000000000000000000602082015250565b7f55736572204e6f742061646d696e000000000000000000000000000000000000600082015250565b7f41646472657373206e6f74204d696e7465720000000000000000000000000000600082015250565b7f4552433732313a206d696e7420746f20746865207a65726f2061646472657373600082015250565b7f4552433732313a20617070726f76656420717565727920666f72206e6f6e657860008201527f697374656e7420746f6b656e0000000000000000000000000000000000000000602082015250565b7f4d696e74657220526f6c6520416c7265616479204772616e7465640000000000600082015250565b7f55736572204e6f74204d696e7465720000000000000000000000000000000000600082015250565b7f4552433732314d657461646174613a2055524920717565727920666f72206e6f60008201527f6e6578697374656e7420746f6b656e0000000000000000000000000000000000602082015250565b7f4552433732313a20617070726f76616c20746f2063757272656e74206f776e6560008201527f7200000000000000000000000000000000000000000000000000000000000000602082015250565b50565b7f4552433732313a207472616e736665722063616c6c6572206973206e6f74206f60008201527f776e6572206e6f7220617070726f766564000000000000000000000000000000602082015250565b7f4552433732314275726e61626c653a2063616c6c6572206973206e6f74206f7760008201527f6e6572206e6f7220617070726f76656400000000000000000000000000000000602082015250565b61394e81613194565b811461395957600080fd5b50565b613965816131a6565b811461397057600080fd5b50565b61397c816131b2565b811461398757600080fd5b50565b613993816131fe565b811461399e57600080fd5b5056fea2646970667358221220899e620a5cfd8879c176fbb9df8234f74081a36f34b79383a24ce8133be842b264736f6c63430008040033",
  "linkReferences": {},
  "deployedLinkReferences": {}
}