{
  "_format": "hh-sol-artifact-1",
  "contractName": "TesseractMinter_v1",
  "sourceName": "contracts/TesseractMinter_v1.sol",
  "abi": [
    {
      "inputs": [
        {
          "internalType": "address",
          "name": "nft_contract_address",
          "type": "address"
        },
        {
          "internalType": "address",
          "name": "local_multisig_adddress",
          "type": "address"
        }
      ],
      "stateMutability": "nonpayable",
      "type": "constructor"
    },
    {
      "inputs": [
        {
          "internalType": "address",
          "name": "",
          "type": "address"
        }
      ],
      "name": "TesseractCount",
      "outputs": [
        {
          "internalType": "uint256",
          "name": "",
          "type": "uint256"
        }
      ],
      "stateMutability": "view",
      "type": "function"
    },
    {
      "inputs": [],
      "name": "current_token_count",
      "outputs": [
        {
          "internalType": "uint256",
          "name": "",
          "type": "uint256"
        }
      ],
      "stateMutability": "view",
      "type": "function"
    },
    {
      "inputs": [],
      "name": "maxUserMints",
      "outputs": [
        {
          "internalType": "uint256",
          "name": "",
          "type": "uint256"
        }
      ],
      "stateMutability": "view",
      "type": "function"
    },
    {
      "inputs": [],
      "name": "mintCost",
      "outputs": [
        {
          "internalType": "uint256",
          "name": "",
          "type": "uint256"
        }
      ],
      "stateMutability": "view",
      "type": "function"
    },
    {
      "inputs": [
        {
          "internalType": "uint256",
          "name": "numberOfTokens",
          "type": "uint256"
        }
      ],
      "name": "mintTesseract",
      "outputs": [],
      "stateMutability": "payable",
      "type": "function"
    },
    {
      "inputs": [],
      "name": "multisig_address",
      "outputs": [
        {
          "internalType": "address payable",
          "name": "",
          "type": "address"
        }
      ],
      "stateMutability": "view",
      "type": "function"
    },
    {
      "inputs": [],
      "name": "owner",
      "outputs": [
        {
          "internalType": "address",
          "name": "",
          "type": "address"
        }
      ],
      "stateMutability": "view",
      "type": "function"
    },
    {
      "inputs": [],
      "name": "pause",
      "outputs": [],
      "stateMutability": "nonpayable",
      "type": "function"
    },
    {
      "inputs": [],
      "name": "saleIsActive",
      "outputs": [
        {
          "internalType": "bool",
          "name": "",
          "type": "bool"
        }
      ],
      "stateMutability": "view",
      "type": "function"
    },
    {
      "inputs": [
        {
          "internalType": "uint256",
          "name": "newMax",
          "type": "uint256"
        }
      ],
      "name": "setMaxUserMints",
      "outputs": [],
      "stateMutability": "nonpayable",
      "type": "function"
    },
    {
      "inputs": [
        {
          "internalType": "uint256",
          "name": "newCostinIoTEX",
          "type": "uint256"
        }
      ],
      "name": "setMintCost",
      "outputs": [],
      "stateMutability": "nonpayable",
      "type": "function"
    },
    {
      "inputs": [
        {
          "internalType": "address",
          "name": "new_multisig_address",
          "type": "address"
        }
      ],
      "name": "setMultisigAddress",
      "outputs": [],
      "stateMutability": "nonpayable",
      "type": "function"
    },
    {
      "inputs": [
        {
          "internalType": "address",
          "name": "new_NFTcontract_address",
          "type": "address"
        }
      ],
      "name": "setNFTCOntractAddress",
      "outputs": [],
      "stateMutability": "nonpayable",
      "type": "function"
    },
    {
      "inputs": [
        {
          "internalType": "uint256",
          "name": "newTotal",
          "type": "uint256"
        }
      ],
      "name": "setTotalMints",
      "outputs": [],
      "stateMutability": "nonpayable",
      "type": "function"
    },
    {
      "inputs": [],
      "name": "totalMints",
      "outputs": [
        {
          "internalType": "uint256",
          "name": "",
          "type": "uint256"
        }
      ],
      "stateMutability": "view",
      "type": "function"
    },
    {
      "inputs": [],
      "name": "unpause",
      "outputs": [],
      "stateMutability": "nonpayable",
      "type": "function"
    },
    {
      "inputs": [],
      "name": "withdraw",
      "outputs": [],
      "stateMutability": "payable",
      "type": "function"
    }
  ],
  "bytecode": "0x6080604052683635c9adc5dea0000060005560c860015561271060025560006003556000600460146101000a81548160ff0219169083151502179055503480156200004957600080fd5b50604051620014ba380380620014ba83398181016040528101906200006f919062000151565b81600560006101000a81548173ffffffffffffffffffffffffffffffffffffffff021916908373ffffffffffffffffffffffffffffffffffffffff16021790555033600460006101000a81548173ffffffffffffffffffffffffffffffffffffffff021916908373ffffffffffffffffffffffffffffffffffffffff16021790555080600660006101000a81548173ffffffffffffffffffffffffffffffffffffffff021916908373ffffffffffffffffffffffffffffffffffffffff1602179055505050620001e0565b6000815190506200014b81620001c6565b92915050565b600080604083850312156200016557600080fd5b600062000175858286016200013a565b925050602062000188858286016200013a565b9150509250929050565b60006200019f82620001a6565b9050919050565b600073ffffffffffffffffffffffffffffffffffffffff82169050919050565b620001d18162000192565b8114620001dd57600080fd5b50565b6112ca80620001f06000396000f3fe6080604052600436106100fe5760003560e01c80635c8f6af111610095578063ab4a2baa11610064578063ab4a2baa146102a7578063b6727f8c146102d0578063bdb4b8481461030d578063c25ad82514610338578063eb8d244414610363576100fe565b80635c8f6af1146102135780638456cb591461023c5780638545f4ea146102535780638da5cb5b1461027c576100fe565b806329b7249c116100d157806329b7249c146101ab5780633ccfd60b146101c75780633d57698e146101d15780633f4ba83a146101fc576100fe565b8063055405341461010357806308adf7b71461012c57806318ce8b63146101555780631f21bfbf14610180575b600080fd5b34801561010f57600080fd5b5061012a60048036038101906101259190610d02565b61038e565b005b34801561013857600080fd5b50610153600480360381019061014e9190610d2b565b610462565b005b34801561016157600080fd5b5061016a6104fc565b6040516101779190610f91565b60405180910390f35b34801561018c57600080fd5b50610195610502565b6040516101a29190610f91565b60405180910390f35b6101c560048036038101906101c09190610d2b565b610508565b005b6101cf6107b5565b005b3480156101dd57600080fd5b506101e66108e0565b6040516101f39190610e92565b60405180910390f35b34801561020857600080fd5b50610211610906565b005b34801561021f57600080fd5b5061023a60048036038101906102359190610d02565b6109b3565b005b34801561024857600080fd5b50610251610a87565b005b34801561025f57600080fd5b5061027a60048036038101906102759190610d2b565b610b34565b005b34801561028857600080fd5b50610291610be1565b60405161029e9190610e77565b60405180910390f35b3480156102b357600080fd5b506102ce60048036038101906102c99190610d2b565b610c07565b005b3480156102dc57600080fd5b506102f760048036038101906102f29190610d02565b610ca1565b6040516103049190610f91565b60405180910390f35b34801561031957600080fd5b50610322610cb9565b60405161032f9190610f91565b60405180910390f35b34801561034457600080fd5b5061034d610cbf565b60405161035a9190610f91565b60405180910390f35b34801561036f57600080fd5b50610378610cc5565b6040516103859190610ed6565b60405180910390f35b600460009054906101000a900473ffffffffffffffffffffffffffffffffffffffff1673ffffffffffffffffffffffffffffffffffffffff163373ffffffffffffffffffffffffffffffffffffffff161461041e576040517f08c379a000000000000000000000000000000000000000000000000000000000815260040161041590610f31565b60405180910390fd5b80600660006101000a81548173ffffffffffffffffffffffffffffffffffffffff021916908373ffffffffffffffffffffffffffffffffffffffff16021790555050565b600460009054906101000a900473ffffffffffffffffffffffffffffffffffffffff1673ffffffffffffffffffffffffffffffffffffffff163373ffffffffffffffffffffffffffffffffffffffff16146104f2576040517f08c379a00000000000000000000000000000000000000000000000000000000081526004016104e990610f31565b60405180910390fd5b8060018190555050565b60035481565b60025481565b600460149054906101000a900460ff16610557576040517f08c379a000000000000000000000000000000000000000000000000000000000815260040161054e90610ef1565b60405180910390fd5b60015481111561059c576040517f08c379a000000000000000000000000000000000000000000000000000000000815260040161059390610f51565b60405180910390fd5b600254816003546105ad9190610fc8565b11156105ee576040517f08c379a00000000000000000000000000000000000000000000000000000000081526004016105e590610f71565b60405180910390fd5b34816000546105fd919061101e565b111561063e576040517f08c379a000000000000000000000000000000000000000000000000000000000815260040161063590610f11565b60405180910390fd5b60005b818110156107b1576000600354610bb861065b9190610fc8565b9050600254600354101561079d57600560009054906101000a900473ffffffffffffffffffffffffffffffffffffffff1673ffffffffffffffffffffffffffffffffffffffff1663a144819433836040518363ffffffff1660e01b81526004016106c6929190610ead565b600060405180830381600087803b1580156106e057600080fd5b505af11580156106f4573d6000803e3d6000fd5b5050505060016003546107079190610fc8565b6003819055506001600760003373ffffffffffffffffffffffffffffffffffffffff1673ffffffffffffffffffffffffffffffffffffffff168152602001908152602001600020546107599190610fc8565b600760003373ffffffffffffffffffffffffffffffffffffffff1673ffffffffffffffffffffffffffffffffffffffff168152602001908152602001600020819055505b5080806107a9906110d2565b915050610641565b5050565b600460009054906101000a900473ffffffffffffffffffffffffffffffffffffffff1673ffffffffffffffffffffffffffffffffffffffff163373ffffffffffffffffffffffffffffffffffffffff1614610845576040517f08c379a000000000000000000000000000000000000000000000000000000000815260040161083c90610f31565b60405180910390fd5b6000600660009054906101000a900473ffffffffffffffffffffffffffffffffffffffff1673ffffffffffffffffffffffffffffffffffffffff164760405161088d90610e62565b60006040518083038185875af1925050503d80600081146108ca576040519150601f19603f3d011682016040523d82523d6000602084013e6108cf565b606091505b50509050806108dd57600080fd5b50565b600660009054906101000a900473ffffffffffffffffffffffffffffffffffffffff1681565b600460009054906101000a900473ffffffffffffffffffffffffffffffffffffffff1673ffffffffffffffffffffffffffffffffffffffff163373ffffffffffffffffffffffffffffffffffffffff1614610996576040517f08c379a000000000000000000000000000000000000000000000000000000000815260040161098d90610f31565b60405180910390fd5b6001600460146101000a81548160ff021916908315150217905550565b600460009054906101000a900473ffffffffffffffffffffffffffffffffffffffff1673ffffffffffffffffffffffffffffffffffffffff163373ffffffffffffffffffffffffffffffffffffffff1614610a43576040517f08c379a0000000000000000000000000000000000000000000000000000000008152600401610a3a90610f31565b60405180910390fd5b80600560006101000a81548173ffffffffffffffffffffffffffffffffffffffff021916908373ffffffffffffffffffffffffffffffffffffffff16021790555050565b600460009054906101000a900473ffffffffffffffffffffffffffffffffffffffff1673ffffffffffffffffffffffffffffffffffffffff163373ffffffffffffffffffffffffffffffffffffffff1614610b17576040517f08c379a0000000000000000000000000000000000000000000000000000000008152600401610b0e90610f31565b60405180910390fd5b6000600460146101000a81548160ff021916908315150217905550565b600460009054906101000a900473ffffffffffffffffffffffffffffffffffffffff1673ffffffffffffffffffffffffffffffffffffffff163373ffffffffffffffffffffffffffffffffffffffff1614610bc4576040517f08c379a0000000000000000000000000000000000000000000000000000000008152600401610bbb90610f31565b60405180910390fd5b670de0b6b3a764000081610bd8919061101e565b60008190555050565b600460009054906101000a900473ffffffffffffffffffffffffffffffffffffffff1681565b600460009054906101000a900473ffffffffffffffffffffffffffffffffffffffff1673ffffffffffffffffffffffffffffffffffffffff163373ffffffffffffffffffffffffffffffffffffffff1614610c97576040517f08c379a0000000000000000000000000000000000000000000000000000000008152600401610c8e90610f31565b60405180910390fd5b8060028190555050565b60076020528060005260406000206000915090505481565b60005481565b60015481565b600460149054906101000a900460ff1681565b600081359050610ce781611266565b92915050565b600081359050610cfc8161127d565b92915050565b600060208284031215610d1457600080fd5b6000610d2284828501610cd8565b91505092915050565b600060208284031215610d3d57600080fd5b6000610d4b84828501610ced565b91505092915050565b610d5d8161108a565b82525050565b610d6c81611078565b82525050565b610d7b8161109c565b82525050565b6000610d8e601283610fb7565b9150610d998261114a565b602082019050919050565b6000610db1601f83610fb7565b9150610dbc82611173565b602082019050919050565b6000610dd4600983610fb7565b9150610ddf8261119c565b602082019050919050565b6000610df7602183610fb7565b9150610e02826111c5565b604082019050919050565b6000610e1a602883610fb7565b9150610e2582611214565b604082019050919050565b6000610e3d600083610fac565b9150610e4882611263565b600082019050919050565b610e5c816110c8565b82525050565b6000610e6d82610e30565b9150819050919050565b6000602082019050610e8c6000830184610d63565b92915050565b6000602082019050610ea76000830184610d54565b92915050565b6000604082019050610ec26000830185610d63565b610ecf6020830184610e53565b9392505050565b6000602082019050610eeb6000830184610d72565b92915050565b60006020820190508181036000830152610f0a81610d81565b9050919050565b60006020820190508181036000830152610f2a81610da4565b9050919050565b60006020820190508181036000830152610f4a81610dc7565b9050919050565b60006020820190508181036000830152610f6a81610dea565b9050919050565b60006020820190508181036000830152610f8a81610e0d565b9050919050565b6000602082019050610fa66000830184610e53565b92915050565b600081905092915050565b600082825260208201905092915050565b6000610fd3826110c8565b9150610fde836110c8565b9250827fffffffffffffffffffffffffffffffffffffffffffffffffffffffffffffffff038211156110135761101261111b565b5b828201905092915050565b6000611029826110c8565b9150611034836110c8565b9250817fffffffffffffffffffffffffffffffffffffffffffffffffffffffffffffffff048311821515161561106d5761106c61111b565b5b828202905092915050565b6000611083826110a8565b9050919050565b6000611095826110a8565b9050919050565b60008115159050919050565b600073ffffffffffffffffffffffffffffffffffffffff82169050919050565b6000819050919050565b60006110dd826110c8565b91507fffffffffffffffffffffffffffffffffffffffffffffffffffffffffffffffff8214156111105761110f61111b565b5b600182019050919050565b7f4e487b7100000000000000000000000000000000000000000000000000000000600052601160045260246000fd5b7f53616c65206973204e6f74204163746976650000000000000000000000000000600082015250565b7f45746865722076616c75652073656e74206973206e6f7420636f727265637400600082015250565b7f4e6f74204f776e65720000000000000000000000000000000000000000000000600082015250565b7f43616e206f6e6c79206d696e7420323020746f6b656e7320617420612074696d60008201527f6500000000000000000000000000000000000000000000000000000000000000602082015250565b7f507572636861736520776f756c6420657863656564206d617820737570706c7960008201527f206f662041706573000000000000000000000000000000000000000000000000602082015250565b50565b61126f81611078565b811461127a57600080fd5b50565b611286816110c8565b811461129157600080fd5b5056fea2646970667358221220912cf7c388263095c0c5edb19037a1a866a259b93cc42513089da6347494e0ec64736f6c63430008040033",
  "linkReferences": {},
  "deployedLinkReferences": {}
}