{
  "_format": "hh-sol-artifact-1",
  "contractName": "TesseractMinter_v1",
  "sourceName": "contracts/TesseractMinter_v1.sol",
  "abi": [
    {
      "inputs": [
        {
          "internalType": "address",
          "name": "nft_contract_address",
          "type": "address"
        },
        {
          "internalType": "address",
          "name": "local_multisig_adddress",
          "type": "address"
        }
      ],
      "stateMutability": "nonpayable",
      "type": "constructor"
    },
    {
      "inputs": [
        {
          "internalType": "address",
          "name": "",
          "type": "address"
        }
      ],
      "name": "TesseractCount",
      "outputs": [
        {
          "internalType": "uint256",
          "name": "",
          "type": "uint256"
        }
      ],
      "stateMutability": "view",
      "type": "function"
    },
    {
      "inputs": [],
      "name": "current_token_count",
      "outputs": [
        {
          "internalType": "uint256",
          "name": "",
          "type": "uint256"
        }
      ],
      "stateMutability": "view",
      "type": "function"
    },
    {
      "inputs": [],
      "name": "maxUserMints",
      "outputs": [
        {
          "internalType": "uint256",
          "name": "",
          "type": "uint256"
        }
      ],
      "stateMutability": "view",
      "type": "function"
    },
    {
      "inputs": [],
      "name": "mintCost",
      "outputs": [
        {
          "internalType": "uint256",
          "name": "",
          "type": "uint256"
        }
      ],
      "stateMutability": "view",
      "type": "function"
    },
    {
      "inputs": [
        {
          "internalType": "uint256",
          "name": "numberOfTokens",
          "type": "uint256"
        }
      ],
      "name": "mintTesseract",
      "outputs": [],
      "stateMutability": "payable",
      "type": "function"
    },
    {
      "inputs": [],
      "name": "multisig_address",
      "outputs": [
        {
          "internalType": "address payable",
          "name": "",
          "type": "address"
        }
      ],
      "stateMutability": "view",
      "type": "function"
    },
    {
      "inputs": [],
      "name": "owner",
      "outputs": [
        {
          "internalType": "address",
          "name": "",
          "type": "address"
        }
      ],
      "stateMutability": "view",
      "type": "function"
    },
    {
      "inputs": [],
      "name": "pause",
      "outputs": [],
      "stateMutability": "nonpayable",
      "type": "function"
    },
    {
      "inputs": [],
      "name": "saleIsActive",
      "outputs": [
        {
          "internalType": "bool",
          "name": "",
          "type": "bool"
        }
      ],
      "stateMutability": "view",
      "type": "function"
    },
    {
      "inputs": [
        {
          "internalType": "uint256",
          "name": "newMax",
          "type": "uint256"
        }
      ],
      "name": "setMaxUserMints",
      "outputs": [],
      "stateMutability": "nonpayable",
      "type": "function"
    },
    {
      "inputs": [
        {
          "internalType": "uint256",
          "name": "newCostinIoTEX",
          "type": "uint256"
        }
      ],
      "name": "setMintCost",
      "outputs": [],
      "stateMutability": "nonpayable",
      "type": "function"
    },
    {
      "inputs": [
        {
          "internalType": "address",
          "name": "new_multisig_address",
          "type": "address"
        }
      ],
      "name": "setMultisigAddress",
      "outputs": [],
      "stateMutability": "nonpayable",
      "type": "function"
    },
    {
      "inputs": [
        {
          "internalType": "address",
          "name": "new_NFTcontract_address",
          "type": "address"
        }
      ],
      "name": "setNFTCOntractAddress",
      "outputs": [],
      "stateMutability": "nonpayable",
      "type": "function"
    },
    {
      "inputs": [
        {
          "internalType": "uint256",
          "name": "newTotal",
          "type": "uint256"
        }
      ],
      "name": "setTotalMints",
      "outputs": [],
      "stateMutability": "nonpayable",
      "type": "function"
    },
    {
      "inputs": [],
      "name": "totalMints",
      "outputs": [
        {
          "internalType": "uint256",
          "name": "",
          "type": "uint256"
        }
      ],
      "stateMutability": "view",
      "type": "function"
    },
    {
      "inputs": [],
      "name": "unpause",
      "outputs": [],
      "stateMutability": "nonpayable",
      "type": "function"
    },
    {
      "inputs": [],
      "name": "withdraw",
      "outputs": [],
      "stateMutability": "payable",
      "type": "function"
    }
  ],
  "bytecode": "0x608060405268410d586a20a4c0000060005560c860015561271060025560006003556000600460146101000a81548160ff0219169083151502179055503480156200004957600080fd5b50604051620015b4380380620015b483398181016040528101906200006f919062000151565b81600560006101000a81548173ffffffffffffffffffffffffffffffffffffffff021916908373ffffffffffffffffffffffffffffffffffffffff16021790555033600460006101000a81548173ffffffffffffffffffffffffffffffffffffffff021916908373ffffffffffffffffffffffffffffffffffffffff16021790555080600660006101000a81548173ffffffffffffffffffffffffffffffffffffffff021916908373ffffffffffffffffffffffffffffffffffffffff1602179055505050620001e0565b6000815190506200014b81620001c6565b92915050565b600080604083850312156200016557600080fd5b600062000175858286016200013a565b925050602062000188858286016200013a565b9150509250929050565b60006200019f82620001a6565b9050919050565b600073ffffffffffffffffffffffffffffffffffffffff82169050919050565b620001d18162000192565b8114620001dd57600080fd5b50565b6113c480620001f06000396000f3fe6080604052600436106100fe5760003560e01c80635c8f6af111610095578063ab4a2baa11610064578063ab4a2baa146102a7578063b6727f8c146102d0578063bdb4b8481461030d578063c25ad82514610338578063eb8d244414610363576100fe565b80635c8f6af1146102135780638456cb591461023c5780638545f4ea146102535780638da5cb5b1461027c576100fe565b806329b7249c116100d157806329b7249c146101ab5780633ccfd60b146101c75780633d57698e146101d15780633f4ba83a146101fc576100fe565b8063055405341461010357806308adf7b71461012c57806318ce8b63146101555780631f21bfbf14610180575b600080fd5b34801561010f57600080fd5b5061012a60048036038101906101259190610d90565b61038e565b005b34801561013857600080fd5b50610153600480360381019061014e9190610db9565b610462565b005b34801561016157600080fd5b5061016a6104fc565b6040516101779190611062565b60405180910390f35b34801561018c57600080fd5b50610195610502565b6040516101a29190611062565b60405180910390f35b6101c560048036038101906101c09190610db9565b610508565b005b6101cf610843565b005b3480156101dd57600080fd5b506101e661096e565b6040516101f39190610f43565b60405180910390f35b34801561020857600080fd5b50610211610994565b005b34801561021f57600080fd5b5061023a60048036038101906102359190610d90565b610a41565b005b34801561024857600080fd5b50610251610b15565b005b34801561025f57600080fd5b5061027a60048036038101906102759190610db9565b610bc2565b005b34801561028857600080fd5b50610291610c6f565b60405161029e9190610f28565b60405180910390f35b3480156102b357600080fd5b506102ce60048036038101906102c99190610db9565b610c95565b005b3480156102dc57600080fd5b506102f760048036038101906102f29190610d90565b610d2f565b6040516103049190611062565b60405180910390f35b34801561031957600080fd5b50610322610d47565b60405161032f9190611062565b60405180910390f35b34801561034457600080fd5b5061034d610d4d565b60405161035a9190611062565b60405180910390f35b34801561036f57600080fd5b50610378610d53565b6040516103859190610f87565b60405180910390f35b600460009054906101000a900473ffffffffffffffffffffffffffffffffffffffff1673ffffffffffffffffffffffffffffffffffffffff163373ffffffffffffffffffffffffffffffffffffffff161461041e576040517f08c379a000000000000000000000000000000000000000000000000000000000815260040161041590610fe2565b60405180910390fd5b80600660006101000a81548173ffffffffffffffffffffffffffffffffffffffff021916908373ffffffffffffffffffffffffffffffffffffffff16021790555050565b600460009054906101000a900473ffffffffffffffffffffffffffffffffffffffff1673ffffffffffffffffffffffffffffffffffffffff163373ffffffffffffffffffffffffffffffffffffffff16146104f2576040517f08c379a00000000000000000000000000000000000000000000000000000000081526004016104e990610fe2565b60405180910390fd5b8060018190555050565b60035481565b60025481565b600460149054906101000a900460ff16610557576040517f08c379a000000000000000000000000000000000000000000000000000000000815260040161054e90610fa2565b60405180910390fd5b60015481111561059c576040517f08c379a000000000000000000000000000000000000000000000000000000000815260040161059390611002565b60405180910390fd5b601481600760003373ffffffffffffffffffffffffffffffffffffffff1673ffffffffffffffffffffffffffffffffffffffff168152602001908152602001600020546105e99190611099565b111561062a576040517f08c379a000000000000000000000000000000000000000000000000000000000815260040161062190611042565b60405180910390fd5b6002548160035461063b9190611099565b111561067c576040517f08c379a000000000000000000000000000000000000000000000000000000000815260040161067390611022565b60405180910390fd5b348160005461068b91906110ef565b11156106cc576040517f08c379a00000000000000000000000000000000000000000000000000000000081526004016106c390610fc2565b60405180910390fd5b60005b8181101561083f576000600354610bb86106e99190611099565b9050600254600354101561082b57600560009054906101000a900473ffffffffffffffffffffffffffffffffffffffff1673ffffffffffffffffffffffffffffffffffffffff1663a144819433836040518363ffffffff1660e01b8152600401610754929190610f5e565b600060405180830381600087803b15801561076e57600080fd5b505af1158015610782573d6000803e3d6000fd5b5050505060016003546107959190611099565b6003819055506001600760003373ffffffffffffffffffffffffffffffffffffffff1673ffffffffffffffffffffffffffffffffffffffff168152602001908152602001600020546107e79190611099565b600760003373ffffffffffffffffffffffffffffffffffffffff1673ffffffffffffffffffffffffffffffffffffffff168152602001908152602001600020819055505b508080610837906111a3565b9150506106cf565b5050565b600460009054906101000a900473ffffffffffffffffffffffffffffffffffffffff1673ffffffffffffffffffffffffffffffffffffffff163373ffffffffffffffffffffffffffffffffffffffff16146108d3576040517f08c379a00000000000000000000000000000000000000000000000000000000081526004016108ca90610fe2565b60405180910390fd5b6000600660009054906101000a900473ffffffffffffffffffffffffffffffffffffffff1673ffffffffffffffffffffffffffffffffffffffff164760405161091b90610f13565b60006040518083038185875af1925050503d8060008114610958576040519150601f19603f3d011682016040523d82523d6000602084013e61095d565b606091505b505090508061096b57600080fd5b50565b600660009054906101000a900473ffffffffffffffffffffffffffffffffffffffff1681565b600460009054906101000a900473ffffffffffffffffffffffffffffffffffffffff1673ffffffffffffffffffffffffffffffffffffffff163373ffffffffffffffffffffffffffffffffffffffff1614610a24576040517f08c379a0000000000000000000000000000000000000000000000000000000008152600401610a1b90610fe2565b60405180910390fd5b6001600460146101000a81548160ff021916908315150217905550565b600460009054906101000a900473ffffffffffffffffffffffffffffffffffffffff1673ffffffffffffffffffffffffffffffffffffffff163373ffffffffffffffffffffffffffffffffffffffff1614610ad1576040517f08c379a0000000000000000000000000000000000000000000000000000000008152600401610ac890610fe2565b60405180910390fd5b80600560006101000a81548173ffffffffffffffffffffffffffffffffffffffff021916908373ffffffffffffffffffffffffffffffffffffffff16021790555050565b600460009054906101000a900473ffffffffffffffffffffffffffffffffffffffff1673ffffffffffffffffffffffffffffffffffffffff163373ffffffffffffffffffffffffffffffffffffffff1614610ba5576040517f08c379a0000000000000000000000000000000000000000000000000000000008152600401610b9c90610fe2565b60405180910390fd5b6000600460146101000a81548160ff021916908315150217905550565b600460009054906101000a900473ffffffffffffffffffffffffffffffffffffffff1673ffffffffffffffffffffffffffffffffffffffff163373ffffffffffffffffffffffffffffffffffffffff1614610c52576040517f08c379a0000000000000000000000000000000000000000000000000000000008152600401610c4990610fe2565b60405180910390fd5b670de0b6b3a764000081610c6691906110ef565b60008190555050565b600460009054906101000a900473ffffffffffffffffffffffffffffffffffffffff1681565b600460009054906101000a900473ffffffffffffffffffffffffffffffffffffffff1673ffffffffffffffffffffffffffffffffffffffff163373ffffffffffffffffffffffffffffffffffffffff1614610d25576040517f08c379a0000000000000000000000000000000000000000000000000000000008152600401610d1c90610fe2565b60405180910390fd5b8060028190555050565b60076020528060005260406000206000915090505481565b60005481565b60015481565b600460149054906101000a900460ff1681565b600081359050610d7581611360565b92915050565b600081359050610d8a81611377565b92915050565b600060208284031215610da257600080fd5b6000610db084828501610d66565b91505092915050565b600060208284031215610dcb57600080fd5b6000610dd984828501610d7b565b91505092915050565b610deb8161115b565b82525050565b610dfa81611149565b82525050565b610e098161116d565b82525050565b6000610e1c601283611088565b9150610e278261121b565b602082019050919050565b6000610e3f601f83611088565b9150610e4a82611244565b602082019050919050565b6000610e62600983611088565b9150610e6d8261126d565b602082019050919050565b6000610e85602183611088565b9150610e9082611296565b604082019050919050565b6000610ea8602883611088565b9150610eb3826112e5565b604082019050919050565b6000610ecb60008361107d565b9150610ed682611334565b600082019050919050565b6000610eee601c83611088565b9150610ef982611337565b602082019050919050565b610f0d81611199565b82525050565b6000610f1e82610ebe565b9150819050919050565b6000602082019050610f3d6000830184610df1565b92915050565b6000602082019050610f586000830184610de2565b92915050565b6000604082019050610f736000830185610df1565b610f806020830184610f04565b9392505050565b6000602082019050610f9c6000830184610e00565b92915050565b60006020820190508181036000830152610fbb81610e0f565b9050919050565b60006020820190508181036000830152610fdb81610e32565b9050919050565b60006020820190508181036000830152610ffb81610e55565b9050919050565b6000602082019050818103600083015261101b81610e78565b9050919050565b6000602082019050818103600083015261103b81610e9b565b9050919050565b6000602082019050818103600083015261105b81610ee1565b9050919050565b60006020820190506110776000830184610f04565b92915050565b600081905092915050565b600082825260208201905092915050565b60006110a482611199565b91506110af83611199565b9250827fffffffffffffffffffffffffffffffffffffffffffffffffffffffffffffffff038211156110e4576110e36111ec565b5b828201905092915050565b60006110fa82611199565b915061110583611199565b9250817fffffffffffffffffffffffffffffffffffffffffffffffffffffffffffffffff048311821515161561113e5761113d6111ec565b5b828202905092915050565b600061115482611179565b9050919050565b600061116682611179565b9050919050565b60008115159050919050565b600073ffffffffffffffffffffffffffffffffffffffff82169050919050565b6000819050919050565b60006111ae82611199565b91507fffffffffffffffffffffffffffffffffffffffffffffffffffffffffffffffff8214156111e1576111e06111ec565b5b600182019050919050565b7f4e487b7100000000000000000000000000000000000000000000000000000000600052601160045260246000fd5b7f53616c65206973204e6f74204163746976650000000000000000000000000000600082015250565b7f45746865722076616c75652073656e74206973206e6f7420636f727265637400600082015250565b7f4e6f74204f776e65720000000000000000000000000000000000000000000000600082015250565b7f43616e206f6e6c79206d696e7420323020746f6b656e7320617420612074696d60008201527f6500000000000000000000000000000000000000000000000000000000000000602082015250565b7f507572636861736520776f756c6420657863656564206d617820737570706c7960008201527f206f662041706573000000000000000000000000000000000000000000000000602082015250565b50565b7f45786365656473205573657220546573736572616374204c696d697400000000600082015250565b61136981611149565b811461137457600080fd5b50565b61138081611199565b811461138b57600080fd5b5056fea2646970667358221220bb6e3ebaee1c971cd66b772a0e542dbdd39b73eb08593d182e4243f095ae757464736f6c63430008040033",
  "linkReferences": {},
  "deployedLinkReferences": {}
}